{
  "_format": "hh-sol-artifact-1",
  "contractName": "Plinko",
  "sourceName": "contracts/Plinko.sol",
  "abi": [
    {
      "inputs": [
        {
          "internalType": "address",
          "name": "_mainContractAddress",
          "type": "address"
        }
      ],
      "stateMutability": "nonpayable",
      "type": "constructor"
    },
    {
      "anonymous": false,
      "inputs": [
        {
          "indexed": true,
          "internalType": "address",
          "name": "player",
          "type": "address"
        },
        {
          "indexed": false,
          "internalType": "uint256",
          "name": "",
          "type": "uint256"
        },
        {
          "indexed": false,
          "internalType": "uint256",
          "name": "",
          "type": "uint256"
        },
        {
          "indexed": false,
          "internalType": "uint16[]",
          "name": "multipliers",
          "type": "uint16[]"
        },
        {
          "indexed": false,
          "internalType": "enum Plinko.Difficulty",
          "name": "",
          "type": "uint8"
        },
        {
          "indexed": false,
          "internalType": "uint256",
          "name": "",
          "type": "uint256"
        }
      ],
      "name": "BetBatchFinish",
      "type": "event"
    },
    {
      "inputs": [
        {
          "internalType": "uint256",
          "name": "betAmount",
          "type": "uint256"
        },
        {
          "internalType": "uint8",
          "name": "betCount",
          "type": "uint8"
        },
        {
          "internalType": "enum Plinko.Difficulty",
          "name": "difficulty",
          "type": "uint8"
        }
      ],
      "name": "batchBets",
      "outputs": [],
      "stateMutability": "nonpayable",
      "type": "function"
    },
    {
      "inputs": [
        {
          "internalType": "enum Plinko.Difficulty",
          "name": "",
          "type": "uint8"
        },
        {
          "internalType": "uint256",
          "name": "",
          "type": "uint256"
        }
      ],
      "name": "difficultyLevels",
      "outputs": [
        {
          "internalType": "uint16",
          "name": "",
          "type": "uint16"
        }
      ],
      "stateMutability": "view",
      "type": "function"
    },
    {
      "inputs": [
        {
          "internalType": "uint32",
          "name": "max",
          "type": "uint32"
        },
        {
          "internalType": "uint16",
          "name": "nonce",
          "type": "uint16"
        }
      ],
      "name": "getRandomNumber",
      "outputs": [
        {
          "internalType": "uint32",
          "name": "",
          "type": "uint32"
        }
      ],
      "stateMutability": "view",
      "type": "function"
    },
    {
      "inputs": [],
      "name": "mainContractAddress",
      "outputs": [
        {
          "internalType": "address",
          "name": "",
          "type": "address"
        }
      ],
      "stateMutability": "view",
      "type": "function"
    },
    {
      "inputs": [],
      "name": "owner",
      "outputs": [
        {
          "internalType": "address",
          "name": "",
          "type": "address"
        }
      ],
      "stateMutability": "view",
      "type": "function"
    }
  ],
  "bytecode": "0x6080604052600a600360006101000a81548160ff021916908360ff1602179055506040518060e00160405280603062ffffff16815260200161027a62ffffff168152602001610f1062ffffff16815260200161396a62ffffff1681526020016197d462ffffff16815260200162012ee462ffffff1681526020016201870462ffffff1681525060049060076200009792919062000357565b50620186a0600560006101000a81548163ffffffff021916908363ffffffff160217905550348015620000c957600080fd5b5060405162001a8e38038062001a8e8339818101604052810190620000ef9190620005cf565b33600160006101000a81548173ffffffffffffffffffffffffffffffffffffffff021916908373ffffffffffffffffffffffffffffffffffffffff160217905550806000806101000a81548173ffffffffffffffffffffffffffffffffffffffff021916908373ffffffffffffffffffffffffffffffffffffffff1602179055506040518060e00160405280606e60ff168152602001602060ff168152602001601060ff168152602001600c60ff168152602001600b60ff168152602001600a60ff168152602001600560ff1681525060026000806002811115620001d957620001d862000601565b5b6002811115620001ee57620001ed62000601565b5b81526020019081526020016000209060076200020c929190620003ff565b506040518060e0016040528060fa60ff168152602001605060ff168152602001601f60ff168152602001601160ff168152602001600c60ff168152602001600760ff168152602001600360ff16815250600260006001600281111562000277576200027662000601565b5b60028111156200028c576200028b62000601565b5b8152602001908152602001600020906007620002aa929190620003ff565b506040518060e0016040528061058261ffff16815260200160fa61ffff168152602001605161ffff168152602001601761ffff168152602001600761ffff168152602001600261ffff168152602001600061ffff16815250600260006002808111156200031c576200031b62000601565b5b600281111562000331576200033062000601565b5b81526020019081526020016000209060076200034f929190620004a2565b505062000630565b8260078001600890048101928215620003ec5791602002820160005b83821115620003b857835183826101000a81548163ffffffff021916908362ffffff160217905550926020019260040160208160030104928301926001030262000373565b8015620003ea5782816101000a81549063ffffffff0219169055600401602081600301049283019260010302620003b8565b505b509050620003fb919062000546565b5090565b826007600f016010900481019282156200048f5791602002820160005b838211156200045d57835183826101000a81548161ffff021916908360ff16021790555092602001926002016020816001010492830192600103026200041c565b80156200048d5782816101000a81549061ffff02191690556002016020816001010492830192600103026200045d565b505b5090506200049e919062000546565b5090565b826007600f01601090048101928215620005335791602002820160005b838211156200050157835183826101000a81548161ffff021916908361ffff1602179055509260200192600201602081600101049283019260010302620004bf565b8015620005315782816101000a81549061ffff021916905560020160208160010104928301926001030262000501565b505b50905062000542919062000546565b5090565b5b808211156200056157600081600090555060010162000547565b5090565b600080fd5b600073ffffffffffffffffffffffffffffffffffffffff82169050919050565b600062000597826200056a565b9050919050565b620005a9816200058a565b8114620005b557600080fd5b50565b600081519050620005c9816200059e565b92915050565b600060208284031215620005e857620005e762000565565b5b6000620005f884828501620005b8565b91505092915050565b7f4e487b7100000000000000000000000000000000000000000000000000000000600052602160045260246000fd5b61144e80620006406000396000f3fe608060405234801561001057600080fd5b50600436106100575760003560e01c80638da5cb5b1461005c57806397b531811461007a578063a385f977146100aa578063d48df9c2146100c6578063da6b7356146100f6575b600080fd5b610064610114565b6040516100719190610a0f565b60405180910390f35b610094600480360381019061008f9190610a8a565b61013a565b6040516100a19190610ae7565b60405180910390f35b6100c460048036038101906100bf9190610b3b565b610177565b005b6100e060048036038101906100db9190610bf6565b61073f565b6040516100ed9190610c45565b60405180910390f35b6100fe6107e4565b60405161010b9190610a0f565b60405180910390f35b600160009054906101000a900473ffffffffffffffffffffffffffffffffffffffff1681565b6002602052816000526040600020816007811061015657600080fd5b60109182820401919006600202915091509054906101000a900461ffff1681565b60008260ff16846101889190610c8f565b905060008360ff161180156101a1575060648360ff1611155b6101e0576040517f08c379a00000000000000000000000000000000000000000000000000000000081526004016101d790610d2e565b60405180910390fd5b60008411610223576040517f08c379a000000000000000000000000000000000000000000000000000000000815260040161021a90610d9a565b60405180910390fd5b60006002600084600281111561023c5761023b610dba565b5b600281111561024e5761024d610dba565b5b81526020019081526020016000206007806020026040519081016040528092919082600780156102bb576020028201916000905b82829054906101000a900461ffff1661ffff16815260200190600201906020826001010492830192600103820291508084116102825790505b50505050509050600360009054906101000a900460ff1660ff1681600160076102e49190610de9565b600781106102f5576102f4610e1d565b5b602002015161ffff168560ff168761030d9190610c8f565b6103179190610c8f565b6103219190610e7b565b60008054906101000a900473ffffffffffffffffffffffffffffffffffffffff1673ffffffffffffffffffffffffffffffffffffffff16631a0843c06040518163ffffffff1660e01b81526004016020604051808303816000875af115801561038e573d6000803e3d6000fd5b505050506040513d601f19601f820116820180604052508101906103b29190610ec1565b116103f2576040517f08c379a00000000000000000000000000000000000000000000000000000000081526004016103e990610f3a565b60405180910390fd5b8160008054906101000a900473ffffffffffffffffffffffffffffffffffffffff1673ffffffffffffffffffffffffffffffffffffffff16639b96eece336040518263ffffffff1660e01b815260040161044c9190610a0f565b602060405180830381865afa158015610469573d6000803e3d6000fd5b505050506040513d601f19601f8201168201806040525081019061048d9190610ec1565b10156104ce576040517f08c379a00000000000000000000000000000000000000000000000000000000081526004016104c590610fa6565b60405180910390fd5b60008460ff1667ffffffffffffffff8111156104ed576104ec610fc6565b5b60405190808252806020026020018201604052801561051b5781602001602082028036833780820191505090505b5090506000805b8660ff168161ffff16101561059857600061053d8288610808565b9050600061054b8a83610997565b905080846105599190610ff5565b935081858461ffff168151811061057357610572610e1d565b5b602002602001019061ffff16908161ffff168152505050508080600101915050610522565b508381111561063e5760008054906101000a900473ffffffffffffffffffffffffffffffffffffffff1673ffffffffffffffffffffffffffffffffffffffff1663eb39327a3386846105ea9190610de9565b6040518363ffffffff1660e01b8152600401610607929190611038565b600060405180830381600087803b15801561062157600080fd5b505af1158015610635573d6000803e3d6000fd5b505050506106e0565b838110156106df5760008054906101000a900473ffffffffffffffffffffffffffffffffffffffff1673ffffffffffffffffffffffffffffffffffffffff166363fb576f33838761068f9190610de9565b6040518363ffffffff1660e01b81526004016106ac929190611038565b600060405180830381600087803b1580156106c657600080fd5b505af11580156106da573d6000803e3d6000fd5b505050505b5b3373ffffffffffffffffffffffffffffffffffffffff167fb27d0cc08f141cffab8ffb05e73f355d9824b0332cf730647817ccde9ec07b38888385894260405161072e959493929190611167565b60405180910390a250505050505050565b6000808363ffffffff1611610789576040517f08c379a00000000000000000000000000000000000000000000000000000000081526004016107809061120d565b60405180910390fd5b6000424433856040516020016107a294939291906112cc565b6040516020818303038152906040528051906020012060001c90506001846107ca919061131a565b63ffffffff16816107db9190611352565b91505092915050565b60008054906101000a900473ffffffffffffffffffffffffffffffffffffffff1681565b6000806002600084600281111561082257610821610dba565b5b600281111561083457610833610dba565b5b81526020019081526020016000206007806020026040519081016040528092919082600780156108a1576020028201916000905b82829054906101000a900461ffff1661ffff16815260200190600201906020826001010492830192600103820291508084116108685790505b5050505050905060006108c6600560009054906101000a900463ffffffff168661073f565b905060005b60078160ff1610156109555760048160ff16600781106108ee576108ed610e1d565b5b600891828204019190066004029054906101000a900463ffffffff1663ffffffff168263ffffffff16101561094257828160ff166007811061093357610932610e1d565b5b60200201519350505050610991565b808061094d90611383565b9150506108cb565b506040517f08c379a0000000000000000000000000000000000000000000000000000000008152600401610988906113f8565b60405180910390fd5b92915050565b6000600360009054906101000a900460ff1660ff168261ffff16846109bc9190610c8f565b6109c69190610e7b565b905092915050565b600073ffffffffffffffffffffffffffffffffffffffff82169050919050565b60006109f9826109ce565b9050919050565b610a09816109ee565b82525050565b6000602082019050610a246000830184610a00565b92915050565b600080fd5b60038110610a3c57600080fd5b50565b600081359050610a4e81610a2f565b92915050565b6000819050919050565b610a6781610a54565b8114610a7257600080fd5b50565b600081359050610a8481610a5e565b92915050565b60008060408385031215610aa157610aa0610a2a565b5b6000610aaf85828601610a3f565b9250506020610ac085828601610a75565b9150509250929050565b600061ffff82169050919050565b610ae181610aca565b82525050565b6000602082019050610afc6000830184610ad8565b92915050565b600060ff82169050919050565b610b1881610b02565b8114610b2357600080fd5b50565b600081359050610b3581610b0f565b92915050565b600080600060608486031215610b5457610b53610a2a565b5b6000610b6286828701610a75565b9350506020610b7386828701610b26565b9250506040610b8486828701610a3f565b9150509250925092565b600063ffffffff82169050919050565b610ba781610b8e565b8114610bb257600080fd5b50565b600081359050610bc481610b9e565b92915050565b610bd381610aca565b8114610bde57600080fd5b50565b600081359050610bf081610bca565b92915050565b60008060408385031215610c0d57610c0c610a2a565b5b6000610c1b85828601610bb5565b9250506020610c2c85828601610be1565b9150509250929050565b610c3f81610b8e565b82525050565b6000602082019050610c5a6000830184610c36565b92915050565b7f4e487b7100000000000000000000000000000000000000000000000000000000600052601160045260246000fd5b6000610c9a82610a54565b9150610ca583610a54565b9250828202610cb381610a54565b91508282048414831517610cca57610cc9610c60565b5b5092915050565b600082825260208201905092915050565b7f6e206f662062657473206265747765656e203020616e64203130300000000000600082015250565b6000610d18601b83610cd1565b9150610d2382610ce2565b602082019050919050565b60006020820190508181036000830152610d4781610d0b565b9050919050565b7f546f6f20736d616c6c2062657420616d6f756e74000000000000000000000000600082015250565b6000610d84601483610cd1565b9150610d8f82610d4e565b602082019050919050565b60006020820190508181036000830152610db381610d77565b9050919050565b7f4e487b7100000000000000000000000000000000000000000000000000000000600052602160045260246000fd5b6000610df482610a54565b9150610dff83610a54565b9250828203905081811115610e1757610e16610c60565b5b92915050565b7f4e487b7100000000000000000000000000000000000000000000000000000000600052603260045260246000fd5b7f4e487b7100000000000000000000000000000000000000000000000000000000600052601260045260246000fd5b6000610e8682610a54565b9150610e9183610a54565b925082610ea157610ea0610e4c565b5b828204905092915050565b600081519050610ebb81610a5e565b92915050565b600060208284031215610ed757610ed6610a2a565b5b6000610ee584828501610eac565b91505092915050565b7f4e6f7420656e6f7567682066756e647320696e20636173696e6f000000000000600082015250565b6000610f24601a83610cd1565b9150610f2f82610eee565b602082019050919050565b60006020820190508181036000830152610f5381610f17565b9050919050565b7f596f752068617665206e6f7420656e6f7567682066756e647300000000000000600082015250565b6000610f90601983610cd1565b9150610f9b82610f5a565b602082019050919050565b60006020820190508181036000830152610fbf81610f83565b9050919050565b7f4e487b7100000000000000000000000000000000000000000000000000000000600052604160045260246000fd5b600061100082610a54565b915061100b83610a54565b925082820190508082111561102357611022610c60565b5b92915050565b61103281610a54565b82525050565b600060408201905061104d6000830185610a00565b61105a6020830184611029565b9392505050565b600081519050919050565b600082825260208201905092915050565b6000819050602082019050919050565b61109681610aca565b82525050565b60006110a8838361108d565b60208301905092915050565b6000602082019050919050565b60006110cc82611061565b6110d6818561106c565b93506110e18361107d565b8060005b838110156111125781516110f9888261109c565b9750611104836110b4565b9250506001810190506110e5565b5085935050505092915050565b600381106111305761112f610dba565b5b50565b60008190506111418261111f565b919050565b600061115182611133565b9050919050565b61116181611146565b82525050565b600060a08201905061117c6000830188611029565b6111896020830187611029565b818103604083015261119b81866110c1565b90506111aa6060830185611158565b6111b76080830184611029565b9695505050505050565b7f6d6178206d7573742062652067726561746572207468616e2030000000000000600082015250565b60006111f7601a83610cd1565b9150611202826111c1565b602082019050919050565b60006020820190508181036000830152611226816111ea565b9050919050565b6000819050919050565b61124861124382610a54565b61122d565b82525050565b60008160601b9050919050565b60006112668261124e565b9050919050565b60006112788261125b565b9050919050565b61129061128b826109ee565b61126d565b82525050565b60008160f01b9050919050565b60006112ae82611296565b9050919050565b6112c66112c182610aca565b6112a3565b82525050565b60006112d88287611237565b6020820191506112e88286611237565b6020820191506112f8828561127f565b60148201915061130882846112b5565b60028201915081905095945050505050565b600061132582610b8e565b915061133083610b8e565b9250828201905063ffffffff81111561134c5761134b610c60565b5b92915050565b600061135d82610a54565b915061136883610a54565b92508261137857611377610e4c565b5b828206905092915050565b600061138e82610b02565b915060ff82036113a1576113a0610c60565b5b600182019050919050565b7f4e6f206368616e63652073656c65637465640000000000000000000000000000600082015250565b60006113e2601283610cd1565b91506113ed826113ac565b602082019050919050565b60006020820190508181036000830152611411816113d5565b905091905056fea26469706673582212205b20c84bceef735e2ee3e5d34703e1ffd0263ffdaf0902a15cd8c06655bba2ad64736f6c63430008180033",
  "linkReferences": {},
  "deployedLinkReferences": {}
}