{"contracts/Blackjack.sol":{"Blackjack":{"abi":[{"inputs":[{"internalType":"address","name":"_mainContractAddress","type":"address"}],"stateMutability":"nonpayable","type":"constructor"},{"anonymous":false,"inputs":[{"indexed":true,"internalType":"address","name":"player","type":"address"},{"indexed":true,"internalType":"enum Blackjack.GameStatus","name":"status","type":"uint8"},{"indexed":false,"internalType":"uint256","name":"","type":"uint256"},{"indexed":false,"internalType":"uint8[]","name":"","type":"uint8[]"},{"indexed":false,"internalType":"uint8[]","name":"","type":"uint8[]"},{"indexed":false,"internalType":"uint256","name":"","type":"uint256"}],"name":"GameUpdated","type":"event"},{"inputs":[{"internalType":"uint256","name":"amount","type":"uint256"}],"name":"bet","outputs":[],"stateMutability":"nonpayable","type":"function"},{"inputs":[{"internalType":"uint8[]","name":"hand","type":"uint8[]"}],"name":"countPoints","outputs":[{"internalType":"uint8","name":"totalPoints","type":"uint8"}],"stateMutability":"pure","type":"function"},{"inputs":[],"name":"doubleDown","outputs":[],"stateMutability":"nonpayable","type":"function"},{"inputs":[],"name":"emitCurrentGame","outputs":[],"stateMutability":"nonpayable","type":"function"},{"inputs":[],"name":"getBankPoints","outputs":[{"internalType":"uint8","name":"","type":"uint8"}],"stateMutability":"view","type":"function"},{"inputs":[],"name":"getCurrentGame","outputs":[{"components":[{"internalType":"uint256","name":"timestamp","type":"uint256"},{"internalType":"uint256","name":"betAmount","type":"uint256"},{"internalType":"uint8[]","name":"bankHand","type":"uint8[]"},{"internalType":"uint8[]","name":"playerHand","type":"uint8[]"},{"internalType":"uint8[52]","name":"deck","type":"uint8[52]"},{"internalType":"uint8","name":"deckTopIndex","type":"uint8"},{"internalType":"enum Blackjack.GameStatus","name":"status","type":"uint8"}],"internalType":"struct Blackjack.Game","name":"game","type":"tuple"}],"stateMutability":"view","type":"function"},{"inputs":[],"name":"getPlayerPoints","outputs":[{"internalType":"uint8","name":"","type":"uint8"}],"stateMutability":"view","type":"function"},{"inputs":[],"name":"hit","outputs":[],"stateMutability":"nonpayable","type":"function"},{"inputs":[],"name":"mainContractAddress","outputs":[{"internalType":"address","name":"","type":"address"}],"stateMutability":"view","type":"function"},{"inputs":[],"name":"owner","outputs":[{"internalType":"address","name":"","type":"address"}],"stateMutability":"view","type":"function"},{"inputs":[],"name":"pass","outputs":[],"stateMutability":"nonpayable","type":"function"}],"evm":{"bytecode":{"linkReferences":{},"object":"6080604052604051806106800160405280600060ff168152602001600160ff168152602001600260ff168152602001600360ff168152602001600460ff168152602001600560ff168152602001600660ff168152602001600760ff168152602001600860ff168152602001600960ff168152602001600a60ff168152602001600b60ff168152602001600c60ff168152602001600d60ff168152602001600e60ff168152602001600f60ff168152602001601060ff168152602001601160ff168152602001601260ff168152602001601360ff168152602001601460ff168152602001601560ff168152602001601660ff168152602001601760ff168152602001601860ff168152602001601960ff168152602001601a60ff168152602001601b60ff168152602001601c60ff168152602001601d60ff168152602001601e60ff168152602001601f60ff168152602001602060ff168152602001602160ff168152602001602260ff168152602001602360ff168152602001602460ff168152602001602560ff168152602001602660ff168152602001602760ff168152602001602860ff168152602001602960ff168152602001602a60ff168152602001602b60ff168152602001602c60ff168152602001602d60ff168152602001602e60ff168152602001602f60ff168152602001603060ff168152602001603160ff168152602001603260ff168152602001603360ff16815250600290603462000228929190620002e4565b503480156200023657600080fd5b5060405162004aa238038062004aa283398181016040528101906200025c91906200040e565b336000806101000a81548173ffffffffffffffffffffffffffffffffffffffff021916908373ffffffffffffffffffffffffffffffffffffffff16021790555080600160006101000a81548173ffffffffffffffffffffffffffffffffffffffff021916908373ffffffffffffffffffffffffffffffffffffffff1602179055505062000440565b826034601f01602090048101928215620003725791602002820160005b838211156200034157835183826101000a81548160ff021916908360ff160217905550926020019260010160208160000104928301926001030262000301565b8015620003705782816101000a81549060ff021916905560010160208160000104928301926001030262000341565b505b50905062000381919062000385565b5090565b5b80821115620003a057600081600090555060010162000386565b5090565b600080fd5b600073ffffffffffffffffffffffffffffffffffffffff82169050919050565b6000620003d682620003a9565b9050919050565b620003e881620003c9565b8114620003f457600080fd5b50565b6000815190506200040881620003dd565b92915050565b600060208284031215620004275762000426620003a4565b5b60006200043784828501620003f7565b91505092915050565b61465280620004506000396000f3fe608060405234801561001057600080fd5b50600436106100a95760003560e01c8063968d901b11610071578063968d901b1461012c578063a7a1ed721461014a578063a7e1f6a214610154578063ac0023531461015e578063da6b73561461017c578063edc039221461019a576100a9565b80632ae3594a146100ae57806372c432cd146100b85780637365870b146100c25780638da5cb5b146100de578063905348ca146100fc575b600080fd5b6100b66101b8565b005b6100c06105e0565b005b6100dc60048036038101906100d79190612c13565b61079e565b005b6100e661112e565b6040516100f39190612c81565b60405180910390f35b61011660048036038101906101119190612e2e565b611152565b6040516101239190612e86565b60405180910390f35b610134611247565b604051610141919061310f565b60405180910390f35b610152611471565b005b61015c6119e9565b005b610166612123565b6040516101739190612e86565b60405180910390f35b6101846121e9565b6040516101919190612c81565b60405180910390f35b6101a261220f565b6040516101af9190612e86565b60405180910390f35b6000600460003373ffffffffffffffffffffffffffffffffffffffff1673ffffffffffffffffffffffffffffffffffffffff1681526020019081526020016000206040518060e001604052908160008201548152602001600182015481526020016002820180548060200260200160405190810160405280929190818152602001828054801561028d57602002820191906000526020600020906000905b82829054906101000a900460ff1660ff16815260200190600101906020826000010492830192600103820291508084116102565790505b505050505081526020016003820180548060200260200160405190810160405280929190818152602001828054801561030b57602002820191906000526020600020906000905b82829054906101000a900460ff1660ff16815260200190600101906020826000010492830192600103820291508084116102d45790505b5050505050815260200160048201603480602002604051908101604052809291908260348015610376576020028201916000905b82829054906101000a900460ff1660ff168152602001906001019060208260000104928301926001038202915080841161033f5790505b505050505081526020016006820160009054906101000a900460ff1660ff1660ff1681526020016006820160019054906101000a900460ff1660058111156103c1576103c0612ff2565b5b60058111156103d3576103d2612ff2565b5b815250509050600160058111156103ed576103ec612ff2565b5b8160c00151600581111561040457610403612ff2565b5b14610444576040517f08c379a000000000000000000000000000000000000000000000000000000000815260040161043b9061318e565b60405180910390fd5b600460003373ffffffffffffffffffffffffffffffffffffffff1673ffffffffffffffffffffffffffffffffffffffff16815260200190815260200160002060030161048e6122d5565b90806001815401808255809150506001900390600052602060002090602091828204019190069091909190916101000a81548160ff021916908360ff16021790555060006104da612123565b60ff1690506015810361055f576002600460003373ffffffffffffffffffffffffffffffffffffffff1673ffffffffffffffffffffffffffffffffffffffff16815260200190815260200160002060060160016101000a81548160ff0219169083600581111561054d5761054c612ff2565b5b021790555061055a612476565b6105d4565b60158111156105d35760048060003373ffffffffffffffffffffffffffffffffffffffff1673ffffffffffffffffffffffffffffffffffffffff16815260200190815260200160002060060160016101000a81548160ff021916908360058111156105cd576105cc612ff2565b5b02179055505b5b6105dc6105e0565b5050565b600460003373ffffffffffffffffffffffffffffffffffffffff1673ffffffffffffffffffffffffffffffffffffffff16815260200190815260200160002060060160019054906101000a900460ff16600581111561064257610641612ff2565b5b3373ffffffffffffffffffffffffffffffffffffffff167f6563a737afa8d40e211a7ba59a725092f282d6357188efdf00e641b4d97b816c600460003373ffffffffffffffffffffffffffffffffffffffff1673ffffffffffffffffffffffffffffffffffffffff16815260200190815260200160002060010154600460003373ffffffffffffffffffffffffffffffffffffffff1673ffffffffffffffffffffffffffffffffffffffff168152602001908152602001600020600201600460003373ffffffffffffffffffffffffffffffffffffffff1673ffffffffffffffffffffffffffffffffffffffff168152602001908152602001600020600301600460003373ffffffffffffffffffffffffffffffffffffffff1673ffffffffffffffffffffffffffffffffffffffff168152602001908152602001600020600001546040516107949493929190613f21565b60405180910390a3565b6000600460003373ffffffffffffffffffffffffffffffffffffffff1673ffffffffffffffffffffffffffffffffffffffff1681526020019081526020016000206040518060e001604052908160008201548152602001600182015481526020016002820180548060200260200160405190810160405280929190818152602001828054801561087357602002820191906000526020600020906000905b82829054906101000a900460ff1660ff168152602001906001019060208260000104928301926001038202915080841161083c5790505b50505050508152602001600382018054806020026020016040519081016040528092919081815260200182805480156108f157602002820191906000526020600020906000905b82829054906101000a900460ff1660ff16815260200190600101906020826000010492830192600103820291508084116108ba5790505b505050505081526020016004820160348060200260405190810160405280929190826034801561095c576020028201916000905b82829054906101000a900460ff1660ff16815260200190600101906020826000010492830192600103820291508084116109255790505b505050505081526020016006820160009054906101000a900460ff1660ff1660ff1681526020016006820160019054906101000a900460ff1660058111156109a7576109a6612ff2565b5b60058111156109b9576109b8612ff2565b5b81525050905060008211610a02576040517f08c379a00000000000000000000000000000000000000000000000000000000081526004016109f990613fc0565b60405180910390fd5b60016005811115610a1657610a15612ff2565b5b8160c001516005811115610a2d57610a2c612ff2565b5b03610a6d576040517f08c379a0000000000000000000000000000000000000000000000000000000008152600401610a649061402c565b60405180910390fd5b600282610a7a919061407b565b600160009054906101000a900473ffffffffffffffffffffffffffffffffffffffff1673ffffffffffffffffffffffffffffffffffffffff16631a0843c06040518163ffffffff1660e01b81526004016020604051808303816000875af1158015610ae9573d6000803e3d6000fd5b505050506040513d601f19601f82011682018060405250810190610b0d91906140d2565b11610b4d576040517f08c379a0000000000000000000000000000000000000000000000000000000008152600401610b449061414b565b60405180910390fd5b81600160009054906101000a900473ffffffffffffffffffffffffffffffffffffffff1673ffffffffffffffffffffffffffffffffffffffff16639b96eece336040518263ffffffff1660e01b8152600401610ba99190612c81565b602060405180830381865afa158015610bc6573d6000803e3d6000fd5b505050506040513d601f19601f82011682018060405250810190610bea91906140d2565b1015610c2b576040517f08c379a0000000000000000000000000000000000000000000000000000000008152600401610c22906141b7565b60405180910390fd5b600160009054906101000a900473ffffffffffffffffffffffffffffffffffffffff1673ffffffffffffffffffffffffffffffffffffffff166363fb576f33846040518363ffffffff1660e01b8152600401610c889291906141d7565b600060405180830381600087803b158015610ca257600080fd5b505af1158015610cb6573d6000803e3d6000fd5b505050506040518060e00160405280428152602001838152602001600067ffffffffffffffff811115610cec57610ceb612cb2565b5b604051908082528060200260200182016040528015610d1a5781602001602082028036833780820191505090505b508152602001600067ffffffffffffffff811115610d3b57610d3a612cb2565b5b604051908082528060200260200182016040528015610d695781602001602082028036833780820191505090505b5081526020016002603480602002604051908101604052809291908260348015610dce576020028201916000905b82829054906101000a900460ff1660ff1681526020019060010190602082600001049283019260010382029150808411610d975790505b50505050508152602001600060ff16815260200160016005811115610df657610df5612ff2565b5b815250600460003373ffffffffffffffffffffffffffffffffffffffff1673ffffffffffffffffffffffffffffffffffffffff16815260200190815260200160002060008201518160000155602082015181600101556040820151816002019080519060200190610e689291906129f0565b506060820151816003019080519060200190610e859291906129f0565b50608082015181600401906034610e9d929190612a97565b5060a08201518160060160006101000a81548160ff021916908360ff16021790555060c08201518160060160016101000a81548160ff02191690836005811115610eea57610ee9612ff2565b5b0217905550905050600460003373ffffffffffffffffffffffffffffffffffffffff1673ffffffffffffffffffffffffffffffffffffffff168152602001908152602001600020600201610f3c6122d5565b90806001815401808255809150506001900390600052602060002090602091828204019190069091909190916101000a81548160ff021916908360ff160217905550600460003373ffffffffffffffffffffffffffffffffffffffff1673ffffffffffffffffffffffffffffffffffffffff168152602001908152602001600020600301610fc86122d5565b90806001815401808255809150506001900390600052602060002090602091828204019190069091909190916101000a81548160ff021916908360ff160217905550600460003373ffffffffffffffffffffffffffffffffffffffff1673ffffffffffffffffffffffffffffffffffffffff1681526020019081526020016000206003016110546122d5565b90806001815401808255809150506001900390600052602060002090602091828204019190069091909190916101000a81548160ff021916908360ff16021790555060006110a0612123565b60ff16905060158103611121576003600460003373ffffffffffffffffffffffffffffffffffffffff1673ffffffffffffffffffffffffffffffffffffffff16815260200190815260200160002060060160016101000a81548160ff0219169083600581111561111357611112612ff2565b5b0217905550611120612476565b5b6111296105e0565b505050565b60008054906101000a900473ffffffffffffffffffffffffffffffffffffffff1681565b60008060005b8351811015611202576000600d85838151811061117857611177614200565b5b602002602001015161118a919061425e565b905060008160ff16036111b95782806111a29061428f565b935050600b846111b291906142b8565b93506111f4565b600a8160ff16106111d857600a846111d191906142b8565b93506111f3565b6001816111e591906142b8565b846111f091906142b8565b93505b5b508080600101915050611158565b505b60158260ff1611801561121a575060008160ff16115b1561124157600a8261122c91906142ed565b9150808061123990614322565b915050611204565b50919050565b61124f612b31565b600460003373ffffffffffffffffffffffffffffffffffffffff1673ffffffffffffffffffffffffffffffffffffffff1681526020019081526020016000206040518060e001604052908160008201548152602001600182015481526020016002820180548060200260200160405190810160405280929190818152602001828054801561132257602002820191906000526020600020906000905b82829054906101000a900460ff1660ff16815260200190600101906020826000010492830192600103820291508084116112eb5790505b50505050508152602001600382018054806020026020016040519081016040528092919081815260200182805480156113a057602002820191906000526020600020906000905b82829054906101000a900460ff1660ff16815260200190600101906020826000010492830192600103820291508084116113695790505b505050505081526020016004820160348060200260405190810160405280929190826034801561140b576020028201916000905b82829054906101000a900460ff1660ff16815260200190600101906020826000010492830192600103820291508084116113d45790505b505050505081526020016006820160009054906101000a900460ff1660ff1660ff1681526020016006820160019054906101000a900460ff16600581111561145657611455612ff2565b5b600581111561146857611467612ff2565b5b81525050905090565b6000600460003373ffffffffffffffffffffffffffffffffffffffff1673ffffffffffffffffffffffffffffffffffffffff1681526020019081526020016000206040518060e001604052908160008201548152602001600182015481526020016002820180548060200260200160405190810160405280929190818152602001828054801561154657602002820191906000526020600020906000905b82829054906101000a900460ff1660ff168152602001906001019060208260000104928301926001038202915080841161150f5790505b50505050508152602001600382018054806020026020016040519081016040528092919081815260200182805480156115c457602002820191906000526020600020906000905b82829054906101000a900460ff1660ff168152602001906001019060208260000104928301926001038202915080841161158d5790505b505050505081526020016004820160348060200260405190810160405280929190826034801561162f576020028201916000905b82829054906101000a900460ff1660ff16815260200190600101906020826000010492830192600103820291508084116115f85790505b505050505081526020016006820160009054906101000a900460ff1660ff1660ff1681526020016006820160019054906101000a900460ff16600581111561167a57611679612ff2565b5b600581111561168c5761168b612ff2565b5b815250509050600160058111156116a6576116a5612ff2565b5b8160c0015160058111156116bd576116bc612ff2565b5b146116fd576040517f08c379a00000000000000000000000000000000000000000000000000000000081526004016116f49061318e565b60405180910390fd5b600460003373ffffffffffffffffffffffffffffffffffffffff1673ffffffffffffffffffffffffffffffffffffffff1681526020019081526020016000206002016117476122d5565b90806001815401808255809150506001900390600052602060002090602091828204019190069091909190916101000a81548160ff021916908360ff160217905550600061179361220f565b9050600061179f612123565b90505b60108260ff161161184857600460003373ffffffffffffffffffffffffffffffffffffffff1673ffffffffffffffffffffffffffffffffffffffff1681526020019081526020016000206002016117f76122d5565b90806001815401808255809150506001900390600052602060002090602091828204019190069091909190916101000a81548160ff021916908360ff16021790555061184161220f565b91506117a2565b60158260ff16118061185f57508060ff168260ff16105b156118dc576002600460003373ffffffffffffffffffffffffffffffffffffffff1673ffffffffffffffffffffffffffffffffffffffff16815260200190815260200160002060060160016101000a81548160ff021916908360058111156118ca576118c9612ff2565b5b02179055506118d7612476565b6119dc565b60158260ff1614806118f357508060ff168260ff16115b156119675760048060003373ffffffffffffffffffffffffffffffffffffffff1673ffffffffffffffffffffffffffffffffffffffff16815260200190815260200160002060060160016101000a81548160ff0219169083600581111561195d5761195c612ff2565b5b02179055506119db565b6005600460003373ffffffffffffffffffffffffffffffffffffffff1673ffffffffffffffffffffffffffffffffffffffff16815260200190815260200160002060060160016101000a81548160ff021916908360058111156119cd576119cc612ff2565b5b02179055506119da612739565b5b5b6119e46105e0565b505050565b6000600460003373ffffffffffffffffffffffffffffffffffffffff1673ffffffffffffffffffffffffffffffffffffffff1681526020019081526020016000206040518060e0016040529081600082015481526020016001820154815260200160028201805480602002602001604051908101604052809291908181526020018280548015611abe57602002820191906000526020600020906000905b82829054906101000a900460ff1660ff1681526020019060010190602082600001049283019260010382029150808411611a875790505b5050505050815260200160038201805480602002602001604051908101604052809291908181526020018280548015611b3c57602002820191906000526020600020906000905b82829054906101000a900460ff1660ff1681526020019060010190602082600001049283019260010382029150808411611b055790505b5050505050815260200160048201603480602002604051908101604052809291908260348015611ba7576020028201916000905b82829054906101000a900460ff1660ff1681526020019060010190602082600001049283019260010382029150808411611b705790505b505050505081526020016006820160009054906101000a900460ff1660ff1660ff1681526020016006820160019054906101000a900460ff166005811115611bf257611bf1612ff2565b5b6005811115611c0457611c03612ff2565b5b81525050905060016005811115611c1e57611c1d612ff2565b5b8160c001516005811115611c3557611c34612ff2565b5b14611c75576040517f08c379a0000000000000000000000000000000000000000000000000000000008152600401611c6c9061318e565b60405180910390fd5b600281606001515114611cbd576040517f08c379a0000000000000000000000000000000000000000000000000000000008152600401611cb4906143bd565b60405180910390fd5b6000600160009054906101000a900473ffffffffffffffffffffffffffffffffffffffff1673ffffffffffffffffffffffffffffffffffffffff16639b96eece336040518263ffffffff1660e01b8152600401611d1a9190612c81565b602060405180830381865afa158015611d37573d6000803e3d6000fd5b505050506040513d601f19601f82011682018060405250810190611d5b91906140d2565b905081602001518111611da3576040517f08c379a0000000000000000000000000000000000000000000000000000000008152600401611d9a90614429565b60405180910390fd5b6000600160009054906101000a900473ffffffffffffffffffffffffffffffffffffffff1673ffffffffffffffffffffffffffffffffffffffff16631a0843c06040518163ffffffff1660e01b81526004016020604051808303816000875af1158015611e14573d6000803e3d6000fd5b505050506040513d601f19601f82011682018060405250810190611e3891906140d2565b905082602001518111611e80576040517f08c379a0000000000000000000000000000000000000000000000000000000008152600401611e77906144bb565b60405180910390fd5b600160009054906101000a900473ffffffffffffffffffffffffffffffffffffffff1673ffffffffffffffffffffffffffffffffffffffff166363fb576f3385602001516040518363ffffffff1660e01b8152600401611ee19291906141d7565b600060405180830381600087803b158015611efb57600080fd5b505af1158015611f0f573d6000803e3d6000fd5b505050508260200151600460003373ffffffffffffffffffffffffffffffffffffffff1673ffffffffffffffffffffffffffffffffffffffff1681526020019081526020016000206001016000828254611f6991906144db565b92505081905550600460003373ffffffffffffffffffffffffffffffffffffffff1673ffffffffffffffffffffffffffffffffffffffff168152602001908152602001600020600301611fba6122d5565b90806001815401808255809150506001900390600052602060002090602091828204019190069091909190916101000a81548160ff021916908360ff1602179055506000612006612123565b60ff16905060158103612093576002600460003373ffffffffffffffffffffffffffffffffffffffff1673ffffffffffffffffffffffffffffffffffffffff16815260200190815260200160002060060160016101000a81548160ff0219169083600581111561207957612078612ff2565b5b0217905550612086612476565b61208e6105e0565b61211d565b60158111156121135760048060003373ffffffffffffffffffffffffffffffffffffffff1673ffffffffffffffffffffffffffffffffffffffff16815260200190815260200160002060060160016101000a81548160ff0219169083600581111561210157612100612ff2565b5b021790555061210e6105e0565b61211c565b61211b611471565b5b5b50505050565b60006121e4600460003373ffffffffffffffffffffffffffffffffffffffff1673ffffffffffffffffffffffffffffffffffffffff1681526020019081526020016000206003018054806020026020016040519081016040528092919081815260200182805480156121da57602002820191906000526020600020906000905b82829054906101000a900460ff1660ff16815260200190600101906020826000010492830192600103820291508084116121a35790505b5050505050611152565b905090565b600160009054906101000a900473ffffffffffffffffffffffffffffffffffffffff1681565b60006122d0600460003373ffffffffffffffffffffffffffffffffffffffff1673ffffffffffffffffffffffffffffffffffffffff1681526020019081526020016000206002018054806020026020016040519081016040528092919081815260200182805480156122c657602002820191906000526020600020906000905b82829054906101000a900460ff1660ff168152602001906001019060208260000104928301926001038202915080841161228f5790505b5050505050611152565b905090565b600080600460003373ffffffffffffffffffffffffffffffffffffffff1673ffffffffffffffffffffffffffffffffffffffff168152602001908152602001600020905060008160060160009054906101000a900460ff16603461233991906142ed565b60ff1642338460060160009054906101000a900460ff16604051602001612362939291906145ae565b6040516020818303038152906040528051906020012060001c61238591906145eb565b905081600401816034811061239d5761239c614200565b5b602091828204019190069054906101000a900460ff169250816004018260060160009054906101000a900460ff1660336123d791906142ed565b60ff16603481106123eb576123ea614200565b5b602091828204019190069054906101000a900460ff1682600401826034811061241757612416614200565b5b602091828204019190066101000a81548160ff021916908360ff16021790555081600601600081819054906101000a900460ff16809291906124589061428f565b91906101000a81548160ff021916908360ff16021790555050505090565b6000600460003373ffffffffffffffffffffffffffffffffffffffff1673ffffffffffffffffffffffffffffffffffffffff1681526020019081526020016000206040518060e001604052908160008201548152602001600182015481526020016002820180548060200260200160405190810160405280929190818152602001828054801561254b57602002820191906000526020600020906000905b82829054906101000a900460ff1660ff16815260200190600101906020826000010492830192600103820291508084116125145790505b50505050508152602001600382018054806020026020016040519081016040528092919081815260200182805480156125c957602002820191906000526020600020906000905b82829054906101000a900460ff1660ff16815260200190600101906020826000010492830192600103820291508084116125925790505b5050505050815260200160048201603480602002604051908101604052809291908260348015612634576020028201916000905b82829054906101000a900460ff1660ff16815260200190600101906020826000010492830192600103820291508084116125fd5790505b505050505081526020016006820160009054906101000a900460ff1660ff1660ff1681526020016006820160019054906101000a900460ff16600581111561267f5761267e612ff2565b5b600581111561269157612690612ff2565b5b815250509050600160009054906101000a900473ffffffffffffffffffffffffffffffffffffffff1673ffffffffffffffffffffffffffffffffffffffff1663eb39327a33600284602001516126e7919061407b565b6040518363ffffffff1660e01b81526004016127049291906141d7565b600060405180830381600087803b15801561271e57600080fd5b505af1158015612732573d6000803e3d6000fd5b5050505050565b6000600460003373ffffffffffffffffffffffffffffffffffffffff1673ffffffffffffffffffffffffffffffffffffffff1681526020019081526020016000206040518060e001604052908160008201548152602001600182015481526020016002820180548060200260200160405190810160405280929190818152602001828054801561280e57602002820191906000526020600020906000905b82829054906101000a900460ff1660ff16815260200190600101906020826000010492830192600103820291508084116127d75790505b505050505081526020016003820180548060200260200160405190810160405280929190818152602001828054801561288c57602002820191906000526020600020906000905b82829054906101000a900460ff1660ff16815260200190600101906020826000010492830192600103820291508084116128555790505b50505050508152602001600482016034806020026040519081016040528092919082603480156128f7576020028201916000905b82829054906101000a900460ff1660ff16815260200190600101906020826000010492830192600103820291508084116128c05790505b505050505081526020016006820160009054906101000a900460ff1660ff1660ff1681526020016006820160019054906101000a900460ff16600581111561294257612941612ff2565b5b600581111561295457612953612ff2565b5b815250509050600160009054906101000a900473ffffffffffffffffffffffffffffffffffffffff1673ffffffffffffffffffffffffffffffffffffffff1663eb39327a3383602001516040518363ffffffff1660e01b81526004016129bb9291906141d7565b600060405180830381600087803b1580156129d557600080fd5b505af11580156129e9573d6000803e3d6000fd5b5050505050565b82805482825590600052602060002090601f01602090048101928215612a865791602002820160005b83821115612a5757835183826101000a81548160ff021916908360ff1602179055509260200192600101602081600001049283019260010302612a19565b8015612a845782816101000a81549060ff0219169055600101602081600001049283019260010302612a57565b505b509050612a939190612b89565b5090565b826034601f01602090048101928215612b205791602002820160005b83821115612af157835183826101000a81548160ff021916908360ff1602179055509260200192600101602081600001049283019260010302612ab3565b8015612b1e5782816101000a81549060ff0219169055600101602081600001049283019260010302612af1565b505b509050612b2d9190612b89565b5090565b6040518060e0016040528060008152602001600081526020016060815260200160608152602001612b60612ba6565b8152602001600060ff16815260200160006005811115612b8357612b82612ff2565b5b81525090565b5b80821115612ba2576000816000905550600101612b8a565b5090565b604051806106800160405280603490602082028036833780820191505090505090565b6000604051905090565b600080fd5b600080fd5b6000819050919050565b612bf081612bdd565b8114612bfb57600080fd5b50565b600081359050612c0d81612be7565b92915050565b600060208284031215612c2957612c28612bd3565b5b6000612c3784828501612bfe565b91505092915050565b600073ffffffffffffffffffffffffffffffffffffffff82169050919050565b6000612c6b82612c40565b9050919050565b612c7b81612c60565b82525050565b6000602082019050612c966000830184612c72565b92915050565b600080fd5b6000601f19601f8301169050919050565b7f4e487b7100000000000000000000000000000000000000000000000000000000600052604160045260246000fd5b612cea82612ca1565b810181811067ffffffffffffffff82111715612d0957612d08612cb2565b5b80604052505050565b6000612d1c612bc9565b9050612d288282612ce1565b919050565b600067ffffffffffffffff821115612d4857612d47612cb2565b5b602082029050602081019050919050565b600080fd5b600060ff82169050919050565b612d7481612d5e565b8114612d7f57600080fd5b50565b600081359050612d9181612d6b565b92915050565b6000612daa612da584612d2d565b612d12565b90508083825260208201905060208402830185811115612dcd57612dcc612d59565b5b835b81811015612df65780612de28882612d82565b845260208401935050602081019050612dcf565b5050509392505050565b600082601f830112612e1557612e14612c9c565b5b8135612e25848260208601612d97565b91505092915050565b600060208284031215612e4457612e43612bd3565b5b600082013567ffffffffffffffff811115612e6257612e61612bd8565b5b612e6e84828501612e00565b91505092915050565b612e8081612d5e565b82525050565b6000602082019050612e9b6000830184612e77565b92915050565b612eaa81612bdd565b82525050565b600081519050919050565b600082825260208201905092915050565b6000819050602082019050919050565b612ee581612d5e565b82525050565b6000612ef78383612edc565b60208301905092915050565b6000602082019050919050565b6000612f1b82612eb0565b612f258185612ebb565b9350612f3083612ecc565b8060005b83811015612f61578151612f488882612eeb565b9750612f5383612f03565b925050600181019050612f34565b5085935050505092915050565b600060349050919050565b600081905092915050565b6000819050919050565b6000602082019050919050565b612fa481612f6e565b612fae8184612f79565b9250612fb982612f84565b8060005b83811015612fea578151612fd18782612eeb565b9650612fdc83612f8e565b925050600181019050612fbd565b505050505050565b7f4e487b7100000000000000000000000000000000000000000000000000000000600052602160045260246000fd5b6006811061303257613031612ff2565b5b50565b600081905061304382613021565b919050565b600061305382613035565b9050919050565b61306381613048565b82525050565b6000610740830160008301516130826000860182612ea1565b5060208301516130956020860182612ea1565b50604083015184820360408601526130ad8282612f10565b915050606083015184820360608601526130c78282612f10565b91505060808301516130dc6080860182612f9b565b5060a08301516130f0610700860182612edc565b5060c083015161310461072086018261305a565b508091505092915050565b600060208201905081810360008301526131298184613069565b905092915050565b600082825260208201905092915050565b7f596f752068617665206e6f2070656e64696e672067616d657300000000000000600082015250565b6000613178601983613131565b915061318382613142565b602082019050919050565b600060208201905081810360008301526131a78161316b565b9050919050565b6131b781612bdd565b82525050565b600081549050919050565b600082825260208201905092915050565b60008190508160005260206000209050919050565b60008160001c9050919050565b600060ff82169050919050565b600061321b613216836131ee565b6131fb565b9050919050565b60008160081c9050919050565b600061324261323d83613222565b6131fb565b9050919050565b60008160101c9050919050565b600061326961326483613249565b6131fb565b9050919050565b60008160181c9050919050565b600061329061328b83613270565b6131fb565b9050919050565b60008160201c9050919050565b60006132b76132b283613297565b6131fb565b9050919050565b60008160281c9050919050565b60006132de6132d9836132be565b6131fb565b9050919050565b60008160301c9050919050565b6000613305613300836132e5565b6131fb565b9050919050565b60008160381c9050919050565b600061332c6133278361330c565b6131fb565b9050919050565b60008160401c9050919050565b600061335361334e83613333565b6131fb565b9050919050565b60008160481c9050919050565b600061337a6133758361335a565b6131fb565b9050919050565b60008160501c9050919050565b60006133a161339c83613381565b6131fb565b9050919050565b60008160581c9050919050565b60006133c86133c3836133a8565b6131fb565b9050919050565b60008160601c9050919050565b60006133ef6133ea836133cf565b6131fb565b9050919050565b60008160681c9050919050565b6000613416613411836133f6565b6131fb565b9050919050565b60008160701c9050919050565b600061343d6134388361341d565b6131fb565b9050919050565b60008160781c9050919050565b600061346461345f83613444565b6131fb565b9050919050565b60008160801c9050919050565b600061348b6134868361346b565b6131fb565b9050919050565b60008160881c9050919050565b60006134b26134ad83613492565b6131fb565b9050919050565b60008160901c9050919050565b60006134d96134d4836134b9565b6131fb565b9050919050565b60008160981c9050919050565b60006135006134fb836134e0565b6131fb565b9050919050565b60008160a01c9050919050565b600061352761352283613507565b6131fb565b9050919050565b60008160a81c9050919050565b600061354e6135498361352e565b6131fb565b9050919050565b60008160b01c9050919050565b600061357561357083613555565b6131fb565b9050919050565b60008160b81c9050919050565b600061359c6135978361357c565b6131fb565b9050919050565b60008160c01c9050919050565b60006135c36135be836135a3565b6131fb565b9050919050565b60008160c81c9050919050565b60006135ea6135e5836135ca565b6131fb565b9050919050565b60008160d01c9050919050565b600061361161360c836135f1565b6131fb565b9050919050565b60008160d81c9050919050565b600061363861363383613618565b6131fb565b9050919050565b60008160e01c9050919050565b600061365f61365a8361363f565b6131fb565b9050919050565b60008160e81c9050919050565b600061368661368183613666565b6131fb565b9050919050565b60008160f01c9050919050565b60006136ad6136a88361368d565b6131fb565b9050919050565b60008160f81c9050919050565b60006136d46136cf836136b4565b6131fb565b9050919050565b60006136e6826131bd565b6136f081856131c8565b9350836136fc846131d9565b6000600115613a29575b83600160200382011015613a285781546137288861372383613208565b612edc565b6020880197506137408861373b8361322f565b612edc565b6020880197506137588861375383613256565b612edc565b6020880197506137708861376b8361327d565b612edc565b60208801975061378888613783836132a4565b612edc565b6020880197506137a08861379b836132cb565b612edc565b6020880197506137b8886137b3836132f2565b612edc565b6020880197506137d0886137cb83613319565b612edc565b6020880197506137e8886137e383613340565b612edc565b602088019750613800886137fb83613367565b612edc565b602088019750613818886138138361338e565b612edc565b6020880197506138308861382b836133b5565b612edc565b60208801975061384888613843836133dc565b612edc565b6020880197506138608861385b83613403565b612edc565b602088019750613878886138738361342a565b612edc565b6020880197506138908861388b83613451565b612edc565b6020880197506138a8886138a383613478565b612edc565b6020880197506138c0886138bb8361349f565b612edc565b6020880197506138d8886138d3836134c6565b612edc565b6020880197506138f0886138eb836134ed565b612edc565b6020880197506139088861390383613514565b612edc565b6020880197506139208861391b8361353b565b612edc565b6020880197506139388861393383613562565b612edc565b6020880197506139508861394b83613589565b612edc565b60208801975061396888613963836135b0565b612edc565b6020880197506139808861397b836135d7565b612edc565b60208801975061399888613993836135fe565b612edc565b6020880197506139b0886139ab83613625565b612edc565b6020880197506139c8886139c38361364c565b612edc565b6020880197506139e0886139db83613673565b612edc565b6020880197506139f8886139f38361369a565b612edc565b602088019750613a1088613a0b836136c1565b612edc565b60208801975060018301925050602081019050613706565b5b600115613f1457815484821015613a5957613a4c88613a4783613208565b612edc565b6020880197506001820191505b84821015613a8057613a7388613a6e8361322f565b612edc565b6020880197506001820191505b84821015613aa757613a9a88613a9583613256565b612edc565b6020880197506001820191505b84821015613ace57613ac188613abc8361327d565b612edc565b6020880197506001820191505b84821015613af557613ae888613ae3836132a4565b612edc565b6020880197506001820191505b84821015613b1c57613b0f88613b0a836132cb565b612edc565b6020880197506001820191505b84821015613b4357613b3688613b31836132f2565b612edc565b6020880197506001820191505b84821015613b6a57613b5d88613b5883613319565b612edc565b6020880197506001820191505b84821015613b9157613b8488613b7f83613340565b612edc565b6020880197506001820191505b84821015613bb857613bab88613ba683613367565b612edc565b6020880197506001820191505b84821015613bdf57613bd288613bcd8361338e565b612edc565b6020880197506001820191505b84821015613c0657613bf988613bf4836133b5565b612edc565b6020880197506001820191505b84821015613c2d57613c2088613c1b836133dc565b612edc565b6020880197506001820191505b84821015613c5457613c4788613c4283613403565b612edc565b6020880197506001820191505b84821015613c7b57613c6e88613c698361342a565b612edc565b6020880197506001820191505b84821015613ca257613c9588613c9083613451565b612edc565b6020880197506001820191505b84821015613cc957613cbc88613cb783613478565b612edc565b6020880197506001820191505b84821015613cf057613ce388613cde8361349f565b612edc565b6020880197506001820191505b84821015613d1757613d0a88613d05836134c6565b612edc565b6020880197506001820191505b84821015613d3e57613d3188613d2c836134ed565b612edc565b6020880197506001820191505b84821015613d6557613d5888613d5383613514565b612edc565b6020880197506001820191505b84821015613d8c57613d7f88613d7a8361353b565b612edc565b6020880197506001820191505b84821015613db357613da688613da183613562565b612edc565b6020880197506001820191505b84821015613dda57613dcd88613dc883613589565b612edc565b6020880197506001820191505b84821015613e0157613df488613def836135b0565b612edc565b6020880197506001820191505b84821015613e2857613e1b88613e16836135d7565b612edc565b6020880197506001820191505b84821015613e4f57613e4288613e3d836135fe565b612edc565b6020880197506001820191505b84821015613e7657613e6988613e6483613625565b612edc565b6020880197506001820191505b84821015613e9d57613e9088613e8b8361364c565b612edc565b6020880197506001820191505b84821015613ec457613eb788613eb283613673565b612edc565b6020880197506001820191505b84821015613eeb57613ede88613ed98361369a565b612edc565b6020880197506001820191505b84821015613f1257613f0588613f00836136c1565b612edc565b6020880197506001820191505b505b8694505050505092915050565b6000608082019050613f3660008301876131ae565b8181036020830152613f4881866136db565b90508181036040830152613f5c81856136db565b9050613f6b60608301846131ae565b95945050505050565b7f546f6f20736d616c6c2062657420616d6f756e74000000000000000000000000600082015250565b6000613faa601483613131565b9150613fb582613f74565b602082019050919050565b60006020820190508181036000830152613fd981613f9d565b9050919050565b7f596f7520616c7265616479206265740000000000000000000000000000000000600082015250565b6000614016600f83613131565b915061402182613fe0565b602082019050919050565b6000602082019050818103600083015261404581614009565b9050919050565b7f4e487b7100000000000000000000000000000000000000000000000000000000600052601160045260246000fd5b600061408682612bdd565b915061409183612bdd565b925082820261409f81612bdd565b915082820484148315176140b6576140b561404c565b5b5092915050565b6000815190506140cc81612be7565b92915050565b6000602082840312156140e8576140e7612bd3565b5b60006140f6848285016140bd565b91505092915050565b7f4e6f7420656e6f7567682066756e647320696e20636173696e6f000000000000600082015250565b6000614135601a83613131565b9150614140826140ff565b602082019050919050565b6000602082019050818103600083015261416481614128565b9050919050565b7f596f752068617665206e6f7420656e6f7567682066756e647300000000000000600082015250565b60006141a1601983613131565b91506141ac8261416b565b602082019050919050565b600060208201905081810360008301526141d081614194565b9050919050565b60006040820190506141ec6000830185612c72565b6141f960208301846131ae565b9392505050565b7f4e487b7100000000000000000000000000000000000000000000000000000000600052603260045260246000fd5b7f4e487b7100000000000000000000000000000000000000000000000000000000600052601260045260246000fd5b600061426982612d5e565b915061427483612d5e565b9250826142845761428361422f565b5b828206905092915050565b600061429a82612d5e565b915060ff82036142ad576142ac61404c565b5b600182019050919050565b60006142c382612d5e565b91506142ce83612d5e565b9250828201905060ff8111156142e7576142e661404c565b5b92915050565b60006142f882612d5e565b915061430383612d5e565b9250828203905060ff81111561431c5761431b61404c565b5b92915050565b600061432d82612d5e565b9150600082036143405761433f61404c565b5b600182039050919050565b7f596f752063616e20646f75626c6520646f776e206f6e6c79207768656e20322060008201527f636172647320696e20612068616e640000000000000000000000000000000000602082015250565b60006143a7602f83613131565b91506143b28261434b565b604082019050919050565b600060208201905081810360008301526143d68161439a565b9050919050565b7f4e6f7420656e6f7567682066756e647320746f20646f75626c6520646f776e00600082015250565b6000614413601f83613131565b915061441e826143dd565b602082019050919050565b6000602082019050818103600083015261444281614406565b9050919050565b7f436173696e6f20686173206e6f7420656e6f7567682066756e647320666f722060008201527f646f75626c6520646f776e20796f757220626574000000000000000000000000602082015250565b60006144a5603483613131565b91506144b082614449565b604082019050919050565b600060208201905081810360008301526144d481614498565b9050919050565b60006144e682612bdd565b91506144f183612bdd565b92508282019050808211156145095761450861404c565b5b92915050565b6000819050919050565b61452a61452582612bdd565b61450f565b82525050565b60008160601b9050919050565b600061454882614530565b9050919050565b600061455a8261453d565b9050919050565b61457261456d82612c60565b61454f565b82525050565b60008160f81b9050919050565b600061459082614578565b9050919050565b6145a86145a382612d5e565b614585565b82525050565b60006145ba8286614519565b6020820191506145ca8285614561565b6014820191506145da8284614597565b600182019150819050949350505050565b60006145f682612bdd565b915061460183612bdd565b9250826146115761461061422f565b5b82820690509291505056fea2646970667358221220ee7ea96f0918e3579ba051d098f26360809e3d3b88064d4ff2e8c85adaa35bed64736f6c63430008180033","opcodes":"PUSH1 0x80 PUSH1 0x40 MSTORE PUSH1 0x40 MLOAD DUP1 PUSH2 0x680 ADD PUSH1 0x40 MSTORE DUP1 PUSH1 0x0 PUSH1 0xFF AND DUP2 MSTORE PUSH1 0x20 ADD PUSH1 0x1 PUSH1 0xFF AND DUP2 MSTORE PUSH1 0x20 ADD PUSH1 0x2 PUSH1 0xFF AND DUP2 MSTORE PUSH1 0x20 ADD PUSH1 0x3 PUSH1 0xFF AND DUP2 MSTORE PUSH1 0x20 ADD PUSH1 0x4 PUSH1 0xFF AND DUP2 MSTORE PUSH1 0x20 ADD PUSH1 0x5 PUSH1 0xFF AND DUP2 MSTORE PUSH1 0x20 ADD PUSH1 0x6 PUSH1 0xFF AND DUP2 MSTORE PUSH1 0x20 ADD PUSH1 0x7 PUSH1 0xFF AND DUP2 MSTORE PUSH1 0x20 ADD PUSH1 0x8 PUSH1 0xFF AND DUP2 MSTORE PUSH1 0x20 ADD PUSH1 0x9 PUSH1 0xFF AND DUP2 MSTORE PUSH1 0x20 ADD PUSH1 0xA PUSH1 0xFF AND DUP2 MSTORE PUSH1 0x20 ADD PUSH1 0xB PUSH1 0xFF AND DUP2 MSTORE PUSH1 0x20 ADD PUSH1 0xC PUSH1 0xFF AND DUP2 MSTORE PUSH1 0x20 ADD PUSH1 0xD PUSH1 0xFF AND DUP2 MSTORE PUSH1 0x20 ADD PUSH1 0xE PUSH1 0xFF AND DUP2 MSTORE PUSH1 0x20 ADD PUSH1 0xF PUSH1 0xFF AND DUP2 MSTORE PUSH1 0x20 ADD PUSH1 0x10 PUSH1 0xFF AND DUP2 MSTORE PUSH1 0x20 ADD PUSH1 0x11 PUSH1 0xFF AND DUP2 MSTORE PUSH1 0x20 ADD PUSH1 0x12 PUSH1 0xFF AND DUP2 MSTORE PUSH1 0x20 ADD PUSH1 0x13 PUSH1 0xFF AND DUP2 MSTORE PUSH1 0x20 ADD PUSH1 0x14 PUSH1 0xFF AND DUP2 MSTORE PUSH1 0x20 ADD PUSH1 0x15 PUSH1 0xFF AND DUP2 MSTORE PUSH1 0x20 ADD PUSH1 0x16 PUSH1 0xFF AND DUP2 MSTORE PUSH1 0x20 ADD PUSH1 0x17 PUSH1 0xFF AND DUP2 MSTORE PUSH1 0x20 ADD PUSH1 0x18 PUSH1 0xFF AND DUP2 MSTORE PUSH1 0x20 ADD PUSH1 0x19 PUSH1 0xFF AND DUP2 MSTORE PUSH1 0x20 ADD PUSH1 0x1A PUSH1 0xFF AND DUP2 MSTORE PUSH1 0x20 ADD PUSH1 0x1B PUSH1 0xFF AND DUP2 MSTORE PUSH1 0x20 ADD PUSH1 0x1C PUSH1 0xFF AND DUP2 MSTORE PUSH1 0x20 ADD PUSH1 0x1D PUSH1 0xFF AND DUP2 MSTORE PUSH1 0x20 ADD PUSH1 0x1E PUSH1 0xFF AND DUP2 MSTORE PUSH1 0x20 ADD PUSH1 0x1F PUSH1 0xFF AND DUP2 MSTORE PUSH1 0x20 ADD PUSH1 0x20 PUSH1 0xFF AND DUP2 MSTORE PUSH1 0x20 ADD PUSH1 0x21 PUSH1 0xFF AND DUP2 MSTORE PUSH1 0x20 ADD PUSH1 0x22 PUSH1 0xFF AND DUP2 MSTORE PUSH1 0x20 ADD PUSH1 0x23 PUSH1 0xFF AND DUP2 MSTORE PUSH1 0x20 ADD PUSH1 0x24 PUSH1 0xFF AND DUP2 MSTORE PUSH1 0x20 ADD PUSH1 0x25 PUSH1 0xFF AND DUP2 MSTORE PUSH1 0x20 ADD PUSH1 0x26 PUSH1 0xFF AND DUP2 MSTORE PUSH1 0x20 ADD PUSH1 0x27 PUSH1 0xFF AND DUP2 MSTORE PUSH1 0x20 ADD PUSH1 0x28 PUSH1 0xFF AND DUP2 MSTORE PUSH1 0x20 ADD PUSH1 0x29 PUSH1 0xFF AND DUP2 MSTORE PUSH1 0x20 ADD PUSH1 0x2A PUSH1 0xFF AND DUP2 MSTORE PUSH1 0x20 ADD PUSH1 0x2B PUSH1 0xFF AND DUP2 MSTORE PUSH1 0x20 ADD PUSH1 0x2C PUSH1 0xFF AND DUP2 MSTORE PUSH1 0x20 ADD PUSH1 0x2D PUSH1 0xFF AND DUP2 MSTORE PUSH1 0x20 ADD PUSH1 0x2E PUSH1 0xFF AND DUP2 MSTORE PUSH1 0x20 ADD PUSH1 0x2F PUSH1 0xFF AND DUP2 MSTORE PUSH1 0x20 ADD PUSH1 0x30 PUSH1 0xFF AND DUP2 MSTORE PUSH1 0x20 ADD PUSH1 0x31 PUSH1 0xFF AND DUP2 MSTORE PUSH1 0x20 ADD PUSH1 0x32 PUSH1 0xFF AND DUP2 MSTORE PUSH1 0x20 ADD PUSH1 0x33 PUSH1 0xFF AND DUP2 MSTORE POP PUSH1 0x2 SWAP1 PUSH1 0x34 PUSH3 0x228 SWAP3 SWAP2 SWAP1 PUSH3 0x2E4 JUMP JUMPDEST POP CALLVALUE DUP1 ISZERO PUSH3 0x236 JUMPI PUSH1 0x0 DUP1 REVERT JUMPDEST POP PUSH1 0x40 MLOAD PUSH3 0x4AA2 CODESIZE SUB DUP1 PUSH3 0x4AA2 DUP4 CODECOPY DUP2 DUP2 ADD PUSH1 0x40 MSTORE DUP2 ADD SWAP1 PUSH3 0x25C SWAP2 SWAP1 PUSH3 0x40E JUMP JUMPDEST CALLER PUSH1 0x0 DUP1 PUSH2 0x100 EXP DUP2 SLOAD DUP2 PUSH20 0xFFFFFFFFFFFFFFFFFFFFFFFFFFFFFFFFFFFFFFFF MUL NOT AND SWAP1 DUP4 PUSH20 0xFFFFFFFFFFFFFFFFFFFFFFFFFFFFFFFFFFFFFFFF AND MUL OR SWAP1 SSTORE POP DUP1 PUSH1 0x1 PUSH1 0x0 PUSH2 0x100 EXP DUP2 SLOAD DUP2 PUSH20 0xFFFFFFFFFFFFFFFFFFFFFFFFFFFFFFFFFFFFFFFF MUL NOT AND SWAP1 DUP4 PUSH20 0xFFFFFFFFFFFFFFFFFFFFFFFFFFFFFFFFFFFFFFFF AND MUL OR SWAP1 SSTORE POP POP PUSH3 0x440 JUMP JUMPDEST DUP3 PUSH1 0x34 PUSH1 0x1F ADD PUSH1 0x20 SWAP1 DIV DUP2 ADD SWAP3 DUP3 ISZERO PUSH3 0x372 JUMPI SWAP2 PUSH1 0x20 MUL DUP3 ADD PUSH1 0x0 JUMPDEST DUP4 DUP3 GT ISZERO PUSH3 0x341 JUMPI DUP4 MLOAD DUP4 DUP3 PUSH2 0x100 EXP DUP2 SLOAD DUP2 PUSH1 0xFF MUL NOT AND SWAP1 DUP4 PUSH1 0xFF AND MUL OR SWAP1 SSTORE POP SWAP3 PUSH1 0x20 ADD SWAP3 PUSH1 0x1 ADD PUSH1 0x20 DUP2 PUSH1 0x0 ADD DIV SWAP3 DUP4 ADD SWAP3 PUSH1 0x1 SUB MUL PUSH3 0x301 JUMP JUMPDEST DUP1 ISZERO PUSH3 0x370 JUMPI DUP3 DUP2 PUSH2 0x100 EXP DUP2 SLOAD SWAP1 PUSH1 0xFF MUL NOT AND SWAP1 SSTORE PUSH1 0x1 ADD PUSH1 0x20 DUP2 PUSH1 0x0 ADD DIV SWAP3 DUP4 ADD SWAP3 PUSH1 0x1 SUB MUL PUSH3 0x341 JUMP JUMPDEST POP JUMPDEST POP SWAP1 POP PUSH3 0x381 SWAP2 SWAP1 PUSH3 0x385 JUMP JUMPDEST POP SWAP1 JUMP JUMPDEST JUMPDEST DUP1 DUP3 GT ISZERO PUSH3 0x3A0 JUMPI PUSH1 0x0 DUP2 PUSH1 0x0 SWAP1 SSTORE POP PUSH1 0x1 ADD PUSH3 0x386 JUMP JUMPDEST POP SWAP1 JUMP JUMPDEST PUSH1 0x0 DUP1 REVERT JUMPDEST PUSH1 0x0 PUSH20 0xFFFFFFFFFFFFFFFFFFFFFFFFFFFFFFFFFFFFFFFF DUP3 AND SWAP1 POP SWAP2 SWAP1 POP JUMP JUMPDEST PUSH1 0x0 PUSH3 0x3D6 DUP3 PUSH3 0x3A9 JUMP JUMPDEST SWAP1 POP SWAP2 SWAP1 POP JUMP JUMPDEST PUSH3 0x3E8 DUP2 PUSH3 0x3C9 JUMP JUMPDEST DUP2 EQ PUSH3 0x3F4 JUMPI PUSH1 0x0 DUP1 REVERT JUMPDEST POP JUMP JUMPDEST PUSH1 0x0 DUP2 MLOAD SWAP1 POP PUSH3 0x408 DUP2 PUSH3 0x3DD JUMP JUMPDEST SWAP3 SWAP2 POP POP JUMP JUMPDEST PUSH1 0x0 PUSH1 0x20 DUP3 DUP5 SUB SLT ISZERO PUSH3 0x427 JUMPI PUSH3 0x426 PUSH3 0x3A4 JUMP JUMPDEST JUMPDEST PUSH1 0x0 PUSH3 0x437 DUP5 DUP3 DUP6 ADD PUSH3 0x3F7 JUMP JUMPDEST SWAP2 POP POP SWAP3 SWAP2 POP POP JUMP JUMPDEST PUSH2 0x4652 DUP1 PUSH3 0x450 PUSH1 0x0 CODECOPY PUSH1 0x0 RETURN INVALID PUSH1 0x80 PUSH1 0x40 MSTORE CALLVALUE DUP1 ISZERO PUSH2 0x10 JUMPI PUSH1 0x0 DUP1 REVERT JUMPDEST POP PUSH1 0x4 CALLDATASIZE LT PUSH2 0xA9 JUMPI PUSH1 0x0 CALLDATALOAD PUSH1 0xE0 SHR DUP1 PUSH4 0x968D901B GT PUSH2 0x71 JUMPI DUP1 PUSH4 0x968D901B EQ PUSH2 0x12C JUMPI DUP1 PUSH4 0xA7A1ED72 EQ PUSH2 0x14A JUMPI DUP1 PUSH4 0xA7E1F6A2 EQ PUSH2 0x154 JUMPI DUP1 PUSH4 0xAC002353 EQ PUSH2 0x15E JUMPI DUP1 PUSH4 0xDA6B7356 EQ PUSH2 0x17C JUMPI DUP1 PUSH4 0xEDC03922 EQ PUSH2 0x19A JUMPI PUSH2 0xA9 JUMP JUMPDEST DUP1 PUSH4 0x2AE3594A EQ PUSH2 0xAE JUMPI DUP1 PUSH4 0x72C432CD EQ PUSH2 0xB8 JUMPI DUP1 PUSH4 0x7365870B EQ PUSH2 0xC2 JUMPI DUP1 PUSH4 0x8DA5CB5B EQ PUSH2 0xDE JUMPI DUP1 PUSH4 0x905348CA EQ PUSH2 0xFC JUMPI JUMPDEST PUSH1 0x0 DUP1 REVERT JUMPDEST PUSH2 0xB6 PUSH2 0x1B8 JUMP JUMPDEST STOP JUMPDEST PUSH2 0xC0 PUSH2 0x5E0 JUMP JUMPDEST STOP JUMPDEST PUSH2 0xDC PUSH1 0x4 DUP1 CALLDATASIZE SUB DUP2 ADD SWAP1 PUSH2 0xD7 SWAP2 SWAP1 PUSH2 0x2C13 JUMP JUMPDEST PUSH2 0x79E JUMP JUMPDEST STOP JUMPDEST PUSH2 0xE6 PUSH2 0x112E JUMP JUMPDEST PUSH1 0x40 MLOAD PUSH2 0xF3 SWAP2 SWAP1 PUSH2 0x2C81 JUMP JUMPDEST PUSH1 0x40 MLOAD DUP1 SWAP2 SUB SWAP1 RETURN JUMPDEST PUSH2 0x116 PUSH1 0x4 DUP1 CALLDATASIZE SUB DUP2 ADD SWAP1 PUSH2 0x111 SWAP2 SWAP1 PUSH2 0x2E2E JUMP JUMPDEST PUSH2 0x1152 JUMP JUMPDEST PUSH1 0x40 MLOAD PUSH2 0x123 SWAP2 SWAP1 PUSH2 0x2E86 JUMP JUMPDEST PUSH1 0x40 MLOAD DUP1 SWAP2 SUB SWAP1 RETURN JUMPDEST PUSH2 0x134 PUSH2 0x1247 JUMP JUMPDEST PUSH1 0x40 MLOAD PUSH2 0x141 SWAP2 SWAP1 PUSH2 0x310F JUMP JUMPDEST PUSH1 0x40 MLOAD DUP1 SWAP2 SUB SWAP1 RETURN JUMPDEST PUSH2 0x152 PUSH2 0x1471 JUMP JUMPDEST STOP JUMPDEST PUSH2 0x15C PUSH2 0x19E9 JUMP JUMPDEST STOP JUMPDEST PUSH2 0x166 PUSH2 0x2123 JUMP JUMPDEST PUSH1 0x40 MLOAD PUSH2 0x173 SWAP2 SWAP1 PUSH2 0x2E86 JUMP JUMPDEST PUSH1 0x40 MLOAD DUP1 SWAP2 SUB SWAP1 RETURN JUMPDEST PUSH2 0x184 PUSH2 0x21E9 JUMP JUMPDEST PUSH1 0x40 MLOAD PUSH2 0x191 SWAP2 SWAP1 PUSH2 0x2C81 JUMP JUMPDEST PUSH1 0x40 MLOAD DUP1 SWAP2 SUB SWAP1 RETURN JUMPDEST PUSH2 0x1A2 PUSH2 0x220F JUMP JUMPDEST PUSH1 0x40 MLOAD PUSH2 0x1AF SWAP2 SWAP1 PUSH2 0x2E86 JUMP JUMPDEST PUSH1 0x40 MLOAD DUP1 SWAP2 SUB SWAP1 RETURN JUMPDEST PUSH1 0x0 PUSH1 0x4 PUSH1 0x0 CALLER PUSH20 0xFFFFFFFFFFFFFFFFFFFFFFFFFFFFFFFFFFFFFFFF AND PUSH20 0xFFFFFFFFFFFFFFFFFFFFFFFFFFFFFFFFFFFFFFFF AND DUP2 MSTORE PUSH1 0x20 ADD SWAP1 DUP2 MSTORE PUSH1 0x20 ADD PUSH1 0x0 KECCAK256 PUSH1 0x40 MLOAD DUP1 PUSH1 0xE0 ADD PUSH1 0x40 MSTORE SWAP1 DUP2 PUSH1 0x0 DUP3 ADD SLOAD DUP2 MSTORE PUSH1 0x20 ADD PUSH1 0x1 DUP3 ADD SLOAD DUP2 MSTORE PUSH1 0x20 ADD PUSH1 0x2 DUP3 ADD DUP1 SLOAD DUP1 PUSH1 0x20 MUL PUSH1 0x20 ADD PUSH1 0x40 MLOAD SWAP1 DUP2 ADD PUSH1 0x40 MSTORE DUP1 SWAP3 SWAP2 SWAP1 DUP2 DUP2 MSTORE PUSH1 0x20 ADD DUP3 DUP1 SLOAD DUP1 ISZERO PUSH2 0x28D JUMPI PUSH1 0x20 MUL DUP3 ADD SWAP2 SWAP1 PUSH1 0x0 MSTORE PUSH1 0x20 PUSH1 0x0 KECCAK256 SWAP1 PUSH1 0x0 SWAP1 JUMPDEST DUP3 DUP3 SWAP1 SLOAD SWAP1 PUSH2 0x100 EXP SWAP1 DIV PUSH1 0xFF AND PUSH1 0xFF AND DUP2 MSTORE PUSH1 0x20 ADD SWAP1 PUSH1 0x1 ADD SWAP1 PUSH1 0x20 DUP3 PUSH1 0x0 ADD DIV SWAP3 DUP4 ADD SWAP3 PUSH1 0x1 SUB DUP3 MUL SWAP2 POP DUP1 DUP5 GT PUSH2 0x256 JUMPI SWAP1 POP JUMPDEST POP POP POP POP POP DUP2 MSTORE PUSH1 0x20 ADD PUSH1 0x3 DUP3 ADD DUP1 SLOAD DUP1 PUSH1 0x20 MUL PUSH1 0x20 ADD PUSH1 0x40 MLOAD SWAP1 DUP2 ADD PUSH1 0x40 MSTORE DUP1 SWAP3 SWAP2 SWAP1 DUP2 DUP2 MSTORE PUSH1 0x20 ADD DUP3 DUP1 SLOAD DUP1 ISZERO PUSH2 0x30B JUMPI PUSH1 0x20 MUL DUP3 ADD SWAP2 SWAP1 PUSH1 0x0 MSTORE PUSH1 0x20 PUSH1 0x0 KECCAK256 SWAP1 PUSH1 0x0 SWAP1 JUMPDEST DUP3 DUP3 SWAP1 SLOAD SWAP1 PUSH2 0x100 EXP SWAP1 DIV PUSH1 0xFF AND PUSH1 0xFF AND DUP2 MSTORE PUSH1 0x20 ADD SWAP1 PUSH1 0x1 ADD SWAP1 PUSH1 0x20 DUP3 PUSH1 0x0 ADD DIV SWAP3 DUP4 ADD SWAP3 PUSH1 0x1 SUB DUP3 MUL SWAP2 POP DUP1 DUP5 GT PUSH2 0x2D4 JUMPI SWAP1 POP JUMPDEST POP POP POP POP POP DUP2 MSTORE PUSH1 0x20 ADD PUSH1 0x4 DUP3 ADD PUSH1 0x34 DUP1 PUSH1 0x20 MUL PUSH1 0x40 MLOAD SWAP1 DUP2 ADD PUSH1 0x40 MSTORE DUP1 SWAP3 SWAP2 SWAP1 DUP3 PUSH1 0x34 DUP1 ISZERO PUSH2 0x376 JUMPI PUSH1 0x20 MUL DUP3 ADD SWAP2 PUSH1 0x0 SWAP1 JUMPDEST DUP3 DUP3 SWAP1 SLOAD SWAP1 PUSH2 0x100 EXP SWAP1 DIV PUSH1 0xFF AND PUSH1 0xFF AND DUP2 MSTORE PUSH1 0x20 ADD SWAP1 PUSH1 0x1 ADD SWAP1 PUSH1 0x20 DUP3 PUSH1 0x0 ADD DIV SWAP3 DUP4 ADD SWAP3 PUSH1 0x1 SUB DUP3 MUL SWAP2 POP DUP1 DUP5 GT PUSH2 0x33F JUMPI SWAP1 POP JUMPDEST POP POP POP POP POP DUP2 MSTORE PUSH1 0x20 ADD PUSH1 0x6 DUP3 ADD PUSH1 0x0 SWAP1 SLOAD SWAP1 PUSH2 0x100 EXP SWAP1 DIV PUSH1 0xFF AND PUSH1 0xFF AND PUSH1 0xFF AND DUP2 MSTORE PUSH1 0x20 ADD PUSH1 0x6 DUP3 ADD PUSH1 0x1 SWAP1 SLOAD SWAP1 PUSH2 0x100 EXP SWAP1 DIV PUSH1 0xFF AND PUSH1 0x5 DUP2 GT ISZERO PUSH2 0x3C1 JUMPI PUSH2 0x3C0 PUSH2 0x2FF2 JUMP JUMPDEST JUMPDEST PUSH1 0x5 DUP2 GT ISZERO PUSH2 0x3D3 JUMPI PUSH2 0x3D2 PUSH2 0x2FF2 JUMP JUMPDEST JUMPDEST DUP2 MSTORE POP POP SWAP1 POP PUSH1 0x1 PUSH1 0x5 DUP2 GT ISZERO PUSH2 0x3ED JUMPI PUSH2 0x3EC PUSH2 0x2FF2 JUMP JUMPDEST JUMPDEST DUP2 PUSH1 0xC0 ADD MLOAD PUSH1 0x5 DUP2 GT ISZERO PUSH2 0x404 JUMPI PUSH2 0x403 PUSH2 0x2FF2 JUMP JUMPDEST JUMPDEST EQ PUSH2 0x444 JUMPI PUSH1 0x40 MLOAD PUSH32 0x8C379A000000000000000000000000000000000000000000000000000000000 DUP2 MSTORE PUSH1 0x4 ADD PUSH2 0x43B SWAP1 PUSH2 0x318E JUMP JUMPDEST PUSH1 0x40 MLOAD DUP1 SWAP2 SUB SWAP1 REVERT JUMPDEST PUSH1 0x4 PUSH1 0x0 CALLER PUSH20 0xFFFFFFFFFFFFFFFFFFFFFFFFFFFFFFFFFFFFFFFF AND PUSH20 0xFFFFFFFFFFFFFFFFFFFFFFFFFFFFFFFFFFFFFFFF AND DUP2 MSTORE PUSH1 0x20 ADD SWAP1 DUP2 MSTORE PUSH1 0x20 ADD PUSH1 0x0 KECCAK256 PUSH1 0x3 ADD PUSH2 0x48E PUSH2 0x22D5 JUMP JUMPDEST SWAP1 DUP1 PUSH1 0x1 DUP2 SLOAD ADD DUP1 DUP3 SSTORE DUP1 SWAP2 POP POP PUSH1 0x1 SWAP1 SUB SWAP1 PUSH1 0x0 MSTORE PUSH1 0x20 PUSH1 0x0 KECCAK256 SWAP1 PUSH1 0x20 SWAP2 DUP3 DUP3 DIV ADD SWAP2 SWAP1 MOD SWAP1 SWAP2 SWAP1 SWAP2 SWAP1 SWAP2 PUSH2 0x100 EXP DUP2 SLOAD DUP2 PUSH1 0xFF MUL NOT AND SWAP1 DUP4 PUSH1 0xFF AND MUL OR SWAP1 SSTORE POP PUSH1 0x0 PUSH2 0x4DA PUSH2 0x2123 JUMP JUMPDEST PUSH1 0xFF AND SWAP1 POP PUSH1 0x15 DUP2 SUB PUSH2 0x55F JUMPI PUSH1 0x2 PUSH1 0x4 PUSH1 0x0 CALLER PUSH20 0xFFFFFFFFFFFFFFFFFFFFFFFFFFFFFFFFFFFFFFFF AND PUSH20 0xFFFFFFFFFFFFFFFFFFFFFFFFFFFFFFFFFFFFFFFF AND DUP2 MSTORE PUSH1 0x20 ADD SWAP1 DUP2 MSTORE PUSH1 0x20 ADD PUSH1 0x0 KECCAK256 PUSH1 0x6 ADD PUSH1 0x1 PUSH2 0x100 EXP DUP2 SLOAD DUP2 PUSH1 0xFF MUL NOT AND SWAP1 DUP4 PUSH1 0x5 DUP2 GT ISZERO PUSH2 0x54D JUMPI PUSH2 0x54C PUSH2 0x2FF2 JUMP JUMPDEST JUMPDEST MUL OR SWAP1 SSTORE POP PUSH2 0x55A PUSH2 0x2476 JUMP JUMPDEST PUSH2 0x5D4 JUMP JUMPDEST PUSH1 0x15 DUP2 GT ISZERO PUSH2 0x5D3 JUMPI PUSH1 0x4 DUP1 PUSH1 0x0 CALLER PUSH20 0xFFFFFFFFFFFFFFFFFFFFFFFFFFFFFFFFFFFFFFFF AND PUSH20 0xFFFFFFFFFFFFFFFFFFFFFFFFFFFFFFFFFFFFFFFF AND DUP2 MSTORE PUSH1 0x20 ADD SWAP1 DUP2 MSTORE PUSH1 0x20 ADD PUSH1 0x0 KECCAK256 PUSH1 0x6 ADD PUSH1 0x1 PUSH2 0x100 EXP DUP2 SLOAD DUP2 PUSH1 0xFF MUL NOT AND SWAP1 DUP4 PUSH1 0x5 DUP2 GT ISZERO PUSH2 0x5CD JUMPI PUSH2 0x5CC PUSH2 0x2FF2 JUMP JUMPDEST JUMPDEST MUL OR SWAP1 SSTORE POP JUMPDEST JUMPDEST PUSH2 0x5DC PUSH2 0x5E0 JUMP JUMPDEST POP POP JUMP JUMPDEST PUSH1 0x4 PUSH1 0x0 CALLER PUSH20 0xFFFFFFFFFFFFFFFFFFFFFFFFFFFFFFFFFFFFFFFF AND PUSH20 0xFFFFFFFFFFFFFFFFFFFFFFFFFFFFFFFFFFFFFFFF AND DUP2 MSTORE PUSH1 0x20 ADD SWAP1 DUP2 MSTORE PUSH1 0x20 ADD PUSH1 0x0 KECCAK256 PUSH1 0x6 ADD PUSH1 0x1 SWAP1 SLOAD SWAP1 PUSH2 0x100 EXP SWAP1 DIV PUSH1 0xFF AND PUSH1 0x5 DUP2 GT ISZERO PUSH2 0x642 JUMPI PUSH2 0x641 PUSH2 0x2FF2 JUMP JUMPDEST JUMPDEST CALLER PUSH20 0xFFFFFFFFFFFFFFFFFFFFFFFFFFFFFFFFFFFFFFFF AND PUSH32 0x6563A737AFA8D40E211A7BA59A725092F282D6357188EFDF00E641B4D97B816C PUSH1 0x4 PUSH1 0x0 CALLER PUSH20 0xFFFFFFFFFFFFFFFFFFFFFFFFFFFFFFFFFFFFFFFF AND PUSH20 0xFFFFFFFFFFFFFFFFFFFFFFFFFFFFFFFFFFFFFFFF AND DUP2 MSTORE PUSH1 0x20 ADD SWAP1 DUP2 MSTORE PUSH1 0x20 ADD PUSH1 0x0 KECCAK256 PUSH1 0x1 ADD SLOAD PUSH1 0x4 PUSH1 0x0 CALLER PUSH20 0xFFFFFFFFFFFFFFFFFFFFFFFFFFFFFFFFFFFFFFFF AND PUSH20 0xFFFFFFFFFFFFFFFFFFFFFFFFFFFFFFFFFFFFFFFF AND DUP2 MSTORE PUSH1 0x20 ADD SWAP1 DUP2 MSTORE PUSH1 0x20 ADD PUSH1 0x0 KECCAK256 PUSH1 0x2 ADD PUSH1 0x4 PUSH1 0x0 CALLER PUSH20 0xFFFFFFFFFFFFFFFFFFFFFFFFFFFFFFFFFFFFFFFF AND PUSH20 0xFFFFFFFFFFFFFFFFFFFFFFFFFFFFFFFFFFFFFFFF AND DUP2 MSTORE PUSH1 0x20 ADD SWAP1 DUP2 MSTORE PUSH1 0x20 ADD PUSH1 0x0 KECCAK256 PUSH1 0x3 ADD PUSH1 0x4 PUSH1 0x0 CALLER PUSH20 0xFFFFFFFFFFFFFFFFFFFFFFFFFFFFFFFFFFFFFFFF AND PUSH20 0xFFFFFFFFFFFFFFFFFFFFFFFFFFFFFFFFFFFFFFFF AND DUP2 MSTORE PUSH1 0x20 ADD SWAP1 DUP2 MSTORE PUSH1 0x20 ADD PUSH1 0x0 KECCAK256 PUSH1 0x0 ADD SLOAD PUSH1 0x40 MLOAD PUSH2 0x794 SWAP5 SWAP4 SWAP3 SWAP2 SWAP1 PUSH2 0x3F21 JUMP JUMPDEST PUSH1 0x40 MLOAD DUP1 SWAP2 SUB SWAP1 LOG3 JUMP JUMPDEST PUSH1 0x0 PUSH1 0x4 PUSH1 0x0 CALLER PUSH20 0xFFFFFFFFFFFFFFFFFFFFFFFFFFFFFFFFFFFFFFFF AND PUSH20 0xFFFFFFFFFFFFFFFFFFFFFFFFFFFFFFFFFFFFFFFF AND DUP2 MSTORE PUSH1 0x20 ADD SWAP1 DUP2 MSTORE PUSH1 0x20 ADD PUSH1 0x0 KECCAK256 PUSH1 0x40 MLOAD DUP1 PUSH1 0xE0 ADD PUSH1 0x40 MSTORE SWAP1 DUP2 PUSH1 0x0 DUP3 ADD SLOAD DUP2 MSTORE PUSH1 0x20 ADD PUSH1 0x1 DUP3 ADD SLOAD DUP2 MSTORE PUSH1 0x20 ADD PUSH1 0x2 DUP3 ADD DUP1 SLOAD DUP1 PUSH1 0x20 MUL PUSH1 0x20 ADD PUSH1 0x40 MLOAD SWAP1 DUP2 ADD PUSH1 0x40 MSTORE DUP1 SWAP3 SWAP2 SWAP1 DUP2 DUP2 MSTORE PUSH1 0x20 ADD DUP3 DUP1 SLOAD DUP1 ISZERO PUSH2 0x873 JUMPI PUSH1 0x20 MUL DUP3 ADD SWAP2 SWAP1 PUSH1 0x0 MSTORE PUSH1 0x20 PUSH1 0x0 KECCAK256 SWAP1 PUSH1 0x0 SWAP1 JUMPDEST DUP3 DUP3 SWAP1 SLOAD SWAP1 PUSH2 0x100 EXP SWAP1 DIV PUSH1 0xFF AND PUSH1 0xFF AND DUP2 MSTORE PUSH1 0x20 ADD SWAP1 PUSH1 0x1 ADD SWAP1 PUSH1 0x20 DUP3 PUSH1 0x0 ADD DIV SWAP3 DUP4 ADD SWAP3 PUSH1 0x1 SUB DUP3 MUL SWAP2 POP DUP1 DUP5 GT PUSH2 0x83C JUMPI SWAP1 POP JUMPDEST POP POP POP POP POP DUP2 MSTORE PUSH1 0x20 ADD PUSH1 0x3 DUP3 ADD DUP1 SLOAD DUP1 PUSH1 0x20 MUL PUSH1 0x20 ADD PUSH1 0x40 MLOAD SWAP1 DUP2 ADD PUSH1 0x40 MSTORE DUP1 SWAP3 SWAP2 SWAP1 DUP2 DUP2 MSTORE PUSH1 0x20 ADD DUP3 DUP1 SLOAD DUP1 ISZERO PUSH2 0x8F1 JUMPI PUSH1 0x20 MUL DUP3 ADD SWAP2 SWAP1 PUSH1 0x0 MSTORE PUSH1 0x20 PUSH1 0x0 KECCAK256 SWAP1 PUSH1 0x0 SWAP1 JUMPDEST DUP3 DUP3 SWAP1 SLOAD SWAP1 PUSH2 0x100 EXP SWAP1 DIV PUSH1 0xFF AND PUSH1 0xFF AND DUP2 MSTORE PUSH1 0x20 ADD SWAP1 PUSH1 0x1 ADD SWAP1 PUSH1 0x20 DUP3 PUSH1 0x0 ADD DIV SWAP3 DUP4 ADD SWAP3 PUSH1 0x1 SUB DUP3 MUL SWAP2 POP DUP1 DUP5 GT PUSH2 0x8BA JUMPI SWAP1 POP JUMPDEST POP POP POP POP POP DUP2 MSTORE PUSH1 0x20 ADD PUSH1 0x4 DUP3 ADD PUSH1 0x34 DUP1 PUSH1 0x20 MUL PUSH1 0x40 MLOAD SWAP1 DUP2 ADD PUSH1 0x40 MSTORE DUP1 SWAP3 SWAP2 SWAP1 DUP3 PUSH1 0x34 DUP1 ISZERO PUSH2 0x95C JUMPI PUSH1 0x20 MUL DUP3 ADD SWAP2 PUSH1 0x0 SWAP1 JUMPDEST DUP3 DUP3 SWAP1 SLOAD SWAP1 PUSH2 0x100 EXP SWAP1 DIV PUSH1 0xFF AND PUSH1 0xFF AND DUP2 MSTORE PUSH1 0x20 ADD SWAP1 PUSH1 0x1 ADD SWAP1 PUSH1 0x20 DUP3 PUSH1 0x0 ADD DIV SWAP3 DUP4 ADD SWAP3 PUSH1 0x1 SUB DUP3 MUL SWAP2 POP DUP1 DUP5 GT PUSH2 0x925 JUMPI SWAP1 POP JUMPDEST POP POP POP POP POP DUP2 MSTORE PUSH1 0x20 ADD PUSH1 0x6 DUP3 ADD PUSH1 0x0 SWAP1 SLOAD SWAP1 PUSH2 0x100 EXP SWAP1 DIV PUSH1 0xFF AND PUSH1 0xFF AND PUSH1 0xFF AND DUP2 MSTORE PUSH1 0x20 ADD PUSH1 0x6 DUP3 ADD PUSH1 0x1 SWAP1 SLOAD SWAP1 PUSH2 0x100 EXP SWAP1 DIV PUSH1 0xFF AND PUSH1 0x5 DUP2 GT ISZERO PUSH2 0x9A7 JUMPI PUSH2 0x9A6 PUSH2 0x2FF2 JUMP JUMPDEST JUMPDEST PUSH1 0x5 DUP2 GT ISZERO PUSH2 0x9B9 JUMPI PUSH2 0x9B8 PUSH2 0x2FF2 JUMP JUMPDEST JUMPDEST DUP2 MSTORE POP POP SWAP1 POP PUSH1 0x0 DUP3 GT PUSH2 0xA02 JUMPI PUSH1 0x40 MLOAD PUSH32 0x8C379A000000000000000000000000000000000000000000000000000000000 DUP2 MSTORE PUSH1 0x4 ADD PUSH2 0x9F9 SWAP1 PUSH2 0x3FC0 JUMP JUMPDEST PUSH1 0x40 MLOAD DUP1 SWAP2 SUB SWAP1 REVERT JUMPDEST PUSH1 0x1 PUSH1 0x5 DUP2 GT ISZERO PUSH2 0xA16 JUMPI PUSH2 0xA15 PUSH2 0x2FF2 JUMP JUMPDEST JUMPDEST DUP2 PUSH1 0xC0 ADD MLOAD PUSH1 0x5 DUP2 GT ISZERO PUSH2 0xA2D JUMPI PUSH2 0xA2C PUSH2 0x2FF2 JUMP JUMPDEST JUMPDEST SUB PUSH2 0xA6D JUMPI PUSH1 0x40 MLOAD PUSH32 0x8C379A000000000000000000000000000000000000000000000000000000000 DUP2 MSTORE PUSH1 0x4 ADD PUSH2 0xA64 SWAP1 PUSH2 0x402C JUMP JUMPDEST PUSH1 0x40 MLOAD DUP1 SWAP2 SUB SWAP1 REVERT JUMPDEST PUSH1 0x2 DUP3 PUSH2 0xA7A SWAP2 SWAP1 PUSH2 0x407B JUMP JUMPDEST PUSH1 0x1 PUSH1 0x0 SWAP1 SLOAD SWAP1 PUSH2 0x100 EXP SWAP1 DIV PUSH20 0xFFFFFFFFFFFFFFFFFFFFFFFFFFFFFFFFFFFFFFFF AND PUSH20 0xFFFFFFFFFFFFFFFFFFFFFFFFFFFFFFFFFFFFFFFF AND PUSH4 0x1A0843C0 PUSH1 0x40 MLOAD DUP2 PUSH4 0xFFFFFFFF AND PUSH1 0xE0 SHL DUP2 MSTORE PUSH1 0x4 ADD PUSH1 0x20 PUSH1 0x40 MLOAD DUP1 DUP4 SUB DUP2 PUSH1 0x0 DUP8 GAS CALL ISZERO DUP1 ISZERO PUSH2 0xAE9 JUMPI RETURNDATASIZE PUSH1 0x0 DUP1 RETURNDATACOPY RETURNDATASIZE PUSH1 0x0 REVERT JUMPDEST POP POP POP POP PUSH1 0x40 MLOAD RETURNDATASIZE PUSH1 0x1F NOT PUSH1 0x1F DUP3 ADD AND DUP3 ADD DUP1 PUSH1 0x40 MSTORE POP DUP2 ADD SWAP1 PUSH2 0xB0D SWAP2 SWAP1 PUSH2 0x40D2 JUMP JUMPDEST GT PUSH2 0xB4D JUMPI PUSH1 0x40 MLOAD PUSH32 0x8C379A000000000000000000000000000000000000000000000000000000000 DUP2 MSTORE PUSH1 0x4 ADD PUSH2 0xB44 SWAP1 PUSH2 0x414B JUMP JUMPDEST PUSH1 0x40 MLOAD DUP1 SWAP2 SUB SWAP1 REVERT JUMPDEST DUP2 PUSH1 0x1 PUSH1 0x0 SWAP1 SLOAD SWAP1 PUSH2 0x100 EXP SWAP1 DIV PUSH20 0xFFFFFFFFFFFFFFFFFFFFFFFFFFFFFFFFFFFFFFFF AND PUSH20 0xFFFFFFFFFFFFFFFFFFFFFFFFFFFFFFFFFFFFFFFF AND PUSH4 0x9B96EECE CALLER PUSH1 0x40 MLOAD DUP3 PUSH4 0xFFFFFFFF AND PUSH1 0xE0 SHL DUP2 MSTORE PUSH1 0x4 ADD PUSH2 0xBA9 SWAP2 SWAP1 PUSH2 0x2C81 JUMP JUMPDEST PUSH1 0x20 PUSH1 0x40 MLOAD DUP1 DUP4 SUB DUP2 DUP7 GAS STATICCALL ISZERO DUP1 ISZERO PUSH2 0xBC6 JUMPI RETURNDATASIZE PUSH1 0x0 DUP1 RETURNDATACOPY RETURNDATASIZE PUSH1 0x0 REVERT JUMPDEST POP POP POP POP PUSH1 0x40 MLOAD RETURNDATASIZE PUSH1 0x1F NOT PUSH1 0x1F DUP3 ADD AND DUP3 ADD DUP1 PUSH1 0x40 MSTORE POP DUP2 ADD SWAP1 PUSH2 0xBEA SWAP2 SWAP1 PUSH2 0x40D2 JUMP JUMPDEST LT ISZERO PUSH2 0xC2B JUMPI PUSH1 0x40 MLOAD PUSH32 0x8C379A000000000000000000000000000000000000000000000000000000000 DUP2 MSTORE PUSH1 0x4 ADD PUSH2 0xC22 SWAP1 PUSH2 0x41B7 JUMP JUMPDEST PUSH1 0x40 MLOAD DUP1 SWAP2 SUB SWAP1 REVERT JUMPDEST PUSH1 0x1 PUSH1 0x0 SWAP1 SLOAD SWAP1 PUSH2 0x100 EXP SWAP1 DIV PUSH20 0xFFFFFFFFFFFFFFFFFFFFFFFFFFFFFFFFFFFFFFFF AND PUSH20 0xFFFFFFFFFFFFFFFFFFFFFFFFFFFFFFFFFFFFFFFF AND PUSH4 0x63FB576F CALLER DUP5 PUSH1 0x40 MLOAD DUP4 PUSH4 0xFFFFFFFF AND PUSH1 0xE0 SHL DUP2 MSTORE PUSH1 0x4 ADD PUSH2 0xC88 SWAP3 SWAP2 SWAP1 PUSH2 0x41D7 JUMP JUMPDEST PUSH1 0x0 PUSH1 0x40 MLOAD DUP1 DUP4 SUB DUP2 PUSH1 0x0 DUP8 DUP1 EXTCODESIZE ISZERO DUP1 ISZERO PUSH2 0xCA2 JUMPI PUSH1 0x0 DUP1 REVERT JUMPDEST POP GAS CALL ISZERO DUP1 ISZERO PUSH2 0xCB6 JUMPI RETURNDATASIZE PUSH1 0x0 DUP1 RETURNDATACOPY RETURNDATASIZE PUSH1 0x0 REVERT JUMPDEST POP POP POP POP PUSH1 0x40 MLOAD DUP1 PUSH1 0xE0 ADD PUSH1 0x40 MSTORE DUP1 TIMESTAMP DUP2 MSTORE PUSH1 0x20 ADD DUP4 DUP2 MSTORE PUSH1 0x20 ADD PUSH1 0x0 PUSH8 0xFFFFFFFFFFFFFFFF DUP2 GT ISZERO PUSH2 0xCEC JUMPI PUSH2 0xCEB PUSH2 0x2CB2 JUMP JUMPDEST JUMPDEST PUSH1 0x40 MLOAD SWAP1 DUP1 DUP3 MSTORE DUP1 PUSH1 0x20 MUL PUSH1 0x20 ADD DUP3 ADD PUSH1 0x40 MSTORE DUP1 ISZERO PUSH2 0xD1A JUMPI DUP2 PUSH1 0x20 ADD PUSH1 0x20 DUP3 MUL DUP1 CALLDATASIZE DUP4 CALLDATACOPY DUP1 DUP3 ADD SWAP2 POP POP SWAP1 POP JUMPDEST POP DUP2 MSTORE PUSH1 0x20 ADD PUSH1 0x0 PUSH8 0xFFFFFFFFFFFFFFFF DUP2 GT ISZERO PUSH2 0xD3B JUMPI PUSH2 0xD3A PUSH2 0x2CB2 JUMP JUMPDEST JUMPDEST PUSH1 0x40 MLOAD SWAP1 DUP1 DUP3 MSTORE DUP1 PUSH1 0x20 MUL PUSH1 0x20 ADD DUP3 ADD PUSH1 0x40 MSTORE DUP1 ISZERO PUSH2 0xD69 JUMPI DUP2 PUSH1 0x20 ADD PUSH1 0x20 DUP3 MUL DUP1 CALLDATASIZE DUP4 CALLDATACOPY DUP1 DUP3 ADD SWAP2 POP POP SWAP1 POP JUMPDEST POP DUP2 MSTORE PUSH1 0x20 ADD PUSH1 0x2 PUSH1 0x34 DUP1 PUSH1 0x20 MUL PUSH1 0x40 MLOAD SWAP1 DUP2 ADD PUSH1 0x40 MSTORE DUP1 SWAP3 SWAP2 SWAP1 DUP3 PUSH1 0x34 DUP1 ISZERO PUSH2 0xDCE JUMPI PUSH1 0x20 MUL DUP3 ADD SWAP2 PUSH1 0x0 SWAP1 JUMPDEST DUP3 DUP3 SWAP1 SLOAD SWAP1 PUSH2 0x100 EXP SWAP1 DIV PUSH1 0xFF AND PUSH1 0xFF AND DUP2 MSTORE PUSH1 0x20 ADD SWAP1 PUSH1 0x1 ADD SWAP1 PUSH1 0x20 DUP3 PUSH1 0x0 ADD DIV SWAP3 DUP4 ADD SWAP3 PUSH1 0x1 SUB DUP3 MUL SWAP2 POP DUP1 DUP5 GT PUSH2 0xD97 JUMPI SWAP1 POP JUMPDEST POP POP POP POP POP DUP2 MSTORE PUSH1 0x20 ADD PUSH1 0x0 PUSH1 0xFF AND DUP2 MSTORE PUSH1 0x20 ADD PUSH1 0x1 PUSH1 0x5 DUP2 GT ISZERO PUSH2 0xDF6 JUMPI PUSH2 0xDF5 PUSH2 0x2FF2 JUMP JUMPDEST JUMPDEST DUP2 MSTORE POP PUSH1 0x4 PUSH1 0x0 CALLER PUSH20 0xFFFFFFFFFFFFFFFFFFFFFFFFFFFFFFFFFFFFFFFF AND PUSH20 0xFFFFFFFFFFFFFFFFFFFFFFFFFFFFFFFFFFFFFFFF AND DUP2 MSTORE PUSH1 0x20 ADD SWAP1 DUP2 MSTORE PUSH1 0x20 ADD PUSH1 0x0 KECCAK256 PUSH1 0x0 DUP3 ADD MLOAD DUP2 PUSH1 0x0 ADD SSTORE PUSH1 0x20 DUP3 ADD MLOAD DUP2 PUSH1 0x1 ADD SSTORE PUSH1 0x40 DUP3 ADD MLOAD DUP2 PUSH1 0x2 ADD SWAP1 DUP1 MLOAD SWAP1 PUSH1 0x20 ADD SWAP1 PUSH2 0xE68 SWAP3 SWAP2 SWAP1 PUSH2 0x29F0 JUMP JUMPDEST POP PUSH1 0x60 DUP3 ADD MLOAD DUP2 PUSH1 0x3 ADD SWAP1 DUP1 MLOAD SWAP1 PUSH1 0x20 ADD SWAP1 PUSH2 0xE85 SWAP3 SWAP2 SWAP1 PUSH2 0x29F0 JUMP JUMPDEST POP PUSH1 0x80 DUP3 ADD MLOAD DUP2 PUSH1 0x4 ADD SWAP1 PUSH1 0x34 PUSH2 0xE9D SWAP3 SWAP2 SWAP1 PUSH2 0x2A97 JUMP JUMPDEST POP PUSH1 0xA0 DUP3 ADD MLOAD DUP2 PUSH1 0x6 ADD PUSH1 0x0 PUSH2 0x100 EXP DUP2 SLOAD DUP2 PUSH1 0xFF MUL NOT AND SWAP1 DUP4 PUSH1 0xFF AND MUL OR SWAP1 SSTORE POP PUSH1 0xC0 DUP3 ADD MLOAD DUP2 PUSH1 0x6 ADD PUSH1 0x1 PUSH2 0x100 EXP DUP2 SLOAD DUP2 PUSH1 0xFF MUL NOT AND SWAP1 DUP4 PUSH1 0x5 DUP2 GT ISZERO PUSH2 0xEEA JUMPI PUSH2 0xEE9 PUSH2 0x2FF2 JUMP JUMPDEST JUMPDEST MUL OR SWAP1 SSTORE POP SWAP1 POP POP PUSH1 0x4 PUSH1 0x0 CALLER PUSH20 0xFFFFFFFFFFFFFFFFFFFFFFFFFFFFFFFFFFFFFFFF AND PUSH20 0xFFFFFFFFFFFFFFFFFFFFFFFFFFFFFFFFFFFFFFFF AND DUP2 MSTORE PUSH1 0x20 ADD SWAP1 DUP2 MSTORE PUSH1 0x20 ADD PUSH1 0x0 KECCAK256 PUSH1 0x2 ADD PUSH2 0xF3C PUSH2 0x22D5 JUMP JUMPDEST SWAP1 DUP1 PUSH1 0x1 DUP2 SLOAD ADD DUP1 DUP3 SSTORE DUP1 SWAP2 POP POP PUSH1 0x1 SWAP1 SUB SWAP1 PUSH1 0x0 MSTORE PUSH1 0x20 PUSH1 0x0 KECCAK256 SWAP1 PUSH1 0x20 SWAP2 DUP3 DUP3 DIV ADD SWAP2 SWAP1 MOD SWAP1 SWAP2 SWAP1 SWAP2 SWAP1 SWAP2 PUSH2 0x100 EXP DUP2 SLOAD DUP2 PUSH1 0xFF MUL NOT AND SWAP1 DUP4 PUSH1 0xFF AND MUL OR SWAP1 SSTORE POP PUSH1 0x4 PUSH1 0x0 CALLER PUSH20 0xFFFFFFFFFFFFFFFFFFFFFFFFFFFFFFFFFFFFFFFF AND PUSH20 0xFFFFFFFFFFFFFFFFFFFFFFFFFFFFFFFFFFFFFFFF AND DUP2 MSTORE PUSH1 0x20 ADD SWAP1 DUP2 MSTORE PUSH1 0x20 ADD PUSH1 0x0 KECCAK256 PUSH1 0x3 ADD PUSH2 0xFC8 PUSH2 0x22D5 JUMP JUMPDEST SWAP1 DUP1 PUSH1 0x1 DUP2 SLOAD ADD DUP1 DUP3 SSTORE DUP1 SWAP2 POP POP PUSH1 0x1 SWAP1 SUB SWAP1 PUSH1 0x0 MSTORE PUSH1 0x20 PUSH1 0x0 KECCAK256 SWAP1 PUSH1 0x20 SWAP2 DUP3 DUP3 DIV ADD SWAP2 SWAP1 MOD SWAP1 SWAP2 SWAP1 SWAP2 SWAP1 SWAP2 PUSH2 0x100 EXP DUP2 SLOAD DUP2 PUSH1 0xFF MUL NOT AND SWAP1 DUP4 PUSH1 0xFF AND MUL OR SWAP1 SSTORE POP PUSH1 0x4 PUSH1 0x0 CALLER PUSH20 0xFFFFFFFFFFFFFFFFFFFFFFFFFFFFFFFFFFFFFFFF AND PUSH20 0xFFFFFFFFFFFFFFFFFFFFFFFFFFFFFFFFFFFFFFFF AND DUP2 MSTORE PUSH1 0x20 ADD SWAP1 DUP2 MSTORE PUSH1 0x20 ADD PUSH1 0x0 KECCAK256 PUSH1 0x3 ADD PUSH2 0x1054 PUSH2 0x22D5 JUMP JUMPDEST SWAP1 DUP1 PUSH1 0x1 DUP2 SLOAD ADD DUP1 DUP3 SSTORE DUP1 SWAP2 POP POP PUSH1 0x1 SWAP1 SUB SWAP1 PUSH1 0x0 MSTORE PUSH1 0x20 PUSH1 0x0 KECCAK256 SWAP1 PUSH1 0x20 SWAP2 DUP3 DUP3 DIV ADD SWAP2 SWAP1 MOD SWAP1 SWAP2 SWAP1 SWAP2 SWAP1 SWAP2 PUSH2 0x100 EXP DUP2 SLOAD DUP2 PUSH1 0xFF MUL NOT AND SWAP1 DUP4 PUSH1 0xFF AND MUL OR SWAP1 SSTORE POP PUSH1 0x0 PUSH2 0x10A0 PUSH2 0x2123 JUMP JUMPDEST PUSH1 0xFF AND SWAP1 POP PUSH1 0x15 DUP2 SUB PUSH2 0x1121 JUMPI PUSH1 0x3 PUSH1 0x4 PUSH1 0x0 CALLER PUSH20 0xFFFFFFFFFFFFFFFFFFFFFFFFFFFFFFFFFFFFFFFF AND PUSH20 0xFFFFFFFFFFFFFFFFFFFFFFFFFFFFFFFFFFFFFFFF AND DUP2 MSTORE PUSH1 0x20 ADD SWAP1 DUP2 MSTORE PUSH1 0x20 ADD PUSH1 0x0 KECCAK256 PUSH1 0x6 ADD PUSH1 0x1 PUSH2 0x100 EXP DUP2 SLOAD DUP2 PUSH1 0xFF MUL NOT AND SWAP1 DUP4 PUSH1 0x5 DUP2 GT ISZERO PUSH2 0x1113 JUMPI PUSH2 0x1112 PUSH2 0x2FF2 JUMP JUMPDEST JUMPDEST MUL OR SWAP1 SSTORE POP PUSH2 0x1120 PUSH2 0x2476 JUMP JUMPDEST JUMPDEST PUSH2 0x1129 PUSH2 0x5E0 JUMP JUMPDEST POP POP POP JUMP JUMPDEST PUSH1 0x0 DUP1 SLOAD SWAP1 PUSH2 0x100 EXP SWAP1 DIV PUSH20 0xFFFFFFFFFFFFFFFFFFFFFFFFFFFFFFFFFFFFFFFF AND DUP2 JUMP JUMPDEST PUSH1 0x0 DUP1 PUSH1 0x0 JUMPDEST DUP4 MLOAD DUP2 LT ISZERO PUSH2 0x1202 JUMPI PUSH1 0x0 PUSH1 0xD DUP6 DUP4 DUP2 MLOAD DUP2 LT PUSH2 0x1178 JUMPI PUSH2 0x1177 PUSH2 0x4200 JUMP JUMPDEST JUMPDEST PUSH1 0x20 MUL PUSH1 0x20 ADD ADD MLOAD PUSH2 0x118A SWAP2 SWAP1 PUSH2 0x425E JUMP JUMPDEST SWAP1 POP PUSH1 0x0 DUP2 PUSH1 0xFF AND SUB PUSH2 0x11B9 JUMPI DUP3 DUP1 PUSH2 0x11A2 SWAP1 PUSH2 0x428F JUMP JUMPDEST SWAP4 POP POP PUSH1 0xB DUP5 PUSH2 0x11B2 SWAP2 SWAP1 PUSH2 0x42B8 JUMP JUMPDEST SWAP4 POP PUSH2 0x11F4 JUMP JUMPDEST PUSH1 0xA DUP2 PUSH1 0xFF AND LT PUSH2 0x11D8 JUMPI PUSH1 0xA DUP5 PUSH2 0x11D1 SWAP2 SWAP1 PUSH2 0x42B8 JUMP JUMPDEST SWAP4 POP PUSH2 0x11F3 JUMP JUMPDEST PUSH1 0x1 DUP2 PUSH2 0x11E5 SWAP2 SWAP1 PUSH2 0x42B8 JUMP JUMPDEST DUP5 PUSH2 0x11F0 SWAP2 SWAP1 PUSH2 0x42B8 JUMP JUMPDEST SWAP4 POP JUMPDEST JUMPDEST POP DUP1 DUP1 PUSH1 0x1 ADD SWAP2 POP POP PUSH2 0x1158 JUMP JUMPDEST POP JUMPDEST PUSH1 0x15 DUP3 PUSH1 0xFF AND GT DUP1 ISZERO PUSH2 0x121A JUMPI POP PUSH1 0x0 DUP2 PUSH1 0xFF AND GT JUMPDEST ISZERO PUSH2 0x1241 JUMPI PUSH1 0xA DUP3 PUSH2 0x122C SWAP2 SWAP1 PUSH2 0x42ED JUMP JUMPDEST SWAP2 POP DUP1 DUP1 PUSH2 0x1239 SWAP1 PUSH2 0x4322 JUMP JUMPDEST SWAP2 POP POP PUSH2 0x1204 JUMP JUMPDEST POP SWAP2 SWAP1 POP JUMP JUMPDEST PUSH2 0x124F PUSH2 0x2B31 JUMP JUMPDEST PUSH1 0x4 PUSH1 0x0 CALLER PUSH20 0xFFFFFFFFFFFFFFFFFFFFFFFFFFFFFFFFFFFFFFFF AND PUSH20 0xFFFFFFFFFFFFFFFFFFFFFFFFFFFFFFFFFFFFFFFF AND DUP2 MSTORE PUSH1 0x20 ADD SWAP1 DUP2 MSTORE PUSH1 0x20 ADD PUSH1 0x0 KECCAK256 PUSH1 0x40 MLOAD DUP1 PUSH1 0xE0 ADD PUSH1 0x40 MSTORE SWAP1 DUP2 PUSH1 0x0 DUP3 ADD SLOAD DUP2 MSTORE PUSH1 0x20 ADD PUSH1 0x1 DUP3 ADD SLOAD DUP2 MSTORE PUSH1 0x20 ADD PUSH1 0x2 DUP3 ADD DUP1 SLOAD DUP1 PUSH1 0x20 MUL PUSH1 0x20 ADD PUSH1 0x40 MLOAD SWAP1 DUP2 ADD PUSH1 0x40 MSTORE DUP1 SWAP3 SWAP2 SWAP1 DUP2 DUP2 MSTORE PUSH1 0x20 ADD DUP3 DUP1 SLOAD DUP1 ISZERO PUSH2 0x1322 JUMPI PUSH1 0x20 MUL DUP3 ADD SWAP2 SWAP1 PUSH1 0x0 MSTORE PUSH1 0x20 PUSH1 0x0 KECCAK256 SWAP1 PUSH1 0x0 SWAP1 JUMPDEST DUP3 DUP3 SWAP1 SLOAD SWAP1 PUSH2 0x100 EXP SWAP1 DIV PUSH1 0xFF AND PUSH1 0xFF AND DUP2 MSTORE PUSH1 0x20 ADD SWAP1 PUSH1 0x1 ADD SWAP1 PUSH1 0x20 DUP3 PUSH1 0x0 ADD DIV SWAP3 DUP4 ADD SWAP3 PUSH1 0x1 SUB DUP3 MUL SWAP2 POP DUP1 DUP5 GT PUSH2 0x12EB JUMPI SWAP1 POP JUMPDEST POP POP POP POP POP DUP2 MSTORE PUSH1 0x20 ADD PUSH1 0x3 DUP3 ADD DUP1 SLOAD DUP1 PUSH1 0x20 MUL PUSH1 0x20 ADD PUSH1 0x40 MLOAD SWAP1 DUP2 ADD PUSH1 0x40 MSTORE DUP1 SWAP3 SWAP2 SWAP1 DUP2 DUP2 MSTORE PUSH1 0x20 ADD DUP3 DUP1 SLOAD DUP1 ISZERO PUSH2 0x13A0 JUMPI PUSH1 0x20 MUL DUP3 ADD SWAP2 SWAP1 PUSH1 0x0 MSTORE PUSH1 0x20 PUSH1 0x0 KECCAK256 SWAP1 PUSH1 0x0 SWAP1 JUMPDEST DUP3 DUP3 SWAP1 SLOAD SWAP1 PUSH2 0x100 EXP SWAP1 DIV PUSH1 0xFF AND PUSH1 0xFF AND DUP2 MSTORE PUSH1 0x20 ADD SWAP1 PUSH1 0x1 ADD SWAP1 PUSH1 0x20 DUP3 PUSH1 0x0 ADD DIV SWAP3 DUP4 ADD SWAP3 PUSH1 0x1 SUB DUP3 MUL SWAP2 POP DUP1 DUP5 GT PUSH2 0x1369 JUMPI SWAP1 POP JUMPDEST POP POP POP POP POP DUP2 MSTORE PUSH1 0x20 ADD PUSH1 0x4 DUP3 ADD PUSH1 0x34 DUP1 PUSH1 0x20 MUL PUSH1 0x40 MLOAD SWAP1 DUP2 ADD PUSH1 0x40 MSTORE DUP1 SWAP3 SWAP2 SWAP1 DUP3 PUSH1 0x34 DUP1 ISZERO PUSH2 0x140B JUMPI PUSH1 0x20 MUL DUP3 ADD SWAP2 PUSH1 0x0 SWAP1 JUMPDEST DUP3 DUP3 SWAP1 SLOAD SWAP1 PUSH2 0x100 EXP SWAP1 DIV PUSH1 0xFF AND PUSH1 0xFF AND DUP2 MSTORE PUSH1 0x20 ADD SWAP1 PUSH1 0x1 ADD SWAP1 PUSH1 0x20 DUP3 PUSH1 0x0 ADD DIV SWAP3 DUP4 ADD SWAP3 PUSH1 0x1 SUB DUP3 MUL SWAP2 POP DUP1 DUP5 GT PUSH2 0x13D4 JUMPI SWAP1 POP JUMPDEST POP POP POP POP POP DUP2 MSTORE PUSH1 0x20 ADD PUSH1 0x6 DUP3 ADD PUSH1 0x0 SWAP1 SLOAD SWAP1 PUSH2 0x100 EXP SWAP1 DIV PUSH1 0xFF AND PUSH1 0xFF AND PUSH1 0xFF AND DUP2 MSTORE PUSH1 0x20 ADD PUSH1 0x6 DUP3 ADD PUSH1 0x1 SWAP1 SLOAD SWAP1 PUSH2 0x100 EXP SWAP1 DIV PUSH1 0xFF AND PUSH1 0x5 DUP2 GT ISZERO PUSH2 0x1456 JUMPI PUSH2 0x1455 PUSH2 0x2FF2 JUMP JUMPDEST JUMPDEST PUSH1 0x5 DUP2 GT ISZERO PUSH2 0x1468 JUMPI PUSH2 0x1467 PUSH2 0x2FF2 JUMP JUMPDEST JUMPDEST DUP2 MSTORE POP POP SWAP1 POP SWAP1 JUMP JUMPDEST PUSH1 0x0 PUSH1 0x4 PUSH1 0x0 CALLER PUSH20 0xFFFFFFFFFFFFFFFFFFFFFFFFFFFFFFFFFFFFFFFF AND PUSH20 0xFFFFFFFFFFFFFFFFFFFFFFFFFFFFFFFFFFFFFFFF AND DUP2 MSTORE PUSH1 0x20 ADD SWAP1 DUP2 MSTORE PUSH1 0x20 ADD PUSH1 0x0 KECCAK256 PUSH1 0x40 MLOAD DUP1 PUSH1 0xE0 ADD PUSH1 0x40 MSTORE SWAP1 DUP2 PUSH1 0x0 DUP3 ADD SLOAD DUP2 MSTORE PUSH1 0x20 ADD PUSH1 0x1 DUP3 ADD SLOAD DUP2 MSTORE PUSH1 0x20 ADD PUSH1 0x2 DUP3 ADD DUP1 SLOAD DUP1 PUSH1 0x20 MUL PUSH1 0x20 ADD PUSH1 0x40 MLOAD SWAP1 DUP2 ADD PUSH1 0x40 MSTORE DUP1 SWAP3 SWAP2 SWAP1 DUP2 DUP2 MSTORE PUSH1 0x20 ADD DUP3 DUP1 SLOAD DUP1 ISZERO PUSH2 0x1546 JUMPI PUSH1 0x20 MUL DUP3 ADD SWAP2 SWAP1 PUSH1 0x0 MSTORE PUSH1 0x20 PUSH1 0x0 KECCAK256 SWAP1 PUSH1 0x0 SWAP1 JUMPDEST DUP3 DUP3 SWAP1 SLOAD SWAP1 PUSH2 0x100 EXP SWAP1 DIV PUSH1 0xFF AND PUSH1 0xFF AND DUP2 MSTORE PUSH1 0x20 ADD SWAP1 PUSH1 0x1 ADD SWAP1 PUSH1 0x20 DUP3 PUSH1 0x0 ADD DIV SWAP3 DUP4 ADD SWAP3 PUSH1 0x1 SUB DUP3 MUL SWAP2 POP DUP1 DUP5 GT PUSH2 0x150F JUMPI SWAP1 POP JUMPDEST POP POP POP POP POP DUP2 MSTORE PUSH1 0x20 ADD PUSH1 0x3 DUP3 ADD DUP1 SLOAD DUP1 PUSH1 0x20 MUL PUSH1 0x20 ADD PUSH1 0x40 MLOAD SWAP1 DUP2 ADD PUSH1 0x40 MSTORE DUP1 SWAP3 SWAP2 SWAP1 DUP2 DUP2 MSTORE PUSH1 0x20 ADD DUP3 DUP1 SLOAD DUP1 ISZERO PUSH2 0x15C4 JUMPI PUSH1 0x20 MUL DUP3 ADD SWAP2 SWAP1 PUSH1 0x0 MSTORE PUSH1 0x20 PUSH1 0x0 KECCAK256 SWAP1 PUSH1 0x0 SWAP1 JUMPDEST DUP3 DUP3 SWAP1 SLOAD SWAP1 PUSH2 0x100 EXP SWAP1 DIV PUSH1 0xFF AND PUSH1 0xFF AND DUP2 MSTORE PUSH1 0x20 ADD SWAP1 PUSH1 0x1 ADD SWAP1 PUSH1 0x20 DUP3 PUSH1 0x0 ADD DIV SWAP3 DUP4 ADD SWAP3 PUSH1 0x1 SUB DUP3 MUL SWAP2 POP DUP1 DUP5 GT PUSH2 0x158D JUMPI SWAP1 POP JUMPDEST POP POP POP POP POP DUP2 MSTORE PUSH1 0x20 ADD PUSH1 0x4 DUP3 ADD PUSH1 0x34 DUP1 PUSH1 0x20 MUL PUSH1 0x40 MLOAD SWAP1 DUP2 ADD PUSH1 0x40 MSTORE DUP1 SWAP3 SWAP2 SWAP1 DUP3 PUSH1 0x34 DUP1 ISZERO PUSH2 0x162F JUMPI PUSH1 0x20 MUL DUP3 ADD SWAP2 PUSH1 0x0 SWAP1 JUMPDEST DUP3 DUP3 SWAP1 SLOAD SWAP1 PUSH2 0x100 EXP SWAP1 DIV PUSH1 0xFF AND PUSH1 0xFF AND DUP2 MSTORE PUSH1 0x20 ADD SWAP1 PUSH1 0x1 ADD SWAP1 PUSH1 0x20 DUP3 PUSH1 0x0 ADD DIV SWAP3 DUP4 ADD SWAP3 PUSH1 0x1 SUB DUP3 MUL SWAP2 POP DUP1 DUP5 GT PUSH2 0x15F8 JUMPI SWAP1 POP JUMPDEST POP POP POP POP POP DUP2 MSTORE PUSH1 0x20 ADD PUSH1 0x6 DUP3 ADD PUSH1 0x0 SWAP1 SLOAD SWAP1 PUSH2 0x100 EXP SWAP1 DIV PUSH1 0xFF AND PUSH1 0xFF AND PUSH1 0xFF AND DUP2 MSTORE PUSH1 0x20 ADD PUSH1 0x6 DUP3 ADD PUSH1 0x1 SWAP1 SLOAD SWAP1 PUSH2 0x100 EXP SWAP1 DIV PUSH1 0xFF AND PUSH1 0x5 DUP2 GT ISZERO PUSH2 0x167A JUMPI PUSH2 0x1679 PUSH2 0x2FF2 JUMP JUMPDEST JUMPDEST PUSH1 0x5 DUP2 GT ISZERO PUSH2 0x168C JUMPI PUSH2 0x168B PUSH2 0x2FF2 JUMP JUMPDEST JUMPDEST DUP2 MSTORE POP POP SWAP1 POP PUSH1 0x1 PUSH1 0x5 DUP2 GT ISZERO PUSH2 0x16A6 JUMPI PUSH2 0x16A5 PUSH2 0x2FF2 JUMP JUMPDEST JUMPDEST DUP2 PUSH1 0xC0 ADD MLOAD PUSH1 0x5 DUP2 GT ISZERO PUSH2 0x16BD JUMPI PUSH2 0x16BC PUSH2 0x2FF2 JUMP JUMPDEST JUMPDEST EQ PUSH2 0x16FD JUMPI PUSH1 0x40 MLOAD PUSH32 0x8C379A000000000000000000000000000000000000000000000000000000000 DUP2 MSTORE PUSH1 0x4 ADD PUSH2 0x16F4 SWAP1 PUSH2 0x318E JUMP JUMPDEST PUSH1 0x40 MLOAD DUP1 SWAP2 SUB SWAP1 REVERT JUMPDEST PUSH1 0x4 PUSH1 0x0 CALLER PUSH20 0xFFFFFFFFFFFFFFFFFFFFFFFFFFFFFFFFFFFFFFFF AND PUSH20 0xFFFFFFFFFFFFFFFFFFFFFFFFFFFFFFFFFFFFFFFF AND DUP2 MSTORE PUSH1 0x20 ADD SWAP1 DUP2 MSTORE PUSH1 0x20 ADD PUSH1 0x0 KECCAK256 PUSH1 0x2 ADD PUSH2 0x1747 PUSH2 0x22D5 JUMP JUMPDEST SWAP1 DUP1 PUSH1 0x1 DUP2 SLOAD ADD DUP1 DUP3 SSTORE DUP1 SWAP2 POP POP PUSH1 0x1 SWAP1 SUB SWAP1 PUSH1 0x0 MSTORE PUSH1 0x20 PUSH1 0x0 KECCAK256 SWAP1 PUSH1 0x20 SWAP2 DUP3 DUP3 DIV ADD SWAP2 SWAP1 MOD SWAP1 SWAP2 SWAP1 SWAP2 SWAP1 SWAP2 PUSH2 0x100 EXP DUP2 SLOAD DUP2 PUSH1 0xFF MUL NOT AND SWAP1 DUP4 PUSH1 0xFF AND MUL OR SWAP1 SSTORE POP PUSH1 0x0 PUSH2 0x1793 PUSH2 0x220F JUMP JUMPDEST SWAP1 POP PUSH1 0x0 PUSH2 0x179F PUSH2 0x2123 JUMP JUMPDEST SWAP1 POP JUMPDEST PUSH1 0x10 DUP3 PUSH1 0xFF AND GT PUSH2 0x1848 JUMPI PUSH1 0x4 PUSH1 0x0 CALLER PUSH20 0xFFFFFFFFFFFFFFFFFFFFFFFFFFFFFFFFFFFFFFFF AND PUSH20 0xFFFFFFFFFFFFFFFFFFFFFFFFFFFFFFFFFFFFFFFF AND DUP2 MSTORE PUSH1 0x20 ADD SWAP1 DUP2 MSTORE PUSH1 0x20 ADD PUSH1 0x0 KECCAK256 PUSH1 0x2 ADD PUSH2 0x17F7 PUSH2 0x22D5 JUMP JUMPDEST SWAP1 DUP1 PUSH1 0x1 DUP2 SLOAD ADD DUP1 DUP3 SSTORE DUP1 SWAP2 POP POP PUSH1 0x1 SWAP1 SUB SWAP1 PUSH1 0x0 MSTORE PUSH1 0x20 PUSH1 0x0 KECCAK256 SWAP1 PUSH1 0x20 SWAP2 DUP3 DUP3 DIV ADD SWAP2 SWAP1 MOD SWAP1 SWAP2 SWAP1 SWAP2 SWAP1 SWAP2 PUSH2 0x100 EXP DUP2 SLOAD DUP2 PUSH1 0xFF MUL NOT AND SWAP1 DUP4 PUSH1 0xFF AND MUL OR SWAP1 SSTORE POP PUSH2 0x1841 PUSH2 0x220F JUMP JUMPDEST SWAP2 POP PUSH2 0x17A2 JUMP JUMPDEST PUSH1 0x15 DUP3 PUSH1 0xFF AND GT DUP1 PUSH2 0x185F JUMPI POP DUP1 PUSH1 0xFF AND DUP3 PUSH1 0xFF AND LT JUMPDEST ISZERO PUSH2 0x18DC JUMPI PUSH1 0x2 PUSH1 0x4 PUSH1 0x0 CALLER PUSH20 0xFFFFFFFFFFFFFFFFFFFFFFFFFFFFFFFFFFFFFFFF AND PUSH20 0xFFFFFFFFFFFFFFFFFFFFFFFFFFFFFFFFFFFFFFFF AND DUP2 MSTORE PUSH1 0x20 ADD SWAP1 DUP2 MSTORE PUSH1 0x20 ADD PUSH1 0x0 KECCAK256 PUSH1 0x6 ADD PUSH1 0x1 PUSH2 0x100 EXP DUP2 SLOAD DUP2 PUSH1 0xFF MUL NOT AND SWAP1 DUP4 PUSH1 0x5 DUP2 GT ISZERO PUSH2 0x18CA JUMPI PUSH2 0x18C9 PUSH2 0x2FF2 JUMP JUMPDEST JUMPDEST MUL OR SWAP1 SSTORE POP PUSH2 0x18D7 PUSH2 0x2476 JUMP JUMPDEST PUSH2 0x19DC JUMP JUMPDEST PUSH1 0x15 DUP3 PUSH1 0xFF AND EQ DUP1 PUSH2 0x18F3 JUMPI POP DUP1 PUSH1 0xFF AND DUP3 PUSH1 0xFF AND GT JUMPDEST ISZERO PUSH2 0x1967 JUMPI PUSH1 0x4 DUP1 PUSH1 0x0 CALLER PUSH20 0xFFFFFFFFFFFFFFFFFFFFFFFFFFFFFFFFFFFFFFFF AND PUSH20 0xFFFFFFFFFFFFFFFFFFFFFFFFFFFFFFFFFFFFFFFF AND DUP2 MSTORE PUSH1 0x20 ADD SWAP1 DUP2 MSTORE PUSH1 0x20 ADD PUSH1 0x0 KECCAK256 PUSH1 0x6 ADD PUSH1 0x1 PUSH2 0x100 EXP DUP2 SLOAD DUP2 PUSH1 0xFF MUL NOT AND SWAP1 DUP4 PUSH1 0x5 DUP2 GT ISZERO PUSH2 0x195D JUMPI PUSH2 0x195C PUSH2 0x2FF2 JUMP JUMPDEST JUMPDEST MUL OR SWAP1 SSTORE POP PUSH2 0x19DB JUMP JUMPDEST PUSH1 0x5 PUSH1 0x4 PUSH1 0x0 CALLER PUSH20 0xFFFFFFFFFFFFFFFFFFFFFFFFFFFFFFFFFFFFFFFF AND PUSH20 0xFFFFFFFFFFFFFFFFFFFFFFFFFFFFFFFFFFFFFFFF AND DUP2 MSTORE PUSH1 0x20 ADD SWAP1 DUP2 MSTORE PUSH1 0x20 ADD PUSH1 0x0 KECCAK256 PUSH1 0x6 ADD PUSH1 0x1 PUSH2 0x100 EXP DUP2 SLOAD DUP2 PUSH1 0xFF MUL NOT AND SWAP1 DUP4 PUSH1 0x5 DUP2 GT ISZERO PUSH2 0x19CD JUMPI PUSH2 0x19CC PUSH2 0x2FF2 JUMP JUMPDEST JUMPDEST MUL OR SWAP1 SSTORE POP PUSH2 0x19DA PUSH2 0x2739 JUMP JUMPDEST JUMPDEST JUMPDEST PUSH2 0x19E4 PUSH2 0x5E0 JUMP JUMPDEST POP POP POP JUMP JUMPDEST PUSH1 0x0 PUSH1 0x4 PUSH1 0x0 CALLER PUSH20 0xFFFFFFFFFFFFFFFFFFFFFFFFFFFFFFFFFFFFFFFF AND PUSH20 0xFFFFFFFFFFFFFFFFFFFFFFFFFFFFFFFFFFFFFFFF AND DUP2 MSTORE PUSH1 0x20 ADD SWAP1 DUP2 MSTORE PUSH1 0x20 ADD PUSH1 0x0 KECCAK256 PUSH1 0x40 MLOAD DUP1 PUSH1 0xE0 ADD PUSH1 0x40 MSTORE SWAP1 DUP2 PUSH1 0x0 DUP3 ADD SLOAD DUP2 MSTORE PUSH1 0x20 ADD PUSH1 0x1 DUP3 ADD SLOAD DUP2 MSTORE PUSH1 0x20 ADD PUSH1 0x2 DUP3 ADD DUP1 SLOAD DUP1 PUSH1 0x20 MUL PUSH1 0x20 ADD PUSH1 0x40 MLOAD SWAP1 DUP2 ADD PUSH1 0x40 MSTORE DUP1 SWAP3 SWAP2 SWAP1 DUP2 DUP2 MSTORE PUSH1 0x20 ADD DUP3 DUP1 SLOAD DUP1 ISZERO PUSH2 0x1ABE JUMPI PUSH1 0x20 MUL DUP3 ADD SWAP2 SWAP1 PUSH1 0x0 MSTORE PUSH1 0x20 PUSH1 0x0 KECCAK256 SWAP1 PUSH1 0x0 SWAP1 JUMPDEST DUP3 DUP3 SWAP1 SLOAD SWAP1 PUSH2 0x100 EXP SWAP1 DIV PUSH1 0xFF AND PUSH1 0xFF AND DUP2 MSTORE PUSH1 0x20 ADD SWAP1 PUSH1 0x1 ADD SWAP1 PUSH1 0x20 DUP3 PUSH1 0x0 ADD DIV SWAP3 DUP4 ADD SWAP3 PUSH1 0x1 SUB DUP3 MUL SWAP2 POP DUP1 DUP5 GT PUSH2 0x1A87 JUMPI SWAP1 POP JUMPDEST POP POP POP POP POP DUP2 MSTORE PUSH1 0x20 ADD PUSH1 0x3 DUP3 ADD DUP1 SLOAD DUP1 PUSH1 0x20 MUL PUSH1 0x20 ADD PUSH1 0x40 MLOAD SWAP1 DUP2 ADD PUSH1 0x40 MSTORE DUP1 SWAP3 SWAP2 SWAP1 DUP2 DUP2 MSTORE PUSH1 0x20 ADD DUP3 DUP1 SLOAD DUP1 ISZERO PUSH2 0x1B3C JUMPI PUSH1 0x20 MUL DUP3 ADD SWAP2 SWAP1 PUSH1 0x0 MSTORE PUSH1 0x20 PUSH1 0x0 KECCAK256 SWAP1 PUSH1 0x0 SWAP1 JUMPDEST DUP3 DUP3 SWAP1 SLOAD SWAP1 PUSH2 0x100 EXP SWAP1 DIV PUSH1 0xFF AND PUSH1 0xFF AND DUP2 MSTORE PUSH1 0x20 ADD SWAP1 PUSH1 0x1 ADD SWAP1 PUSH1 0x20 DUP3 PUSH1 0x0 ADD DIV SWAP3 DUP4 ADD SWAP3 PUSH1 0x1 SUB DUP3 MUL SWAP2 POP DUP1 DUP5 GT PUSH2 0x1B05 JUMPI SWAP1 POP JUMPDEST POP POP POP POP POP DUP2 MSTORE PUSH1 0x20 ADD PUSH1 0x4 DUP3 ADD PUSH1 0x34 DUP1 PUSH1 0x20 MUL PUSH1 0x40 MLOAD SWAP1 DUP2 ADD PUSH1 0x40 MSTORE DUP1 SWAP3 SWAP2 SWAP1 DUP3 PUSH1 0x34 DUP1 ISZERO PUSH2 0x1BA7 JUMPI PUSH1 0x20 MUL DUP3 ADD SWAP2 PUSH1 0x0 SWAP1 JUMPDEST DUP3 DUP3 SWAP1 SLOAD SWAP1 PUSH2 0x100 EXP SWAP1 DIV PUSH1 0xFF AND PUSH1 0xFF AND DUP2 MSTORE PUSH1 0x20 ADD SWAP1 PUSH1 0x1 ADD SWAP1 PUSH1 0x20 DUP3 PUSH1 0x0 ADD DIV SWAP3 DUP4 ADD SWAP3 PUSH1 0x1 SUB DUP3 MUL SWAP2 POP DUP1 DUP5 GT PUSH2 0x1B70 JUMPI SWAP1 POP JUMPDEST POP POP POP POP POP DUP2 MSTORE PUSH1 0x20 ADD PUSH1 0x6 DUP3 ADD PUSH1 0x0 SWAP1 SLOAD SWAP1 PUSH2 0x100 EXP SWAP1 DIV PUSH1 0xFF AND PUSH1 0xFF AND PUSH1 0xFF AND DUP2 MSTORE PUSH1 0x20 ADD PUSH1 0x6 DUP3 ADD PUSH1 0x1 SWAP1 SLOAD SWAP1 PUSH2 0x100 EXP SWAP1 DIV PUSH1 0xFF AND PUSH1 0x5 DUP2 GT ISZERO PUSH2 0x1BF2 JUMPI PUSH2 0x1BF1 PUSH2 0x2FF2 JUMP JUMPDEST JUMPDEST PUSH1 0x5 DUP2 GT ISZERO PUSH2 0x1C04 JUMPI PUSH2 0x1C03 PUSH2 0x2FF2 JUMP JUMPDEST JUMPDEST DUP2 MSTORE POP POP SWAP1 POP PUSH1 0x1 PUSH1 0x5 DUP2 GT ISZERO PUSH2 0x1C1E JUMPI PUSH2 0x1C1D PUSH2 0x2FF2 JUMP JUMPDEST JUMPDEST DUP2 PUSH1 0xC0 ADD MLOAD PUSH1 0x5 DUP2 GT ISZERO PUSH2 0x1C35 JUMPI PUSH2 0x1C34 PUSH2 0x2FF2 JUMP JUMPDEST JUMPDEST EQ PUSH2 0x1C75 JUMPI PUSH1 0x40 MLOAD PUSH32 0x8C379A000000000000000000000000000000000000000000000000000000000 DUP2 MSTORE PUSH1 0x4 ADD PUSH2 0x1C6C SWAP1 PUSH2 0x318E JUMP JUMPDEST PUSH1 0x40 MLOAD DUP1 SWAP2 SUB SWAP1 REVERT JUMPDEST PUSH1 0x2 DUP2 PUSH1 0x60 ADD MLOAD MLOAD EQ PUSH2 0x1CBD JUMPI PUSH1 0x40 MLOAD PUSH32 0x8C379A000000000000000000000000000000000000000000000000000000000 DUP2 MSTORE PUSH1 0x4 ADD PUSH2 0x1CB4 SWAP1 PUSH2 0x43BD JUMP JUMPDEST PUSH1 0x40 MLOAD DUP1 SWAP2 SUB SWAP1 REVERT JUMPDEST PUSH1 0x0 PUSH1 0x1 PUSH1 0x0 SWAP1 SLOAD SWAP1 PUSH2 0x100 EXP SWAP1 DIV PUSH20 0xFFFFFFFFFFFFFFFFFFFFFFFFFFFFFFFFFFFFFFFF AND PUSH20 0xFFFFFFFFFFFFFFFFFFFFFFFFFFFFFFFFFFFFFFFF AND PUSH4 0x9B96EECE CALLER PUSH1 0x40 MLOAD DUP3 PUSH4 0xFFFFFFFF AND PUSH1 0xE0 SHL DUP2 MSTORE PUSH1 0x4 ADD PUSH2 0x1D1A SWAP2 SWAP1 PUSH2 0x2C81 JUMP JUMPDEST PUSH1 0x20 PUSH1 0x40 MLOAD DUP1 DUP4 SUB DUP2 DUP7 GAS STATICCALL ISZERO DUP1 ISZERO PUSH2 0x1D37 JUMPI RETURNDATASIZE PUSH1 0x0 DUP1 RETURNDATACOPY RETURNDATASIZE PUSH1 0x0 REVERT JUMPDEST POP POP POP POP PUSH1 0x40 MLOAD RETURNDATASIZE PUSH1 0x1F NOT PUSH1 0x1F DUP3 ADD AND DUP3 ADD DUP1 PUSH1 0x40 MSTORE POP DUP2 ADD SWAP1 PUSH2 0x1D5B SWAP2 SWAP1 PUSH2 0x40D2 JUMP JUMPDEST SWAP1 POP DUP2 PUSH1 0x20 ADD MLOAD DUP2 GT PUSH2 0x1DA3 JUMPI PUSH1 0x40 MLOAD PUSH32 0x8C379A000000000000000000000000000000000000000000000000000000000 DUP2 MSTORE PUSH1 0x4 ADD PUSH2 0x1D9A SWAP1 PUSH2 0x4429 JUMP JUMPDEST PUSH1 0x40 MLOAD DUP1 SWAP2 SUB SWAP1 REVERT JUMPDEST PUSH1 0x0 PUSH1 0x1 PUSH1 0x0 SWAP1 SLOAD SWAP1 PUSH2 0x100 EXP SWAP1 DIV PUSH20 0xFFFFFFFFFFFFFFFFFFFFFFFFFFFFFFFFFFFFFFFF AND PUSH20 0xFFFFFFFFFFFFFFFFFFFFFFFFFFFFFFFFFFFFFFFF AND PUSH4 0x1A0843C0 PUSH1 0x40 MLOAD DUP2 PUSH4 0xFFFFFFFF AND PUSH1 0xE0 SHL DUP2 MSTORE PUSH1 0x4 ADD PUSH1 0x20 PUSH1 0x40 MLOAD DUP1 DUP4 SUB DUP2 PUSH1 0x0 DUP8 GAS CALL ISZERO DUP1 ISZERO PUSH2 0x1E14 JUMPI RETURNDATASIZE PUSH1 0x0 DUP1 RETURNDATACOPY RETURNDATASIZE PUSH1 0x0 REVERT JUMPDEST POP POP POP POP PUSH1 0x40 MLOAD RETURNDATASIZE PUSH1 0x1F NOT PUSH1 0x1F DUP3 ADD AND DUP3 ADD DUP1 PUSH1 0x40 MSTORE POP DUP2 ADD SWAP1 PUSH2 0x1E38 SWAP2 SWAP1 PUSH2 0x40D2 JUMP JUMPDEST SWAP1 POP DUP3 PUSH1 0x20 ADD MLOAD DUP2 GT PUSH2 0x1E80 JUMPI PUSH1 0x40 MLOAD PUSH32 0x8C379A000000000000000000000000000000000000000000000000000000000 DUP2 MSTORE PUSH1 0x4 ADD PUSH2 0x1E77 SWAP1 PUSH2 0x44BB JUMP JUMPDEST PUSH1 0x40 MLOAD DUP1 SWAP2 SUB SWAP1 REVERT JUMPDEST PUSH1 0x1 PUSH1 0x0 SWAP1 SLOAD SWAP1 PUSH2 0x100 EXP SWAP1 DIV PUSH20 0xFFFFFFFFFFFFFFFFFFFFFFFFFFFFFFFFFFFFFFFF AND PUSH20 0xFFFFFFFFFFFFFFFFFFFFFFFFFFFFFFFFFFFFFFFF AND PUSH4 0x63FB576F CALLER DUP6 PUSH1 0x20 ADD MLOAD PUSH1 0x40 MLOAD DUP4 PUSH4 0xFFFFFFFF AND PUSH1 0xE0 SHL DUP2 MSTORE PUSH1 0x4 ADD PUSH2 0x1EE1 SWAP3 SWAP2 SWAP1 PUSH2 0x41D7 JUMP JUMPDEST PUSH1 0x0 PUSH1 0x40 MLOAD DUP1 DUP4 SUB DUP2 PUSH1 0x0 DUP8 DUP1 EXTCODESIZE ISZERO DUP1 ISZERO PUSH2 0x1EFB JUMPI PUSH1 0x0 DUP1 REVERT JUMPDEST POP GAS CALL ISZERO DUP1 ISZERO PUSH2 0x1F0F JUMPI RETURNDATASIZE PUSH1 0x0 DUP1 RETURNDATACOPY RETURNDATASIZE PUSH1 0x0 REVERT JUMPDEST POP POP POP POP DUP3 PUSH1 0x20 ADD MLOAD PUSH1 0x4 PUSH1 0x0 CALLER PUSH20 0xFFFFFFFFFFFFFFFFFFFFFFFFFFFFFFFFFFFFFFFF AND PUSH20 0xFFFFFFFFFFFFFFFFFFFFFFFFFFFFFFFFFFFFFFFF AND DUP2 MSTORE PUSH1 0x20 ADD SWAP1 DUP2 MSTORE PUSH1 0x20 ADD PUSH1 0x0 KECCAK256 PUSH1 0x1 ADD PUSH1 0x0 DUP3 DUP3 SLOAD PUSH2 0x1F69 SWAP2 SWAP1 PUSH2 0x44DB JUMP JUMPDEST SWAP3 POP POP DUP2 SWAP1 SSTORE POP PUSH1 0x4 PUSH1 0x0 CALLER PUSH20 0xFFFFFFFFFFFFFFFFFFFFFFFFFFFFFFFFFFFFFFFF AND PUSH20 0xFFFFFFFFFFFFFFFFFFFFFFFFFFFFFFFFFFFFFFFF AND DUP2 MSTORE PUSH1 0x20 ADD SWAP1 DUP2 MSTORE PUSH1 0x20 ADD PUSH1 0x0 KECCAK256 PUSH1 0x3 ADD PUSH2 0x1FBA PUSH2 0x22D5 JUMP JUMPDEST SWAP1 DUP1 PUSH1 0x1 DUP2 SLOAD ADD DUP1 DUP3 SSTORE DUP1 SWAP2 POP POP PUSH1 0x1 SWAP1 SUB SWAP1 PUSH1 0x0 MSTORE PUSH1 0x20 PUSH1 0x0 KECCAK256 SWAP1 PUSH1 0x20 SWAP2 DUP3 DUP3 DIV ADD SWAP2 SWAP1 MOD SWAP1 SWAP2 SWAP1 SWAP2 SWAP1 SWAP2 PUSH2 0x100 EXP DUP2 SLOAD DUP2 PUSH1 0xFF MUL NOT AND SWAP1 DUP4 PUSH1 0xFF AND MUL OR SWAP1 SSTORE POP PUSH1 0x0 PUSH2 0x2006 PUSH2 0x2123 JUMP JUMPDEST PUSH1 0xFF AND SWAP1 POP PUSH1 0x15 DUP2 SUB PUSH2 0x2093 JUMPI PUSH1 0x2 PUSH1 0x4 PUSH1 0x0 CALLER PUSH20 0xFFFFFFFFFFFFFFFFFFFFFFFFFFFFFFFFFFFFFFFF AND PUSH20 0xFFFFFFFFFFFFFFFFFFFFFFFFFFFFFFFFFFFFFFFF AND DUP2 MSTORE PUSH1 0x20 ADD SWAP1 DUP2 MSTORE PUSH1 0x20 ADD PUSH1 0x0 KECCAK256 PUSH1 0x6 ADD PUSH1 0x1 PUSH2 0x100 EXP DUP2 SLOAD DUP2 PUSH1 0xFF MUL NOT AND SWAP1 DUP4 PUSH1 0x5 DUP2 GT ISZERO PUSH2 0x2079 JUMPI PUSH2 0x2078 PUSH2 0x2FF2 JUMP JUMPDEST JUMPDEST MUL OR SWAP1 SSTORE POP PUSH2 0x2086 PUSH2 0x2476 JUMP JUMPDEST PUSH2 0x208E PUSH2 0x5E0 JUMP JUMPDEST PUSH2 0x211D JUMP JUMPDEST PUSH1 0x15 DUP2 GT ISZERO PUSH2 0x2113 JUMPI PUSH1 0x4 DUP1 PUSH1 0x0 CALLER PUSH20 0xFFFFFFFFFFFFFFFFFFFFFFFFFFFFFFFFFFFFFFFF AND PUSH20 0xFFFFFFFFFFFFFFFFFFFFFFFFFFFFFFFFFFFFFFFF AND DUP2 MSTORE PUSH1 0x20 ADD SWAP1 DUP2 MSTORE PUSH1 0x20 ADD PUSH1 0x0 KECCAK256 PUSH1 0x6 ADD PUSH1 0x1 PUSH2 0x100 EXP DUP2 SLOAD DUP2 PUSH1 0xFF MUL NOT AND SWAP1 DUP4 PUSH1 0x5 DUP2 GT ISZERO PUSH2 0x2101 JUMPI PUSH2 0x2100 PUSH2 0x2FF2 JUMP JUMPDEST JUMPDEST MUL OR SWAP1 SSTORE POP PUSH2 0x210E PUSH2 0x5E0 JUMP JUMPDEST PUSH2 0x211C JUMP JUMPDEST PUSH2 0x211B PUSH2 0x1471 JUMP JUMPDEST JUMPDEST JUMPDEST POP POP POP POP JUMP JUMPDEST PUSH1 0x0 PUSH2 0x21E4 PUSH1 0x4 PUSH1 0x0 CALLER PUSH20 0xFFFFFFFFFFFFFFFFFFFFFFFFFFFFFFFFFFFFFFFF AND PUSH20 0xFFFFFFFFFFFFFFFFFFFFFFFFFFFFFFFFFFFFFFFF AND DUP2 MSTORE PUSH1 0x20 ADD SWAP1 DUP2 MSTORE PUSH1 0x20 ADD PUSH1 0x0 KECCAK256 PUSH1 0x3 ADD DUP1 SLOAD DUP1 PUSH1 0x20 MUL PUSH1 0x20 ADD PUSH1 0x40 MLOAD SWAP1 DUP2 ADD PUSH1 0x40 MSTORE DUP1 SWAP3 SWAP2 SWAP1 DUP2 DUP2 MSTORE PUSH1 0x20 ADD DUP3 DUP1 SLOAD DUP1 ISZERO PUSH2 0x21DA JUMPI PUSH1 0x20 MUL DUP3 ADD SWAP2 SWAP1 PUSH1 0x0 MSTORE PUSH1 0x20 PUSH1 0x0 KECCAK256 SWAP1 PUSH1 0x0 SWAP1 JUMPDEST DUP3 DUP3 SWAP1 SLOAD SWAP1 PUSH2 0x100 EXP SWAP1 DIV PUSH1 0xFF AND PUSH1 0xFF AND DUP2 MSTORE PUSH1 0x20 ADD SWAP1 PUSH1 0x1 ADD SWAP1 PUSH1 0x20 DUP3 PUSH1 0x0 ADD DIV SWAP3 DUP4 ADD SWAP3 PUSH1 0x1 SUB DUP3 MUL SWAP2 POP DUP1 DUP5 GT PUSH2 0x21A3 JUMPI SWAP1 POP JUMPDEST POP POP POP POP POP PUSH2 0x1152 JUMP JUMPDEST SWAP1 POP SWAP1 JUMP JUMPDEST PUSH1 0x1 PUSH1 0x0 SWAP1 SLOAD SWAP1 PUSH2 0x100 EXP SWAP1 DIV PUSH20 0xFFFFFFFFFFFFFFFFFFFFFFFFFFFFFFFFFFFFFFFF AND DUP2 JUMP JUMPDEST PUSH1 0x0 PUSH2 0x22D0 PUSH1 0x4 PUSH1 0x0 CALLER PUSH20 0xFFFFFFFFFFFFFFFFFFFFFFFFFFFFFFFFFFFFFFFF AND PUSH20 0xFFFFFFFFFFFFFFFFFFFFFFFFFFFFFFFFFFFFFFFF AND DUP2 MSTORE PUSH1 0x20 ADD SWAP1 DUP2 MSTORE PUSH1 0x20 ADD PUSH1 0x0 KECCAK256 PUSH1 0x2 ADD DUP1 SLOAD DUP1 PUSH1 0x20 MUL PUSH1 0x20 ADD PUSH1 0x40 MLOAD SWAP1 DUP2 ADD PUSH1 0x40 MSTORE DUP1 SWAP3 SWAP2 SWAP1 DUP2 DUP2 MSTORE PUSH1 0x20 ADD DUP3 DUP1 SLOAD DUP1 ISZERO PUSH2 0x22C6 JUMPI PUSH1 0x20 MUL DUP3 ADD SWAP2 SWAP1 PUSH1 0x0 MSTORE PUSH1 0x20 PUSH1 0x0 KECCAK256 SWAP1 PUSH1 0x0 SWAP1 JUMPDEST DUP3 DUP3 SWAP1 SLOAD SWAP1 PUSH2 0x100 EXP SWAP1 DIV PUSH1 0xFF AND PUSH1 0xFF AND DUP2 MSTORE PUSH1 0x20 ADD SWAP1 PUSH1 0x1 ADD SWAP1 PUSH1 0x20 DUP3 PUSH1 0x0 ADD DIV SWAP3 DUP4 ADD SWAP3 PUSH1 0x1 SUB DUP3 MUL SWAP2 POP DUP1 DUP5 GT PUSH2 0x228F JUMPI SWAP1 POP JUMPDEST POP POP POP POP POP PUSH2 0x1152 JUMP JUMPDEST SWAP1 POP SWAP1 JUMP JUMPDEST PUSH1 0x0 DUP1 PUSH1 0x4 PUSH1 0x0 CALLER PUSH20 0xFFFFFFFFFFFFFFFFFFFFFFFFFFFFFFFFFFFFFFFF AND PUSH20 0xFFFFFFFFFFFFFFFFFFFFFFFFFFFFFFFFFFFFFFFF AND DUP2 MSTORE PUSH1 0x20 ADD SWAP1 DUP2 MSTORE PUSH1 0x20 ADD PUSH1 0x0 KECCAK256 SWAP1 POP PUSH1 0x0 DUP2 PUSH1 0x6 ADD PUSH1 0x0 SWAP1 SLOAD SWAP1 PUSH2 0x100 EXP SWAP1 DIV PUSH1 0xFF AND PUSH1 0x34 PUSH2 0x2339 SWAP2 SWAP1 PUSH2 0x42ED JUMP JUMPDEST PUSH1 0xFF AND TIMESTAMP CALLER DUP5 PUSH1 0x6 ADD PUSH1 0x0 SWAP1 SLOAD SWAP1 PUSH2 0x100 EXP SWAP1 DIV PUSH1 0xFF AND PUSH1 0x40 MLOAD PUSH1 0x20 ADD PUSH2 0x2362 SWAP4 SWAP3 SWAP2 SWAP1 PUSH2 0x45AE JUMP JUMPDEST PUSH1 0x40 MLOAD PUSH1 0x20 DUP2 DUP4 SUB SUB DUP2 MSTORE SWAP1 PUSH1 0x40 MSTORE DUP1 MLOAD SWAP1 PUSH1 0x20 ADD KECCAK256 PUSH1 0x0 SHR PUSH2 0x2385 SWAP2 SWAP1 PUSH2 0x45EB JUMP JUMPDEST SWAP1 POP DUP2 PUSH1 0x4 ADD DUP2 PUSH1 0x34 DUP2 LT PUSH2 0x239D JUMPI PUSH2 0x239C PUSH2 0x4200 JUMP JUMPDEST JUMPDEST PUSH1 0x20 SWAP2 DUP3 DUP3 DIV ADD SWAP2 SWAP1 MOD SWAP1 SLOAD SWAP1 PUSH2 0x100 EXP SWAP1 DIV PUSH1 0xFF AND SWAP3 POP DUP2 PUSH1 0x4 ADD DUP3 PUSH1 0x6 ADD PUSH1 0x0 SWAP1 SLOAD SWAP1 PUSH2 0x100 EXP SWAP1 DIV PUSH1 0xFF AND PUSH1 0x33 PUSH2 0x23D7 SWAP2 SWAP1 PUSH2 0x42ED JUMP JUMPDEST PUSH1 0xFF AND PUSH1 0x34 DUP2 LT PUSH2 0x23EB JUMPI PUSH2 0x23EA PUSH2 0x4200 JUMP JUMPDEST JUMPDEST PUSH1 0x20 SWAP2 DUP3 DUP3 DIV ADD SWAP2 SWAP1 MOD SWAP1 SLOAD SWAP1 PUSH2 0x100 EXP SWAP1 DIV PUSH1 0xFF AND DUP3 PUSH1 0x4 ADD DUP3 PUSH1 0x34 DUP2 LT PUSH2 0x2417 JUMPI PUSH2 0x2416 PUSH2 0x4200 JUMP JUMPDEST JUMPDEST PUSH1 0x20 SWAP2 DUP3 DUP3 DIV ADD SWAP2 SWAP1 MOD PUSH2 0x100 EXP DUP2 SLOAD DUP2 PUSH1 0xFF MUL NOT AND SWAP1 DUP4 PUSH1 0xFF AND MUL OR SWAP1 SSTORE POP DUP2 PUSH1 0x6 ADD PUSH1 0x0 DUP2 DUP2 SWAP1 SLOAD SWAP1 PUSH2 0x100 EXP SWAP1 DIV PUSH1 0xFF AND DUP1 SWAP3 SWAP2 SWAP1 PUSH2 0x2458 SWAP1 PUSH2 0x428F JUMP JUMPDEST SWAP2 SWAP1 PUSH2 0x100 EXP DUP2 SLOAD DUP2 PUSH1 0xFF MUL NOT AND SWAP1 DUP4 PUSH1 0xFF AND MUL OR SWAP1 SSTORE POP POP POP POP SWAP1 JUMP JUMPDEST PUSH1 0x0 PUSH1 0x4 PUSH1 0x0 CALLER PUSH20 0xFFFFFFFFFFFFFFFFFFFFFFFFFFFFFFFFFFFFFFFF AND PUSH20 0xFFFFFFFFFFFFFFFFFFFFFFFFFFFFFFFFFFFFFFFF AND DUP2 MSTORE PUSH1 0x20 ADD SWAP1 DUP2 MSTORE PUSH1 0x20 ADD PUSH1 0x0 KECCAK256 PUSH1 0x40 MLOAD DUP1 PUSH1 0xE0 ADD PUSH1 0x40 MSTORE SWAP1 DUP2 PUSH1 0x0 DUP3 ADD SLOAD DUP2 MSTORE PUSH1 0x20 ADD PUSH1 0x1 DUP3 ADD SLOAD DUP2 MSTORE PUSH1 0x20 ADD PUSH1 0x2 DUP3 ADD DUP1 SLOAD DUP1 PUSH1 0x20 MUL PUSH1 0x20 ADD PUSH1 0x40 MLOAD SWAP1 DUP2 ADD PUSH1 0x40 MSTORE DUP1 SWAP3 SWAP2 SWAP1 DUP2 DUP2 MSTORE PUSH1 0x20 ADD DUP3 DUP1 SLOAD DUP1 ISZERO PUSH2 0x254B JUMPI PUSH1 0x20 MUL DUP3 ADD SWAP2 SWAP1 PUSH1 0x0 MSTORE PUSH1 0x20 PUSH1 0x0 KECCAK256 SWAP1 PUSH1 0x0 SWAP1 JUMPDEST DUP3 DUP3 SWAP1 SLOAD SWAP1 PUSH2 0x100 EXP SWAP1 DIV PUSH1 0xFF AND PUSH1 0xFF AND DUP2 MSTORE PUSH1 0x20 ADD SWAP1 PUSH1 0x1 ADD SWAP1 PUSH1 0x20 DUP3 PUSH1 0x0 ADD DIV SWAP3 DUP4 ADD SWAP3 PUSH1 0x1 SUB DUP3 MUL SWAP2 POP DUP1 DUP5 GT PUSH2 0x2514 JUMPI SWAP1 POP JUMPDEST POP POP POP POP POP DUP2 MSTORE PUSH1 0x20 ADD PUSH1 0x3 DUP3 ADD DUP1 SLOAD DUP1 PUSH1 0x20 MUL PUSH1 0x20 ADD PUSH1 0x40 MLOAD SWAP1 DUP2 ADD PUSH1 0x40 MSTORE DUP1 SWAP3 SWAP2 SWAP1 DUP2 DUP2 MSTORE PUSH1 0x20 ADD DUP3 DUP1 SLOAD DUP1 ISZERO PUSH2 0x25C9 JUMPI PUSH1 0x20 MUL DUP3 ADD SWAP2 SWAP1 PUSH1 0x0 MSTORE PUSH1 0x20 PUSH1 0x0 KECCAK256 SWAP1 PUSH1 0x0 SWAP1 JUMPDEST DUP3 DUP3 SWAP1 SLOAD SWAP1 PUSH2 0x100 EXP SWAP1 DIV PUSH1 0xFF AND PUSH1 0xFF AND DUP2 MSTORE PUSH1 0x20 ADD SWAP1 PUSH1 0x1 ADD SWAP1 PUSH1 0x20 DUP3 PUSH1 0x0 ADD DIV SWAP3 DUP4 ADD SWAP3 PUSH1 0x1 SUB DUP3 MUL SWAP2 POP DUP1 DUP5 GT PUSH2 0x2592 JUMPI SWAP1 POP JUMPDEST POP POP POP POP POP DUP2 MSTORE PUSH1 0x20 ADD PUSH1 0x4 DUP3 ADD PUSH1 0x34 DUP1 PUSH1 0x20 MUL PUSH1 0x40 MLOAD SWAP1 DUP2 ADD PUSH1 0x40 MSTORE DUP1 SWAP3 SWAP2 SWAP1 DUP3 PUSH1 0x34 DUP1 ISZERO PUSH2 0x2634 JUMPI PUSH1 0x20 MUL DUP3 ADD SWAP2 PUSH1 0x0 SWAP1 JUMPDEST DUP3 DUP3 SWAP1 SLOAD SWAP1 PUSH2 0x100 EXP SWAP1 DIV PUSH1 0xFF AND PUSH1 0xFF AND DUP2 MSTORE PUSH1 0x20 ADD SWAP1 PUSH1 0x1 ADD SWAP1 PUSH1 0x20 DUP3 PUSH1 0x0 ADD DIV SWAP3 DUP4 ADD SWAP3 PUSH1 0x1 SUB DUP3 MUL SWAP2 POP DUP1 DUP5 GT PUSH2 0x25FD JUMPI SWAP1 POP JUMPDEST POP POP POP POP POP DUP2 MSTORE PUSH1 0x20 ADD PUSH1 0x6 DUP3 ADD PUSH1 0x0 SWAP1 SLOAD SWAP1 PUSH2 0x100 EXP SWAP1 DIV PUSH1 0xFF AND PUSH1 0xFF AND PUSH1 0xFF AND DUP2 MSTORE PUSH1 0x20 ADD PUSH1 0x6 DUP3 ADD PUSH1 0x1 SWAP1 SLOAD SWAP1 PUSH2 0x100 EXP SWAP1 DIV PUSH1 0xFF AND PUSH1 0x5 DUP2 GT ISZERO PUSH2 0x267F JUMPI PUSH2 0x267E PUSH2 0x2FF2 JUMP JUMPDEST JUMPDEST PUSH1 0x5 DUP2 GT ISZERO PUSH2 0x2691 JUMPI PUSH2 0x2690 PUSH2 0x2FF2 JUMP JUMPDEST JUMPDEST DUP2 MSTORE POP POP SWAP1 POP PUSH1 0x1 PUSH1 0x0 SWAP1 SLOAD SWAP1 PUSH2 0x100 EXP SWAP1 DIV PUSH20 0xFFFFFFFFFFFFFFFFFFFFFFFFFFFFFFFFFFFFFFFF AND PUSH20 0xFFFFFFFFFFFFFFFFFFFFFFFFFFFFFFFFFFFFFFFF AND PUSH4 0xEB39327A CALLER PUSH1 0x2 DUP5 PUSH1 0x20 ADD MLOAD PUSH2 0x26E7 SWAP2 SWAP1 PUSH2 0x407B JUMP JUMPDEST PUSH1 0x40 MLOAD DUP4 PUSH4 0xFFFFFFFF AND PUSH1 0xE0 SHL DUP2 MSTORE PUSH1 0x4 ADD PUSH2 0x2704 SWAP3 SWAP2 SWAP1 PUSH2 0x41D7 JUMP JUMPDEST PUSH1 0x0 PUSH1 0x40 MLOAD DUP1 DUP4 SUB DUP2 PUSH1 0x0 DUP8 DUP1 EXTCODESIZE ISZERO DUP1 ISZERO PUSH2 0x271E JUMPI PUSH1 0x0 DUP1 REVERT JUMPDEST POP GAS CALL ISZERO DUP1 ISZERO PUSH2 0x2732 JUMPI RETURNDATASIZE PUSH1 0x0 DUP1 RETURNDATACOPY RETURNDATASIZE PUSH1 0x0 REVERT JUMPDEST POP POP POP POP POP JUMP JUMPDEST PUSH1 0x0 PUSH1 0x4 PUSH1 0x0 CALLER PUSH20 0xFFFFFFFFFFFFFFFFFFFFFFFFFFFFFFFFFFFFFFFF AND PUSH20 0xFFFFFFFFFFFFFFFFFFFFFFFFFFFFFFFFFFFFFFFF AND DUP2 MSTORE PUSH1 0x20 ADD SWAP1 DUP2 MSTORE PUSH1 0x20 ADD PUSH1 0x0 KECCAK256 PUSH1 0x40 MLOAD DUP1 PUSH1 0xE0 ADD PUSH1 0x40 MSTORE SWAP1 DUP2 PUSH1 0x0 DUP3 ADD SLOAD DUP2 MSTORE PUSH1 0x20 ADD PUSH1 0x1 DUP3 ADD SLOAD DUP2 MSTORE PUSH1 0x20 ADD PUSH1 0x2 DUP3 ADD DUP1 SLOAD DUP1 PUSH1 0x20 MUL PUSH1 0x20 ADD PUSH1 0x40 MLOAD SWAP1 DUP2 ADD PUSH1 0x40 MSTORE DUP1 SWAP3 SWAP2 SWAP1 DUP2 DUP2 MSTORE PUSH1 0x20 ADD DUP3 DUP1 SLOAD DUP1 ISZERO PUSH2 0x280E JUMPI PUSH1 0x20 MUL DUP3 ADD SWAP2 SWAP1 PUSH1 0x0 MSTORE PUSH1 0x20 PUSH1 0x0 KECCAK256 SWAP1 PUSH1 0x0 SWAP1 JUMPDEST DUP3 DUP3 SWAP1 SLOAD SWAP1 PUSH2 0x100 EXP SWAP1 DIV PUSH1 0xFF AND PUSH1 0xFF AND DUP2 MSTORE PUSH1 0x20 ADD SWAP1 PUSH1 0x1 ADD SWAP1 PUSH1 0x20 DUP3 PUSH1 0x0 ADD DIV SWAP3 DUP4 ADD SWAP3 PUSH1 0x1 SUB DUP3 MUL SWAP2 POP DUP1 DUP5 GT PUSH2 0x27D7 JUMPI SWAP1 POP JUMPDEST POP POP POP POP POP DUP2 MSTORE PUSH1 0x20 ADD PUSH1 0x3 DUP3 ADD DUP1 SLOAD DUP1 PUSH1 0x20 MUL PUSH1 0x20 ADD PUSH1 0x40 MLOAD SWAP1 DUP2 ADD PUSH1 0x40 MSTORE DUP1 SWAP3 SWAP2 SWAP1 DUP2 DUP2 MSTORE PUSH1 0x20 ADD DUP3 DUP1 SLOAD DUP1 ISZERO PUSH2 0x288C JUMPI PUSH1 0x20 MUL DUP3 ADD SWAP2 SWAP1 PUSH1 0x0 MSTORE PUSH1 0x20 PUSH1 0x0 KECCAK256 SWAP1 PUSH1 0x0 SWAP1 JUMPDEST DUP3 DUP3 SWAP1 SLOAD SWAP1 PUSH2 0x100 EXP SWAP1 DIV PUSH1 0xFF AND PUSH1 0xFF AND DUP2 MSTORE PUSH1 0x20 ADD SWAP1 PUSH1 0x1 ADD SWAP1 PUSH1 0x20 DUP3 PUSH1 0x0 ADD DIV SWAP3 DUP4 ADD SWAP3 PUSH1 0x1 SUB DUP3 MUL SWAP2 POP DUP1 DUP5 GT PUSH2 0x2855 JUMPI SWAP1 POP JUMPDEST POP POP POP POP POP DUP2 MSTORE PUSH1 0x20 ADD PUSH1 0x4 DUP3 ADD PUSH1 0x34 DUP1 PUSH1 0x20 MUL PUSH1 0x40 MLOAD SWAP1 DUP2 ADD PUSH1 0x40 MSTORE DUP1 SWAP3 SWAP2 SWAP1 DUP3 PUSH1 0x34 DUP1 ISZERO PUSH2 0x28F7 JUMPI PUSH1 0x20 MUL DUP3 ADD SWAP2 PUSH1 0x0 SWAP1 JUMPDEST DUP3 DUP3 SWAP1 SLOAD SWAP1 PUSH2 0x100 EXP SWAP1 DIV PUSH1 0xFF AND PUSH1 0xFF AND DUP2 MSTORE PUSH1 0x20 ADD SWAP1 PUSH1 0x1 ADD SWAP1 PUSH1 0x20 DUP3 PUSH1 0x0 ADD DIV SWAP3 DUP4 ADD SWAP3 PUSH1 0x1 SUB DUP3 MUL SWAP2 POP DUP1 DUP5 GT PUSH2 0x28C0 JUMPI SWAP1 POP JUMPDEST POP POP POP POP POP DUP2 MSTORE PUSH1 0x20 ADD PUSH1 0x6 DUP3 ADD PUSH1 0x0 SWAP1 SLOAD SWAP1 PUSH2 0x100 EXP SWAP1 DIV PUSH1 0xFF AND PUSH1 0xFF AND PUSH1 0xFF AND DUP2 MSTORE PUSH1 0x20 ADD PUSH1 0x6 DUP3 ADD PUSH1 0x1 SWAP1 SLOAD SWAP1 PUSH2 0x100 EXP SWAP1 DIV PUSH1 0xFF AND PUSH1 0x5 DUP2 GT ISZERO PUSH2 0x2942 JUMPI PUSH2 0x2941 PUSH2 0x2FF2 JUMP JUMPDEST JUMPDEST PUSH1 0x5 DUP2 GT ISZERO PUSH2 0x2954 JUMPI PUSH2 0x2953 PUSH2 0x2FF2 JUMP JUMPDEST JUMPDEST DUP2 MSTORE POP POP SWAP1 POP PUSH1 0x1 PUSH1 0x0 SWAP1 SLOAD SWAP1 PUSH2 0x100 EXP SWAP1 DIV PUSH20 0xFFFFFFFFFFFFFFFFFFFFFFFFFFFFFFFFFFFFFFFF AND PUSH20 0xFFFFFFFFFFFFFFFFFFFFFFFFFFFFFFFFFFFFFFFF AND PUSH4 0xEB39327A CALLER DUP4 PUSH1 0x20 ADD MLOAD PUSH1 0x40 MLOAD DUP4 PUSH4 0xFFFFFFFF AND PUSH1 0xE0 SHL DUP2 MSTORE PUSH1 0x4 ADD PUSH2 0x29BB SWAP3 SWAP2 SWAP1 PUSH2 0x41D7 JUMP JUMPDEST PUSH1 0x0 PUSH1 0x40 MLOAD DUP1 DUP4 SUB DUP2 PUSH1 0x0 DUP8 DUP1 EXTCODESIZE ISZERO DUP1 ISZERO PUSH2 0x29D5 JUMPI PUSH1 0x0 DUP1 REVERT JUMPDEST POP GAS CALL ISZERO DUP1 ISZERO PUSH2 0x29E9 JUMPI RETURNDATASIZE PUSH1 0x0 DUP1 RETURNDATACOPY RETURNDATASIZE PUSH1 0x0 REVERT JUMPDEST POP POP POP POP POP JUMP JUMPDEST DUP3 DUP1 SLOAD DUP3 DUP3 SSTORE SWAP1 PUSH1 0x0 MSTORE PUSH1 0x20 PUSH1 0x0 KECCAK256 SWAP1 PUSH1 0x1F ADD PUSH1 0x20 SWAP1 DIV DUP2 ADD SWAP3 DUP3 ISZERO PUSH2 0x2A86 JUMPI SWAP2 PUSH1 0x20 MUL DUP3 ADD PUSH1 0x0 JUMPDEST DUP4 DUP3 GT ISZERO PUSH2 0x2A57 JUMPI DUP4 MLOAD DUP4 DUP3 PUSH2 0x100 EXP DUP2 SLOAD DUP2 PUSH1 0xFF MUL NOT AND SWAP1 DUP4 PUSH1 0xFF AND MUL OR SWAP1 SSTORE POP SWAP3 PUSH1 0x20 ADD SWAP3 PUSH1 0x1 ADD PUSH1 0x20 DUP2 PUSH1 0x0 ADD DIV SWAP3 DUP4 ADD SWAP3 PUSH1 0x1 SUB MUL PUSH2 0x2A19 JUMP JUMPDEST DUP1 ISZERO PUSH2 0x2A84 JUMPI DUP3 DUP2 PUSH2 0x100 EXP DUP2 SLOAD SWAP1 PUSH1 0xFF MUL NOT AND SWAP1 SSTORE PUSH1 0x1 ADD PUSH1 0x20 DUP2 PUSH1 0x0 ADD DIV SWAP3 DUP4 ADD SWAP3 PUSH1 0x1 SUB MUL PUSH2 0x2A57 JUMP JUMPDEST POP JUMPDEST POP SWAP1 POP PUSH2 0x2A93 SWAP2 SWAP1 PUSH2 0x2B89 JUMP JUMPDEST POP SWAP1 JUMP JUMPDEST DUP3 PUSH1 0x34 PUSH1 0x1F ADD PUSH1 0x20 SWAP1 DIV DUP2 ADD SWAP3 DUP3 ISZERO PUSH2 0x2B20 JUMPI SWAP2 PUSH1 0x20 MUL DUP3 ADD PUSH1 0x0 JUMPDEST DUP4 DUP3 GT ISZERO PUSH2 0x2AF1 JUMPI DUP4 MLOAD DUP4 DUP3 PUSH2 0x100 EXP DUP2 SLOAD DUP2 PUSH1 0xFF MUL NOT AND SWAP1 DUP4 PUSH1 0xFF AND MUL OR SWAP1 SSTORE POP SWAP3 PUSH1 0x20 ADD SWAP3 PUSH1 0x1 ADD PUSH1 0x20 DUP2 PUSH1 0x0 ADD DIV SWAP3 DUP4 ADD SWAP3 PUSH1 0x1 SUB MUL PUSH2 0x2AB3 JUMP JUMPDEST DUP1 ISZERO PUSH2 0x2B1E JUMPI DUP3 DUP2 PUSH2 0x100 EXP DUP2 SLOAD SWAP1 PUSH1 0xFF MUL NOT AND SWAP1 SSTORE PUSH1 0x1 ADD PUSH1 0x20 DUP2 PUSH1 0x0 ADD DIV SWAP3 DUP4 ADD SWAP3 PUSH1 0x1 SUB MUL PUSH2 0x2AF1 JUMP JUMPDEST POP JUMPDEST POP SWAP1 POP PUSH2 0x2B2D SWAP2 SWAP1 PUSH2 0x2B89 JUMP JUMPDEST POP SWAP1 JUMP JUMPDEST PUSH1 0x40 MLOAD DUP1 PUSH1 0xE0 ADD PUSH1 0x40 MSTORE DUP1 PUSH1 0x0 DUP2 MSTORE PUSH1 0x20 ADD PUSH1 0x0 DUP2 MSTORE PUSH1 0x20 ADD PUSH1 0x60 DUP2 MSTORE PUSH1 0x20 ADD PUSH1 0x60 DUP2 MSTORE PUSH1 0x20 ADD PUSH2 0x2B60 PUSH2 0x2BA6 JUMP JUMPDEST DUP2 MSTORE PUSH1 0x20 ADD PUSH1 0x0 PUSH1 0xFF AND DUP2 MSTORE PUSH1 0x20 ADD PUSH1 0x0 PUSH1 0x5 DUP2 GT ISZERO PUSH2 0x2B83 JUMPI PUSH2 0x2B82 PUSH2 0x2FF2 JUMP JUMPDEST JUMPDEST DUP2 MSTORE POP SWAP1 JUMP JUMPDEST JUMPDEST DUP1 DUP3 GT ISZERO PUSH2 0x2BA2 JUMPI PUSH1 0x0 DUP2 PUSH1 0x0 SWAP1 SSTORE POP PUSH1 0x1 ADD PUSH2 0x2B8A JUMP JUMPDEST POP SWAP1 JUMP JUMPDEST PUSH1 0x40 MLOAD DUP1 PUSH2 0x680 ADD PUSH1 0x40 MSTORE DUP1 PUSH1 0x34 SWAP1 PUSH1 0x20 DUP3 MUL DUP1 CALLDATASIZE DUP4 CALLDATACOPY DUP1 DUP3 ADD SWAP2 POP POP SWAP1 POP POP SWAP1 JUMP JUMPDEST PUSH1 0x0 PUSH1 0x40 MLOAD SWAP1 POP SWAP1 JUMP JUMPDEST PUSH1 0x0 DUP1 REVERT JUMPDEST PUSH1 0x0 DUP1 REVERT JUMPDEST PUSH1 0x0 DUP2 SWAP1 POP SWAP2 SWAP1 POP JUMP JUMPDEST PUSH2 0x2BF0 DUP2 PUSH2 0x2BDD JUMP JUMPDEST DUP2 EQ PUSH2 0x2BFB JUMPI PUSH1 0x0 DUP1 REVERT JUMPDEST POP JUMP JUMPDEST PUSH1 0x0 DUP2 CALLDATALOAD SWAP1 POP PUSH2 0x2C0D DUP2 PUSH2 0x2BE7 JUMP JUMPDEST SWAP3 SWAP2 POP POP JUMP JUMPDEST PUSH1 0x0 PUSH1 0x20 DUP3 DUP5 SUB SLT ISZERO PUSH2 0x2C29 JUMPI PUSH2 0x2C28 PUSH2 0x2BD3 JUMP JUMPDEST JUMPDEST PUSH1 0x0 PUSH2 0x2C37 DUP5 DUP3 DUP6 ADD PUSH2 0x2BFE JUMP JUMPDEST SWAP2 POP POP SWAP3 SWAP2 POP POP JUMP JUMPDEST PUSH1 0x0 PUSH20 0xFFFFFFFFFFFFFFFFFFFFFFFFFFFFFFFFFFFFFFFF DUP3 AND SWAP1 POP SWAP2 SWAP1 POP JUMP JUMPDEST PUSH1 0x0 PUSH2 0x2C6B DUP3 PUSH2 0x2C40 JUMP JUMPDEST SWAP1 POP SWAP2 SWAP1 POP JUMP JUMPDEST PUSH2 0x2C7B DUP2 PUSH2 0x2C60 JUMP JUMPDEST DUP3 MSTORE POP POP JUMP JUMPDEST PUSH1 0x0 PUSH1 0x20 DUP3 ADD SWAP1 POP PUSH2 0x2C96 PUSH1 0x0 DUP4 ADD DUP5 PUSH2 0x2C72 JUMP JUMPDEST SWAP3 SWAP2 POP POP JUMP JUMPDEST PUSH1 0x0 DUP1 REVERT JUMPDEST PUSH1 0x0 PUSH1 0x1F NOT PUSH1 0x1F DUP4 ADD AND SWAP1 POP SWAP2 SWAP1 POP JUMP JUMPDEST PUSH32 0x4E487B7100000000000000000000000000000000000000000000000000000000 PUSH1 0x0 MSTORE PUSH1 0x41 PUSH1 0x4 MSTORE PUSH1 0x24 PUSH1 0x0 REVERT JUMPDEST PUSH2 0x2CEA DUP3 PUSH2 0x2CA1 JUMP JUMPDEST DUP2 ADD DUP2 DUP2 LT PUSH8 0xFFFFFFFFFFFFFFFF DUP3 GT OR ISZERO PUSH2 0x2D09 JUMPI PUSH2 0x2D08 PUSH2 0x2CB2 JUMP JUMPDEST JUMPDEST DUP1 PUSH1 0x40 MSTORE POP POP POP JUMP JUMPDEST PUSH1 0x0 PUSH2 0x2D1C PUSH2 0x2BC9 JUMP JUMPDEST SWAP1 POP PUSH2 0x2D28 DUP3 DUP3 PUSH2 0x2CE1 JUMP JUMPDEST SWAP2 SWAP1 POP JUMP JUMPDEST PUSH1 0x0 PUSH8 0xFFFFFFFFFFFFFFFF DUP3 GT ISZERO PUSH2 0x2D48 JUMPI PUSH2 0x2D47 PUSH2 0x2CB2 JUMP JUMPDEST JUMPDEST PUSH1 0x20 DUP3 MUL SWAP1 POP PUSH1 0x20 DUP2 ADD SWAP1 POP SWAP2 SWAP1 POP JUMP JUMPDEST PUSH1 0x0 DUP1 REVERT JUMPDEST PUSH1 0x0 PUSH1 0xFF DUP3 AND SWAP1 POP SWAP2 SWAP1 POP JUMP JUMPDEST PUSH2 0x2D74 DUP2 PUSH2 0x2D5E JUMP JUMPDEST DUP2 EQ PUSH2 0x2D7F JUMPI PUSH1 0x0 DUP1 REVERT JUMPDEST POP JUMP JUMPDEST PUSH1 0x0 DUP2 CALLDATALOAD SWAP1 POP PUSH2 0x2D91 DUP2 PUSH2 0x2D6B JUMP JUMPDEST SWAP3 SWAP2 POP POP JUMP JUMPDEST PUSH1 0x0 PUSH2 0x2DAA PUSH2 0x2DA5 DUP5 PUSH2 0x2D2D JUMP JUMPDEST PUSH2 0x2D12 JUMP JUMPDEST SWAP1 POP DUP1 DUP4 DUP3 MSTORE PUSH1 0x20 DUP3 ADD SWAP1 POP PUSH1 0x20 DUP5 MUL DUP4 ADD DUP6 DUP2 GT ISZERO PUSH2 0x2DCD JUMPI PUSH2 0x2DCC PUSH2 0x2D59 JUMP JUMPDEST JUMPDEST DUP4 JUMPDEST DUP2 DUP2 LT ISZERO PUSH2 0x2DF6 JUMPI DUP1 PUSH2 0x2DE2 DUP9 DUP3 PUSH2 0x2D82 JUMP JUMPDEST DUP5 MSTORE PUSH1 0x20 DUP5 ADD SWAP4 POP POP PUSH1 0x20 DUP2 ADD SWAP1 POP PUSH2 0x2DCF JUMP JUMPDEST POP POP POP SWAP4 SWAP3 POP POP POP JUMP JUMPDEST PUSH1 0x0 DUP3 PUSH1 0x1F DUP4 ADD SLT PUSH2 0x2E15 JUMPI PUSH2 0x2E14 PUSH2 0x2C9C JUMP JUMPDEST JUMPDEST DUP2 CALLDATALOAD PUSH2 0x2E25 DUP5 DUP3 PUSH1 0x20 DUP7 ADD PUSH2 0x2D97 JUMP JUMPDEST SWAP2 POP POP SWAP3 SWAP2 POP POP JUMP JUMPDEST PUSH1 0x0 PUSH1 0x20 DUP3 DUP5 SUB SLT ISZERO PUSH2 0x2E44 JUMPI PUSH2 0x2E43 PUSH2 0x2BD3 JUMP JUMPDEST JUMPDEST PUSH1 0x0 DUP3 ADD CALLDATALOAD PUSH8 0xFFFFFFFFFFFFFFFF DUP2 GT ISZERO PUSH2 0x2E62 JUMPI PUSH2 0x2E61 PUSH2 0x2BD8 JUMP JUMPDEST JUMPDEST PUSH2 0x2E6E DUP5 DUP3 DUP6 ADD PUSH2 0x2E00 JUMP JUMPDEST SWAP2 POP POP SWAP3 SWAP2 POP POP JUMP JUMPDEST PUSH2 0x2E80 DUP2 PUSH2 0x2D5E JUMP JUMPDEST DUP3 MSTORE POP POP JUMP JUMPDEST PUSH1 0x0 PUSH1 0x20 DUP3 ADD SWAP1 POP PUSH2 0x2E9B PUSH1 0x0 DUP4 ADD DUP5 PUSH2 0x2E77 JUMP JUMPDEST SWAP3 SWAP2 POP POP JUMP JUMPDEST PUSH2 0x2EAA DUP2 PUSH2 0x2BDD JUMP JUMPDEST DUP3 MSTORE POP POP JUMP JUMPDEST PUSH1 0x0 DUP2 MLOAD SWAP1 POP SWAP2 SWAP1 POP JUMP JUMPDEST PUSH1 0x0 DUP3 DUP3 MSTORE PUSH1 0x20 DUP3 ADD SWAP1 POP SWAP3 SWAP2 POP POP JUMP JUMPDEST PUSH1 0x0 DUP2 SWAP1 POP PUSH1 0x20 DUP3 ADD SWAP1 POP SWAP2 SWAP1 POP JUMP JUMPDEST PUSH2 0x2EE5 DUP2 PUSH2 0x2D5E JUMP JUMPDEST DUP3 MSTORE POP POP JUMP JUMPDEST PUSH1 0x0 PUSH2 0x2EF7 DUP4 DUP4 PUSH2 0x2EDC JUMP JUMPDEST PUSH1 0x20 DUP4 ADD SWAP1 POP SWAP3 SWAP2 POP POP JUMP JUMPDEST PUSH1 0x0 PUSH1 0x20 DUP3 ADD SWAP1 POP SWAP2 SWAP1 POP JUMP JUMPDEST PUSH1 0x0 PUSH2 0x2F1B DUP3 PUSH2 0x2EB0 JUMP JUMPDEST PUSH2 0x2F25 DUP2 DUP6 PUSH2 0x2EBB JUMP JUMPDEST SWAP4 POP PUSH2 0x2F30 DUP4 PUSH2 0x2ECC JUMP JUMPDEST DUP1 PUSH1 0x0 JUMPDEST DUP4 DUP2 LT ISZERO PUSH2 0x2F61 JUMPI DUP2 MLOAD PUSH2 0x2F48 DUP9 DUP3 PUSH2 0x2EEB JUMP JUMPDEST SWAP8 POP PUSH2 0x2F53 DUP4 PUSH2 0x2F03 JUMP JUMPDEST SWAP3 POP POP PUSH1 0x1 DUP2 ADD SWAP1 POP PUSH2 0x2F34 JUMP JUMPDEST POP DUP6 SWAP4 POP POP POP POP SWAP3 SWAP2 POP POP JUMP JUMPDEST PUSH1 0x0 PUSH1 0x34 SWAP1 POP SWAP2 SWAP1 POP JUMP JUMPDEST PUSH1 0x0 DUP2 SWAP1 POP SWAP3 SWAP2 POP POP JUMP JUMPDEST PUSH1 0x0 DUP2 SWAP1 POP SWAP2 SWAP1 POP JUMP JUMPDEST PUSH1 0x0 PUSH1 0x20 DUP3 ADD SWAP1 POP SWAP2 SWAP1 POP JUMP JUMPDEST PUSH2 0x2FA4 DUP2 PUSH2 0x2F6E JUMP JUMPDEST PUSH2 0x2FAE DUP2 DUP5 PUSH2 0x2F79 JUMP JUMPDEST SWAP3 POP PUSH2 0x2FB9 DUP3 PUSH2 0x2F84 JUMP JUMPDEST DUP1 PUSH1 0x0 JUMPDEST DUP4 DUP2 LT ISZERO PUSH2 0x2FEA JUMPI DUP2 MLOAD PUSH2 0x2FD1 DUP8 DUP3 PUSH2 0x2EEB JUMP JUMPDEST SWAP7 POP PUSH2 0x2FDC DUP4 PUSH2 0x2F8E JUMP JUMPDEST SWAP3 POP POP PUSH1 0x1 DUP2 ADD SWAP1 POP PUSH2 0x2FBD JUMP JUMPDEST POP POP POP POP POP POP JUMP JUMPDEST PUSH32 0x4E487B7100000000000000000000000000000000000000000000000000000000 PUSH1 0x0 MSTORE PUSH1 0x21 PUSH1 0x4 MSTORE PUSH1 0x24 PUSH1 0x0 REVERT JUMPDEST PUSH1 0x6 DUP2 LT PUSH2 0x3032 JUMPI PUSH2 0x3031 PUSH2 0x2FF2 JUMP JUMPDEST JUMPDEST POP JUMP JUMPDEST PUSH1 0x0 DUP2 SWAP1 POP PUSH2 0x3043 DUP3 PUSH2 0x3021 JUMP JUMPDEST SWAP2 SWAP1 POP JUMP JUMPDEST PUSH1 0x0 PUSH2 0x3053 DUP3 PUSH2 0x3035 JUMP JUMPDEST SWAP1 POP SWAP2 SWAP1 POP JUMP JUMPDEST PUSH2 0x3063 DUP2 PUSH2 0x3048 JUMP JUMPDEST DUP3 MSTORE POP POP JUMP JUMPDEST PUSH1 0x0 PUSH2 0x740 DUP4 ADD PUSH1 0x0 DUP4 ADD MLOAD PUSH2 0x3082 PUSH1 0x0 DUP7 ADD DUP3 PUSH2 0x2EA1 JUMP JUMPDEST POP PUSH1 0x20 DUP4 ADD MLOAD PUSH2 0x3095 PUSH1 0x20 DUP7 ADD DUP3 PUSH2 0x2EA1 JUMP JUMPDEST POP PUSH1 0x40 DUP4 ADD MLOAD DUP5 DUP3 SUB PUSH1 0x40 DUP7 ADD MSTORE PUSH2 0x30AD DUP3 DUP3 PUSH2 0x2F10 JUMP JUMPDEST SWAP2 POP POP PUSH1 0x60 DUP4 ADD MLOAD DUP5 DUP3 SUB PUSH1 0x60 DUP7 ADD MSTORE PUSH2 0x30C7 DUP3 DUP3 PUSH2 0x2F10 JUMP JUMPDEST SWAP2 POP POP PUSH1 0x80 DUP4 ADD MLOAD PUSH2 0x30DC PUSH1 0x80 DUP7 ADD DUP3 PUSH2 0x2F9B JUMP JUMPDEST POP PUSH1 0xA0 DUP4 ADD MLOAD PUSH2 0x30F0 PUSH2 0x700 DUP7 ADD DUP3 PUSH2 0x2EDC JUMP JUMPDEST POP PUSH1 0xC0 DUP4 ADD MLOAD PUSH2 0x3104 PUSH2 0x720 DUP7 ADD DUP3 PUSH2 0x305A JUMP JUMPDEST POP DUP1 SWAP2 POP POP SWAP3 SWAP2 POP POP JUMP JUMPDEST PUSH1 0x0 PUSH1 0x20 DUP3 ADD SWAP1 POP DUP2 DUP2 SUB PUSH1 0x0 DUP4 ADD MSTORE PUSH2 0x3129 DUP2 DUP5 PUSH2 0x3069 JUMP JUMPDEST SWAP1 POP SWAP3 SWAP2 POP POP JUMP JUMPDEST PUSH1 0x0 DUP3 DUP3 MSTORE PUSH1 0x20 DUP3 ADD SWAP1 POP SWAP3 SWAP2 POP POP JUMP JUMPDEST PUSH32 0x596F752068617665206E6F2070656E64696E672067616D657300000000000000 PUSH1 0x0 DUP3 ADD MSTORE POP JUMP JUMPDEST PUSH1 0x0 PUSH2 0x3178 PUSH1 0x19 DUP4 PUSH2 0x3131 JUMP JUMPDEST SWAP2 POP PUSH2 0x3183 DUP3 PUSH2 0x3142 JUMP JUMPDEST PUSH1 0x20 DUP3 ADD SWAP1 POP SWAP2 SWAP1 POP JUMP JUMPDEST PUSH1 0x0 PUSH1 0x20 DUP3 ADD SWAP1 POP DUP2 DUP2 SUB PUSH1 0x0 DUP4 ADD MSTORE PUSH2 0x31A7 DUP2 PUSH2 0x316B JUMP JUMPDEST SWAP1 POP SWAP2 SWAP1 POP JUMP JUMPDEST PUSH2 0x31B7 DUP2 PUSH2 0x2BDD JUMP JUMPDEST DUP3 MSTORE POP POP JUMP JUMPDEST PUSH1 0x0 DUP2 SLOAD SWAP1 POP SWAP2 SWAP1 POP JUMP JUMPDEST PUSH1 0x0 DUP3 DUP3 MSTORE PUSH1 0x20 DUP3 ADD SWAP1 POP SWAP3 SWAP2 POP POP JUMP JUMPDEST PUSH1 0x0 DUP2 SWAP1 POP DUP2 PUSH1 0x0 MSTORE PUSH1 0x20 PUSH1 0x0 KECCAK256 SWAP1 POP SWAP2 SWAP1 POP JUMP JUMPDEST PUSH1 0x0 DUP2 PUSH1 0x0 SHR SWAP1 POP SWAP2 SWAP1 POP JUMP JUMPDEST PUSH1 0x0 PUSH1 0xFF DUP3 AND SWAP1 POP SWAP2 SWAP1 POP JUMP JUMPDEST PUSH1 0x0 PUSH2 0x321B PUSH2 0x3216 DUP4 PUSH2 0x31EE JUMP JUMPDEST PUSH2 0x31FB JUMP JUMPDEST SWAP1 POP SWAP2 SWAP1 POP JUMP JUMPDEST PUSH1 0x0 DUP2 PUSH1 0x8 SHR SWAP1 POP SWAP2 SWAP1 POP JUMP JUMPDEST PUSH1 0x0 PUSH2 0x3242 PUSH2 0x323D DUP4 PUSH2 0x3222 JUMP JUMPDEST PUSH2 0x31FB JUMP JUMPDEST SWAP1 POP SWAP2 SWAP1 POP JUMP JUMPDEST PUSH1 0x0 DUP2 PUSH1 0x10 SHR SWAP1 POP SWAP2 SWAP1 POP JUMP JUMPDEST PUSH1 0x0 PUSH2 0x3269 PUSH2 0x3264 DUP4 PUSH2 0x3249 JUMP JUMPDEST PUSH2 0x31FB JUMP JUMPDEST SWAP1 POP SWAP2 SWAP1 POP JUMP JUMPDEST PUSH1 0x0 DUP2 PUSH1 0x18 SHR SWAP1 POP SWAP2 SWAP1 POP JUMP JUMPDEST PUSH1 0x0 PUSH2 0x3290 PUSH2 0x328B DUP4 PUSH2 0x3270 JUMP JUMPDEST PUSH2 0x31FB JUMP JUMPDEST SWAP1 POP SWAP2 SWAP1 POP JUMP JUMPDEST PUSH1 0x0 DUP2 PUSH1 0x20 SHR SWAP1 POP SWAP2 SWAP1 POP JUMP JUMPDEST PUSH1 0x0 PUSH2 0x32B7 PUSH2 0x32B2 DUP4 PUSH2 0x3297 JUMP JUMPDEST PUSH2 0x31FB JUMP JUMPDEST SWAP1 POP SWAP2 SWAP1 POP JUMP JUMPDEST PUSH1 0x0 DUP2 PUSH1 0x28 SHR SWAP1 POP SWAP2 SWAP1 POP JUMP JUMPDEST PUSH1 0x0 PUSH2 0x32DE PUSH2 0x32D9 DUP4 PUSH2 0x32BE JUMP JUMPDEST PUSH2 0x31FB JUMP JUMPDEST SWAP1 POP SWAP2 SWAP1 POP JUMP JUMPDEST PUSH1 0x0 DUP2 PUSH1 0x30 SHR SWAP1 POP SWAP2 SWAP1 POP JUMP JUMPDEST PUSH1 0x0 PUSH2 0x3305 PUSH2 0x3300 DUP4 PUSH2 0x32E5 JUMP JUMPDEST PUSH2 0x31FB JUMP JUMPDEST SWAP1 POP SWAP2 SWAP1 POP JUMP JUMPDEST PUSH1 0x0 DUP2 PUSH1 0x38 SHR SWAP1 POP SWAP2 SWAP1 POP JUMP JUMPDEST PUSH1 0x0 PUSH2 0x332C PUSH2 0x3327 DUP4 PUSH2 0x330C JUMP JUMPDEST PUSH2 0x31FB JUMP JUMPDEST SWAP1 POP SWAP2 SWAP1 POP JUMP JUMPDEST PUSH1 0x0 DUP2 PUSH1 0x40 SHR SWAP1 POP SWAP2 SWAP1 POP JUMP JUMPDEST PUSH1 0x0 PUSH2 0x3353 PUSH2 0x334E DUP4 PUSH2 0x3333 JUMP JUMPDEST PUSH2 0x31FB JUMP JUMPDEST SWAP1 POP SWAP2 SWAP1 POP JUMP JUMPDEST PUSH1 0x0 DUP2 PUSH1 0x48 SHR SWAP1 POP SWAP2 SWAP1 POP JUMP JUMPDEST PUSH1 0x0 PUSH2 0x337A PUSH2 0x3375 DUP4 PUSH2 0x335A JUMP JUMPDEST PUSH2 0x31FB JUMP JUMPDEST SWAP1 POP SWAP2 SWAP1 POP JUMP JUMPDEST PUSH1 0x0 DUP2 PUSH1 0x50 SHR SWAP1 POP SWAP2 SWAP1 POP JUMP JUMPDEST PUSH1 0x0 PUSH2 0x33A1 PUSH2 0x339C DUP4 PUSH2 0x3381 JUMP JUMPDEST PUSH2 0x31FB JUMP JUMPDEST SWAP1 POP SWAP2 SWAP1 POP JUMP JUMPDEST PUSH1 0x0 DUP2 PUSH1 0x58 SHR SWAP1 POP SWAP2 SWAP1 POP JUMP JUMPDEST PUSH1 0x0 PUSH2 0x33C8 PUSH2 0x33C3 DUP4 PUSH2 0x33A8 JUMP JUMPDEST PUSH2 0x31FB JUMP JUMPDEST SWAP1 POP SWAP2 SWAP1 POP JUMP JUMPDEST PUSH1 0x0 DUP2 PUSH1 0x60 SHR SWAP1 POP SWAP2 SWAP1 POP JUMP JUMPDEST PUSH1 0x0 PUSH2 0x33EF PUSH2 0x33EA DUP4 PUSH2 0x33CF JUMP JUMPDEST PUSH2 0x31FB JUMP JUMPDEST SWAP1 POP SWAP2 SWAP1 POP JUMP JUMPDEST PUSH1 0x0 DUP2 PUSH1 0x68 SHR SWAP1 POP SWAP2 SWAP1 POP JUMP JUMPDEST PUSH1 0x0 PUSH2 0x3416 PUSH2 0x3411 DUP4 PUSH2 0x33F6 JUMP JUMPDEST PUSH2 0x31FB JUMP JUMPDEST SWAP1 POP SWAP2 SWAP1 POP JUMP JUMPDEST PUSH1 0x0 DUP2 PUSH1 0x70 SHR SWAP1 POP SWAP2 SWAP1 POP JUMP JUMPDEST PUSH1 0x0 PUSH2 0x343D PUSH2 0x3438 DUP4 PUSH2 0x341D JUMP JUMPDEST PUSH2 0x31FB JUMP JUMPDEST SWAP1 POP SWAP2 SWAP1 POP JUMP JUMPDEST PUSH1 0x0 DUP2 PUSH1 0x78 SHR SWAP1 POP SWAP2 SWAP1 POP JUMP JUMPDEST PUSH1 0x0 PUSH2 0x3464 PUSH2 0x345F DUP4 PUSH2 0x3444 JUMP JUMPDEST PUSH2 0x31FB JUMP JUMPDEST SWAP1 POP SWAP2 SWAP1 POP JUMP JUMPDEST PUSH1 0x0 DUP2 PUSH1 0x80 SHR SWAP1 POP SWAP2 SWAP1 POP JUMP JUMPDEST PUSH1 0x0 PUSH2 0x348B PUSH2 0x3486 DUP4 PUSH2 0x346B JUMP JUMPDEST PUSH2 0x31FB JUMP JUMPDEST SWAP1 POP SWAP2 SWAP1 POP JUMP JUMPDEST PUSH1 0x0 DUP2 PUSH1 0x88 SHR SWAP1 POP SWAP2 SWAP1 POP JUMP JUMPDEST PUSH1 0x0 PUSH2 0x34B2 PUSH2 0x34AD DUP4 PUSH2 0x3492 JUMP JUMPDEST PUSH2 0x31FB JUMP JUMPDEST SWAP1 POP SWAP2 SWAP1 POP JUMP JUMPDEST PUSH1 0x0 DUP2 PUSH1 0x90 SHR SWAP1 POP SWAP2 SWAP1 POP JUMP JUMPDEST PUSH1 0x0 PUSH2 0x34D9 PUSH2 0x34D4 DUP4 PUSH2 0x34B9 JUMP JUMPDEST PUSH2 0x31FB JUMP JUMPDEST SWAP1 POP SWAP2 SWAP1 POP JUMP JUMPDEST PUSH1 0x0 DUP2 PUSH1 0x98 SHR SWAP1 POP SWAP2 SWAP1 POP JUMP JUMPDEST PUSH1 0x0 PUSH2 0x3500 PUSH2 0x34FB DUP4 PUSH2 0x34E0 JUMP JUMPDEST PUSH2 0x31FB JUMP JUMPDEST SWAP1 POP SWAP2 SWAP1 POP JUMP JUMPDEST PUSH1 0x0 DUP2 PUSH1 0xA0 SHR SWAP1 POP SWAP2 SWAP1 POP JUMP JUMPDEST PUSH1 0x0 PUSH2 0x3527 PUSH2 0x3522 DUP4 PUSH2 0x3507 JUMP JUMPDEST PUSH2 0x31FB JUMP JUMPDEST SWAP1 POP SWAP2 SWAP1 POP JUMP JUMPDEST PUSH1 0x0 DUP2 PUSH1 0xA8 SHR SWAP1 POP SWAP2 SWAP1 POP JUMP JUMPDEST PUSH1 0x0 PUSH2 0x354E PUSH2 0x3549 DUP4 PUSH2 0x352E JUMP JUMPDEST PUSH2 0x31FB JUMP JUMPDEST SWAP1 POP SWAP2 SWAP1 POP JUMP JUMPDEST PUSH1 0x0 DUP2 PUSH1 0xB0 SHR SWAP1 POP SWAP2 SWAP1 POP JUMP JUMPDEST PUSH1 0x0 PUSH2 0x3575 PUSH2 0x3570 DUP4 PUSH2 0x3555 JUMP JUMPDEST PUSH2 0x31FB JUMP JUMPDEST SWAP1 POP SWAP2 SWAP1 POP JUMP JUMPDEST PUSH1 0x0 DUP2 PUSH1 0xB8 SHR SWAP1 POP SWAP2 SWAP1 POP JUMP JUMPDEST PUSH1 0x0 PUSH2 0x359C PUSH2 0x3597 DUP4 PUSH2 0x357C JUMP JUMPDEST PUSH2 0x31FB JUMP JUMPDEST SWAP1 POP SWAP2 SWAP1 POP JUMP JUMPDEST PUSH1 0x0 DUP2 PUSH1 0xC0 SHR SWAP1 POP SWAP2 SWAP1 POP JUMP JUMPDEST PUSH1 0x0 PUSH2 0x35C3 PUSH2 0x35BE DUP4 PUSH2 0x35A3 JUMP JUMPDEST PUSH2 0x31FB JUMP JUMPDEST SWAP1 POP SWAP2 SWAP1 POP JUMP JUMPDEST PUSH1 0x0 DUP2 PUSH1 0xC8 SHR SWAP1 POP SWAP2 SWAP1 POP JUMP JUMPDEST PUSH1 0x0 PUSH2 0x35EA PUSH2 0x35E5 DUP4 PUSH2 0x35CA JUMP JUMPDEST PUSH2 0x31FB JUMP JUMPDEST SWAP1 POP SWAP2 SWAP1 POP JUMP JUMPDEST PUSH1 0x0 DUP2 PUSH1 0xD0 SHR SWAP1 POP SWAP2 SWAP1 POP JUMP JUMPDEST PUSH1 0x0 PUSH2 0x3611 PUSH2 0x360C DUP4 PUSH2 0x35F1 JUMP JUMPDEST PUSH2 0x31FB JUMP JUMPDEST SWAP1 POP SWAP2 SWAP1 POP JUMP JUMPDEST PUSH1 0x0 DUP2 PUSH1 0xD8 SHR SWAP1 POP SWAP2 SWAP1 POP JUMP JUMPDEST PUSH1 0x0 PUSH2 0x3638 PUSH2 0x3633 DUP4 PUSH2 0x3618 JUMP JUMPDEST PUSH2 0x31FB JUMP JUMPDEST SWAP1 POP SWAP2 SWAP1 POP JUMP JUMPDEST PUSH1 0x0 DUP2 PUSH1 0xE0 SHR SWAP1 POP SWAP2 SWAP1 POP JUMP JUMPDEST PUSH1 0x0 PUSH2 0x365F PUSH2 0x365A DUP4 PUSH2 0x363F JUMP JUMPDEST PUSH2 0x31FB JUMP JUMPDEST SWAP1 POP SWAP2 SWAP1 POP JUMP JUMPDEST PUSH1 0x0 DUP2 PUSH1 0xE8 SHR SWAP1 POP SWAP2 SWAP1 POP JUMP JUMPDEST PUSH1 0x0 PUSH2 0x3686 PUSH2 0x3681 DUP4 PUSH2 0x3666 JUMP JUMPDEST PUSH2 0x31FB JUMP JUMPDEST SWAP1 POP SWAP2 SWAP1 POP JUMP JUMPDEST PUSH1 0x0 DUP2 PUSH1 0xF0 SHR SWAP1 POP SWAP2 SWAP1 POP JUMP JUMPDEST PUSH1 0x0 PUSH2 0x36AD PUSH2 0x36A8 DUP4 PUSH2 0x368D JUMP JUMPDEST PUSH2 0x31FB JUMP JUMPDEST SWAP1 POP SWAP2 SWAP1 POP JUMP JUMPDEST PUSH1 0x0 DUP2 PUSH1 0xF8 SHR SWAP1 POP SWAP2 SWAP1 POP JUMP JUMPDEST PUSH1 0x0 PUSH2 0x36D4 PUSH2 0x36CF DUP4 PUSH2 0x36B4 JUMP JUMPDEST PUSH2 0x31FB JUMP JUMPDEST SWAP1 POP SWAP2 SWAP1 POP JUMP JUMPDEST PUSH1 0x0 PUSH2 0x36E6 DUP3 PUSH2 0x31BD JUMP JUMPDEST PUSH2 0x36F0 DUP2 DUP6 PUSH2 0x31C8 JUMP JUMPDEST SWAP4 POP DUP4 PUSH2 0x36FC DUP5 PUSH2 0x31D9 JUMP JUMPDEST PUSH1 0x0 PUSH1 0x1 ISZERO PUSH2 0x3A29 JUMPI JUMPDEST DUP4 PUSH1 0x1 PUSH1 0x20 SUB DUP3 ADD LT ISZERO PUSH2 0x3A28 JUMPI DUP2 SLOAD PUSH2 0x3728 DUP9 PUSH2 0x3723 DUP4 PUSH2 0x3208 JUMP JUMPDEST PUSH2 0x2EDC JUMP JUMPDEST PUSH1 0x20 DUP9 ADD SWAP8 POP PUSH2 0x3740 DUP9 PUSH2 0x373B DUP4 PUSH2 0x322F JUMP JUMPDEST PUSH2 0x2EDC JUMP JUMPDEST PUSH1 0x20 DUP9 ADD SWAP8 POP PUSH2 0x3758 DUP9 PUSH2 0x3753 DUP4 PUSH2 0x3256 JUMP JUMPDEST PUSH2 0x2EDC JUMP JUMPDEST PUSH1 0x20 DUP9 ADD SWAP8 POP PUSH2 0x3770 DUP9 PUSH2 0x376B DUP4 PUSH2 0x327D JUMP JUMPDEST PUSH2 0x2EDC JUMP JUMPDEST PUSH1 0x20 DUP9 ADD SWAP8 POP PUSH2 0x3788 DUP9 PUSH2 0x3783 DUP4 PUSH2 0x32A4 JUMP JUMPDEST PUSH2 0x2EDC JUMP JUMPDEST PUSH1 0x20 DUP9 ADD SWAP8 POP PUSH2 0x37A0 DUP9 PUSH2 0x379B DUP4 PUSH2 0x32CB JUMP JUMPDEST PUSH2 0x2EDC JUMP JUMPDEST PUSH1 0x20 DUP9 ADD SWAP8 POP PUSH2 0x37B8 DUP9 PUSH2 0x37B3 DUP4 PUSH2 0x32F2 JUMP JUMPDEST PUSH2 0x2EDC JUMP JUMPDEST PUSH1 0x20 DUP9 ADD SWAP8 POP PUSH2 0x37D0 DUP9 PUSH2 0x37CB DUP4 PUSH2 0x3319 JUMP JUMPDEST PUSH2 0x2EDC JUMP JUMPDEST PUSH1 0x20 DUP9 ADD SWAP8 POP PUSH2 0x37E8 DUP9 PUSH2 0x37E3 DUP4 PUSH2 0x3340 JUMP JUMPDEST PUSH2 0x2EDC JUMP JUMPDEST PUSH1 0x20 DUP9 ADD SWAP8 POP PUSH2 0x3800 DUP9 PUSH2 0x37FB DUP4 PUSH2 0x3367 JUMP JUMPDEST PUSH2 0x2EDC JUMP JUMPDEST PUSH1 0x20 DUP9 ADD SWAP8 POP PUSH2 0x3818 DUP9 PUSH2 0x3813 DUP4 PUSH2 0x338E JUMP JUMPDEST PUSH2 0x2EDC JUMP JUMPDEST PUSH1 0x20 DUP9 ADD SWAP8 POP PUSH2 0x3830 DUP9 PUSH2 0x382B DUP4 PUSH2 0x33B5 JUMP JUMPDEST PUSH2 0x2EDC JUMP JUMPDEST PUSH1 0x20 DUP9 ADD SWAP8 POP PUSH2 0x3848 DUP9 PUSH2 0x3843 DUP4 PUSH2 0x33DC JUMP JUMPDEST PUSH2 0x2EDC JUMP JUMPDEST PUSH1 0x20 DUP9 ADD SWAP8 POP PUSH2 0x3860 DUP9 PUSH2 0x385B DUP4 PUSH2 0x3403 JUMP JUMPDEST PUSH2 0x2EDC JUMP JUMPDEST PUSH1 0x20 DUP9 ADD SWAP8 POP PUSH2 0x3878 DUP9 PUSH2 0x3873 DUP4 PUSH2 0x342A JUMP JUMPDEST PUSH2 0x2EDC JUMP JUMPDEST PUSH1 0x20 DUP9 ADD SWAP8 POP PUSH2 0x3890 DUP9 PUSH2 0x388B DUP4 PUSH2 0x3451 JUMP JUMPDEST PUSH2 0x2EDC JUMP JUMPDEST PUSH1 0x20 DUP9 ADD SWAP8 POP PUSH2 0x38A8 DUP9 PUSH2 0x38A3 DUP4 PUSH2 0x3478 JUMP JUMPDEST PUSH2 0x2EDC JUMP JUMPDEST PUSH1 0x20 DUP9 ADD SWAP8 POP PUSH2 0x38C0 DUP9 PUSH2 0x38BB DUP4 PUSH2 0x349F JUMP JUMPDEST PUSH2 0x2EDC JUMP JUMPDEST PUSH1 0x20 DUP9 ADD SWAP8 POP PUSH2 0x38D8 DUP9 PUSH2 0x38D3 DUP4 PUSH2 0x34C6 JUMP JUMPDEST PUSH2 0x2EDC JUMP JUMPDEST PUSH1 0x20 DUP9 ADD SWAP8 POP PUSH2 0x38F0 DUP9 PUSH2 0x38EB DUP4 PUSH2 0x34ED JUMP JUMPDEST PUSH2 0x2EDC JUMP JUMPDEST PUSH1 0x20 DUP9 ADD SWAP8 POP PUSH2 0x3908 DUP9 PUSH2 0x3903 DUP4 PUSH2 0x3514 JUMP JUMPDEST PUSH2 0x2EDC JUMP JUMPDEST PUSH1 0x20 DUP9 ADD SWAP8 POP PUSH2 0x3920 DUP9 PUSH2 0x391B DUP4 PUSH2 0x353B JUMP JUMPDEST PUSH2 0x2EDC JUMP JUMPDEST PUSH1 0x20 DUP9 ADD SWAP8 POP PUSH2 0x3938 DUP9 PUSH2 0x3933 DUP4 PUSH2 0x3562 JUMP JUMPDEST PUSH2 0x2EDC JUMP JUMPDEST PUSH1 0x20 DUP9 ADD SWAP8 POP PUSH2 0x3950 DUP9 PUSH2 0x394B DUP4 PUSH2 0x3589 JUMP JUMPDEST PUSH2 0x2EDC JUMP JUMPDEST PUSH1 0x20 DUP9 ADD SWAP8 POP PUSH2 0x3968 DUP9 PUSH2 0x3963 DUP4 PUSH2 0x35B0 JUMP JUMPDEST PUSH2 0x2EDC JUMP JUMPDEST PUSH1 0x20 DUP9 ADD SWAP8 POP PUSH2 0x3980 DUP9 PUSH2 0x397B DUP4 PUSH2 0x35D7 JUMP JUMPDEST PUSH2 0x2EDC JUMP JUMPDEST PUSH1 0x20 DUP9 ADD SWAP8 POP PUSH2 0x3998 DUP9 PUSH2 0x3993 DUP4 PUSH2 0x35FE JUMP JUMPDEST PUSH2 0x2EDC JUMP JUMPDEST PUSH1 0x20 DUP9 ADD SWAP8 POP PUSH2 0x39B0 DUP9 PUSH2 0x39AB DUP4 PUSH2 0x3625 JUMP JUMPDEST PUSH2 0x2EDC JUMP JUMPDEST PUSH1 0x20 DUP9 ADD SWAP8 POP PUSH2 0x39C8 DUP9 PUSH2 0x39C3 DUP4 PUSH2 0x364C JUMP JUMPDEST PUSH2 0x2EDC JUMP JUMPDEST PUSH1 0x20 DUP9 ADD SWAP8 POP PUSH2 0x39E0 DUP9 PUSH2 0x39DB DUP4 PUSH2 0x3673 JUMP JUMPDEST PUSH2 0x2EDC JUMP JUMPDEST PUSH1 0x20 DUP9 ADD SWAP8 POP PUSH2 0x39F8 DUP9 PUSH2 0x39F3 DUP4 PUSH2 0x369A JUMP JUMPDEST PUSH2 0x2EDC JUMP JUMPDEST PUSH1 0x20 DUP9 ADD SWAP8 POP PUSH2 0x3A10 DUP9 PUSH2 0x3A0B DUP4 PUSH2 0x36C1 JUMP JUMPDEST PUSH2 0x2EDC JUMP JUMPDEST PUSH1 0x20 DUP9 ADD SWAP8 POP PUSH1 0x1 DUP4 ADD SWAP3 POP POP PUSH1 0x20 DUP2 ADD SWAP1 POP PUSH2 0x3706 JUMP JUMPDEST JUMPDEST PUSH1 0x1 ISZERO PUSH2 0x3F14 JUMPI DUP2 SLOAD DUP5 DUP3 LT ISZERO PUSH2 0x3A59 JUMPI PUSH2 0x3A4C DUP9 PUSH2 0x3A47 DUP4 PUSH2 0x3208 JUMP JUMPDEST PUSH2 0x2EDC JUMP JUMPDEST PUSH1 0x20 DUP9 ADD SWAP8 POP PUSH1 0x1 DUP3 ADD SWAP2 POP JUMPDEST DUP5 DUP3 LT ISZERO PUSH2 0x3A80 JUMPI PUSH2 0x3A73 DUP9 PUSH2 0x3A6E DUP4 PUSH2 0x322F JUMP JUMPDEST PUSH2 0x2EDC JUMP JUMPDEST PUSH1 0x20 DUP9 ADD SWAP8 POP PUSH1 0x1 DUP3 ADD SWAP2 POP JUMPDEST DUP5 DUP3 LT ISZERO PUSH2 0x3AA7 JUMPI PUSH2 0x3A9A DUP9 PUSH2 0x3A95 DUP4 PUSH2 0x3256 JUMP JUMPDEST PUSH2 0x2EDC JUMP JUMPDEST PUSH1 0x20 DUP9 ADD SWAP8 POP PUSH1 0x1 DUP3 ADD SWAP2 POP JUMPDEST DUP5 DUP3 LT ISZERO PUSH2 0x3ACE JUMPI PUSH2 0x3AC1 DUP9 PUSH2 0x3ABC DUP4 PUSH2 0x327D JUMP JUMPDEST PUSH2 0x2EDC JUMP JUMPDEST PUSH1 0x20 DUP9 ADD SWAP8 POP PUSH1 0x1 DUP3 ADD SWAP2 POP JUMPDEST DUP5 DUP3 LT ISZERO PUSH2 0x3AF5 JUMPI PUSH2 0x3AE8 DUP9 PUSH2 0x3AE3 DUP4 PUSH2 0x32A4 JUMP JUMPDEST PUSH2 0x2EDC JUMP JUMPDEST PUSH1 0x20 DUP9 ADD SWAP8 POP PUSH1 0x1 DUP3 ADD SWAP2 POP JUMPDEST DUP5 DUP3 LT ISZERO PUSH2 0x3B1C JUMPI PUSH2 0x3B0F DUP9 PUSH2 0x3B0A DUP4 PUSH2 0x32CB JUMP JUMPDEST PUSH2 0x2EDC JUMP JUMPDEST PUSH1 0x20 DUP9 ADD SWAP8 POP PUSH1 0x1 DUP3 ADD SWAP2 POP JUMPDEST DUP5 DUP3 LT ISZERO PUSH2 0x3B43 JUMPI PUSH2 0x3B36 DUP9 PUSH2 0x3B31 DUP4 PUSH2 0x32F2 JUMP JUMPDEST PUSH2 0x2EDC JUMP JUMPDEST PUSH1 0x20 DUP9 ADD SWAP8 POP PUSH1 0x1 DUP3 ADD SWAP2 POP JUMPDEST DUP5 DUP3 LT ISZERO PUSH2 0x3B6A JUMPI PUSH2 0x3B5D DUP9 PUSH2 0x3B58 DUP4 PUSH2 0x3319 JUMP JUMPDEST PUSH2 0x2EDC JUMP JUMPDEST PUSH1 0x20 DUP9 ADD SWAP8 POP PUSH1 0x1 DUP3 ADD SWAP2 POP JUMPDEST DUP5 DUP3 LT ISZERO PUSH2 0x3B91 JUMPI PUSH2 0x3B84 DUP9 PUSH2 0x3B7F DUP4 PUSH2 0x3340 JUMP JUMPDEST PUSH2 0x2EDC JUMP JUMPDEST PUSH1 0x20 DUP9 ADD SWAP8 POP PUSH1 0x1 DUP3 ADD SWAP2 POP JUMPDEST DUP5 DUP3 LT ISZERO PUSH2 0x3BB8 JUMPI PUSH2 0x3BAB DUP9 PUSH2 0x3BA6 DUP4 PUSH2 0x3367 JUMP JUMPDEST PUSH2 0x2EDC JUMP JUMPDEST PUSH1 0x20 DUP9 ADD SWAP8 POP PUSH1 0x1 DUP3 ADD SWAP2 POP JUMPDEST DUP5 DUP3 LT ISZERO PUSH2 0x3BDF JUMPI PUSH2 0x3BD2 DUP9 PUSH2 0x3BCD DUP4 PUSH2 0x338E JUMP JUMPDEST PUSH2 0x2EDC JUMP JUMPDEST PUSH1 0x20 DUP9 ADD SWAP8 POP PUSH1 0x1 DUP3 ADD SWAP2 POP JUMPDEST DUP5 DUP3 LT ISZERO PUSH2 0x3C06 JUMPI PUSH2 0x3BF9 DUP9 PUSH2 0x3BF4 DUP4 PUSH2 0x33B5 JUMP JUMPDEST PUSH2 0x2EDC JUMP JUMPDEST PUSH1 0x20 DUP9 ADD SWAP8 POP PUSH1 0x1 DUP3 ADD SWAP2 POP JUMPDEST DUP5 DUP3 LT ISZERO PUSH2 0x3C2D JUMPI PUSH2 0x3C20 DUP9 PUSH2 0x3C1B DUP4 PUSH2 0x33DC JUMP JUMPDEST PUSH2 0x2EDC JUMP JUMPDEST PUSH1 0x20 DUP9 ADD SWAP8 POP PUSH1 0x1 DUP3 ADD SWAP2 POP JUMPDEST DUP5 DUP3 LT ISZERO PUSH2 0x3C54 JUMPI PUSH2 0x3C47 DUP9 PUSH2 0x3C42 DUP4 PUSH2 0x3403 JUMP JUMPDEST PUSH2 0x2EDC JUMP JUMPDEST PUSH1 0x20 DUP9 ADD SWAP8 POP PUSH1 0x1 DUP3 ADD SWAP2 POP JUMPDEST DUP5 DUP3 LT ISZERO PUSH2 0x3C7B JUMPI PUSH2 0x3C6E DUP9 PUSH2 0x3C69 DUP4 PUSH2 0x342A JUMP JUMPDEST PUSH2 0x2EDC JUMP JUMPDEST PUSH1 0x20 DUP9 ADD SWAP8 POP PUSH1 0x1 DUP3 ADD SWAP2 POP JUMPDEST DUP5 DUP3 LT ISZERO PUSH2 0x3CA2 JUMPI PUSH2 0x3C95 DUP9 PUSH2 0x3C90 DUP4 PUSH2 0x3451 JUMP JUMPDEST PUSH2 0x2EDC JUMP JUMPDEST PUSH1 0x20 DUP9 ADD SWAP8 POP PUSH1 0x1 DUP3 ADD SWAP2 POP JUMPDEST DUP5 DUP3 LT ISZERO PUSH2 0x3CC9 JUMPI PUSH2 0x3CBC DUP9 PUSH2 0x3CB7 DUP4 PUSH2 0x3478 JUMP JUMPDEST PUSH2 0x2EDC JUMP JUMPDEST PUSH1 0x20 DUP9 ADD SWAP8 POP PUSH1 0x1 DUP3 ADD SWAP2 POP JUMPDEST DUP5 DUP3 LT ISZERO PUSH2 0x3CF0 JUMPI PUSH2 0x3CE3 DUP9 PUSH2 0x3CDE DUP4 PUSH2 0x349F JUMP JUMPDEST PUSH2 0x2EDC JUMP JUMPDEST PUSH1 0x20 DUP9 ADD SWAP8 POP PUSH1 0x1 DUP3 ADD SWAP2 POP JUMPDEST DUP5 DUP3 LT ISZERO PUSH2 0x3D17 JUMPI PUSH2 0x3D0A DUP9 PUSH2 0x3D05 DUP4 PUSH2 0x34C6 JUMP JUMPDEST PUSH2 0x2EDC JUMP JUMPDEST PUSH1 0x20 DUP9 ADD SWAP8 POP PUSH1 0x1 DUP3 ADD SWAP2 POP JUMPDEST DUP5 DUP3 LT ISZERO PUSH2 0x3D3E JUMPI PUSH2 0x3D31 DUP9 PUSH2 0x3D2C DUP4 PUSH2 0x34ED JUMP JUMPDEST PUSH2 0x2EDC JUMP JUMPDEST PUSH1 0x20 DUP9 ADD SWAP8 POP PUSH1 0x1 DUP3 ADD SWAP2 POP JUMPDEST DUP5 DUP3 LT ISZERO PUSH2 0x3D65 JUMPI PUSH2 0x3D58 DUP9 PUSH2 0x3D53 DUP4 PUSH2 0x3514 JUMP JUMPDEST PUSH2 0x2EDC JUMP JUMPDEST PUSH1 0x20 DUP9 ADD SWAP8 POP PUSH1 0x1 DUP3 ADD SWAP2 POP JUMPDEST DUP5 DUP3 LT ISZERO PUSH2 0x3D8C JUMPI PUSH2 0x3D7F DUP9 PUSH2 0x3D7A DUP4 PUSH2 0x353B JUMP JUMPDEST PUSH2 0x2EDC JUMP JUMPDEST PUSH1 0x20 DUP9 ADD SWAP8 POP PUSH1 0x1 DUP3 ADD SWAP2 POP JUMPDEST DUP5 DUP3 LT ISZERO PUSH2 0x3DB3 JUMPI PUSH2 0x3DA6 DUP9 PUSH2 0x3DA1 DUP4 PUSH2 0x3562 JUMP JUMPDEST PUSH2 0x2EDC JUMP JUMPDEST PUSH1 0x20 DUP9 ADD SWAP8 POP PUSH1 0x1 DUP3 ADD SWAP2 POP JUMPDEST DUP5 DUP3 LT ISZERO PUSH2 0x3DDA JUMPI PUSH2 0x3DCD DUP9 PUSH2 0x3DC8 DUP4 PUSH2 0x3589 JUMP JUMPDEST PUSH2 0x2EDC JUMP JUMPDEST PUSH1 0x20 DUP9 ADD SWAP8 POP PUSH1 0x1 DUP3 ADD SWAP2 POP JUMPDEST DUP5 DUP3 LT ISZERO PUSH2 0x3E01 JUMPI PUSH2 0x3DF4 DUP9 PUSH2 0x3DEF DUP4 PUSH2 0x35B0 JUMP JUMPDEST PUSH2 0x2EDC JUMP JUMPDEST PUSH1 0x20 DUP9 ADD SWAP8 POP PUSH1 0x1 DUP3 ADD SWAP2 POP JUMPDEST DUP5 DUP3 LT ISZERO PUSH2 0x3E28 JUMPI PUSH2 0x3E1B DUP9 PUSH2 0x3E16 DUP4 PUSH2 0x35D7 JUMP JUMPDEST PUSH2 0x2EDC JUMP JUMPDEST PUSH1 0x20 DUP9 ADD SWAP8 POP PUSH1 0x1 DUP3 ADD SWAP2 POP JUMPDEST DUP5 DUP3 LT ISZERO PUSH2 0x3E4F JUMPI PUSH2 0x3E42 DUP9 PUSH2 0x3E3D DUP4 PUSH2 0x35FE JUMP JUMPDEST PUSH2 0x2EDC JUMP JUMPDEST PUSH1 0x20 DUP9 ADD SWAP8 POP PUSH1 0x1 DUP3 ADD SWAP2 POP JUMPDEST DUP5 DUP3 LT ISZERO PUSH2 0x3E76 JUMPI PUSH2 0x3E69 DUP9 PUSH2 0x3E64 DUP4 PUSH2 0x3625 JUMP JUMPDEST PUSH2 0x2EDC JUMP JUMPDEST PUSH1 0x20 DUP9 ADD SWAP8 POP PUSH1 0x1 DUP3 ADD SWAP2 POP JUMPDEST DUP5 DUP3 LT ISZERO PUSH2 0x3E9D JUMPI PUSH2 0x3E90 DUP9 PUSH2 0x3E8B DUP4 PUSH2 0x364C JUMP JUMPDEST PUSH2 0x2EDC JUMP JUMPDEST PUSH1 0x20 DUP9 ADD SWAP8 POP PUSH1 0x1 DUP3 ADD SWAP2 POP JUMPDEST DUP5 DUP3 LT ISZERO PUSH2 0x3EC4 JUMPI PUSH2 0x3EB7 DUP9 PUSH2 0x3EB2 DUP4 PUSH2 0x3673 JUMP JUMPDEST PUSH2 0x2EDC JUMP JUMPDEST PUSH1 0x20 DUP9 ADD SWAP8 POP PUSH1 0x1 DUP3 ADD SWAP2 POP JUMPDEST DUP5 DUP3 LT ISZERO PUSH2 0x3EEB JUMPI PUSH2 0x3EDE DUP9 PUSH2 0x3ED9 DUP4 PUSH2 0x369A JUMP JUMPDEST PUSH2 0x2EDC JUMP JUMPDEST PUSH1 0x20 DUP9 ADD SWAP8 POP PUSH1 0x1 DUP3 ADD SWAP2 POP JUMPDEST DUP5 DUP3 LT ISZERO PUSH2 0x3F12 JUMPI PUSH2 0x3F05 DUP9 PUSH2 0x3F00 DUP4 PUSH2 0x36C1 JUMP JUMPDEST PUSH2 0x2EDC JUMP JUMPDEST PUSH1 0x20 DUP9 ADD SWAP8 POP PUSH1 0x1 DUP3 ADD SWAP2 POP JUMPDEST POP JUMPDEST DUP7 SWAP5 POP POP POP POP POP SWAP3 SWAP2 POP POP JUMP JUMPDEST PUSH1 0x0 PUSH1 0x80 DUP3 ADD SWAP1 POP PUSH2 0x3F36 PUSH1 0x0 DUP4 ADD DUP8 PUSH2 0x31AE JUMP JUMPDEST DUP2 DUP2 SUB PUSH1 0x20 DUP4 ADD MSTORE PUSH2 0x3F48 DUP2 DUP7 PUSH2 0x36DB JUMP JUMPDEST SWAP1 POP DUP2 DUP2 SUB PUSH1 0x40 DUP4 ADD MSTORE PUSH2 0x3F5C DUP2 DUP6 PUSH2 0x36DB JUMP JUMPDEST SWAP1 POP PUSH2 0x3F6B PUSH1 0x60 DUP4 ADD DUP5 PUSH2 0x31AE JUMP JUMPDEST SWAP6 SWAP5 POP POP POP POP POP JUMP JUMPDEST PUSH32 0x546F6F20736D616C6C2062657420616D6F756E74000000000000000000000000 PUSH1 0x0 DUP3 ADD MSTORE POP JUMP JUMPDEST PUSH1 0x0 PUSH2 0x3FAA PUSH1 0x14 DUP4 PUSH2 0x3131 JUMP JUMPDEST SWAP2 POP PUSH2 0x3FB5 DUP3 PUSH2 0x3F74 JUMP JUMPDEST PUSH1 0x20 DUP3 ADD SWAP1 POP SWAP2 SWAP1 POP JUMP JUMPDEST PUSH1 0x0 PUSH1 0x20 DUP3 ADD SWAP1 POP DUP2 DUP2 SUB PUSH1 0x0 DUP4 ADD MSTORE PUSH2 0x3FD9 DUP2 PUSH2 0x3F9D JUMP JUMPDEST SWAP1 POP SWAP2 SWAP1 POP JUMP JUMPDEST PUSH32 0x596F7520616C7265616479206265740000000000000000000000000000000000 PUSH1 0x0 DUP3 ADD MSTORE POP JUMP JUMPDEST PUSH1 0x0 PUSH2 0x4016 PUSH1 0xF DUP4 PUSH2 0x3131 JUMP JUMPDEST SWAP2 POP PUSH2 0x4021 DUP3 PUSH2 0x3FE0 JUMP JUMPDEST PUSH1 0x20 DUP3 ADD SWAP1 POP SWAP2 SWAP1 POP JUMP JUMPDEST PUSH1 0x0 PUSH1 0x20 DUP3 ADD SWAP1 POP DUP2 DUP2 SUB PUSH1 0x0 DUP4 ADD MSTORE PUSH2 0x4045 DUP2 PUSH2 0x4009 JUMP JUMPDEST SWAP1 POP SWAP2 SWAP1 POP JUMP JUMPDEST PUSH32 0x4E487B7100000000000000000000000000000000000000000000000000000000 PUSH1 0x0 MSTORE PUSH1 0x11 PUSH1 0x4 MSTORE PUSH1 0x24 PUSH1 0x0 REVERT JUMPDEST PUSH1 0x0 PUSH2 0x4086 DUP3 PUSH2 0x2BDD JUMP JUMPDEST SWAP2 POP PUSH2 0x4091 DUP4 PUSH2 0x2BDD JUMP JUMPDEST SWAP3 POP DUP3 DUP3 MUL PUSH2 0x409F DUP2 PUSH2 0x2BDD JUMP JUMPDEST SWAP2 POP DUP3 DUP3 DIV DUP5 EQ DUP4 ISZERO OR PUSH2 0x40B6 JUMPI PUSH2 0x40B5 PUSH2 0x404C JUMP JUMPDEST JUMPDEST POP SWAP3 SWAP2 POP POP JUMP JUMPDEST PUSH1 0x0 DUP2 MLOAD SWAP1 POP PUSH2 0x40CC DUP2 PUSH2 0x2BE7 JUMP JUMPDEST SWAP3 SWAP2 POP POP JUMP JUMPDEST PUSH1 0x0 PUSH1 0x20 DUP3 DUP5 SUB SLT ISZERO PUSH2 0x40E8 JUMPI PUSH2 0x40E7 PUSH2 0x2BD3 JUMP JUMPDEST JUMPDEST PUSH1 0x0 PUSH2 0x40F6 DUP5 DUP3 DUP6 ADD PUSH2 0x40BD JUMP JUMPDEST SWAP2 POP POP SWAP3 SWAP2 POP POP JUMP JUMPDEST PUSH32 0x4E6F7420656E6F7567682066756E647320696E20636173696E6F000000000000 PUSH1 0x0 DUP3 ADD MSTORE POP JUMP JUMPDEST PUSH1 0x0 PUSH2 0x4135 PUSH1 0x1A DUP4 PUSH2 0x3131 JUMP JUMPDEST SWAP2 POP PUSH2 0x4140 DUP3 PUSH2 0x40FF JUMP JUMPDEST PUSH1 0x20 DUP3 ADD SWAP1 POP SWAP2 SWAP1 POP JUMP JUMPDEST PUSH1 0x0 PUSH1 0x20 DUP3 ADD SWAP1 POP DUP2 DUP2 SUB PUSH1 0x0 DUP4 ADD MSTORE PUSH2 0x4164 DUP2 PUSH2 0x4128 JUMP JUMPDEST SWAP1 POP SWAP2 SWAP1 POP JUMP JUMPDEST PUSH32 0x596F752068617665206E6F7420656E6F7567682066756E647300000000000000 PUSH1 0x0 DUP3 ADD MSTORE POP JUMP JUMPDEST PUSH1 0x0 PUSH2 0x41A1 PUSH1 0x19 DUP4 PUSH2 0x3131 JUMP JUMPDEST SWAP2 POP PUSH2 0x41AC DUP3 PUSH2 0x416B JUMP JUMPDEST PUSH1 0x20 DUP3 ADD SWAP1 POP SWAP2 SWAP1 POP JUMP JUMPDEST PUSH1 0x0 PUSH1 0x20 DUP3 ADD SWAP1 POP DUP2 DUP2 SUB PUSH1 0x0 DUP4 ADD MSTORE PUSH2 0x41D0 DUP2 PUSH2 0x4194 JUMP JUMPDEST SWAP1 POP SWAP2 SWAP1 POP JUMP JUMPDEST PUSH1 0x0 PUSH1 0x40 DUP3 ADD SWAP1 POP PUSH2 0x41EC PUSH1 0x0 DUP4 ADD DUP6 PUSH2 0x2C72 JUMP JUMPDEST PUSH2 0x41F9 PUSH1 0x20 DUP4 ADD DUP5 PUSH2 0x31AE JUMP JUMPDEST SWAP4 SWAP3 POP POP POP JUMP JUMPDEST PUSH32 0x4E487B7100000000000000000000000000000000000000000000000000000000 PUSH1 0x0 MSTORE PUSH1 0x32 PUSH1 0x4 MSTORE PUSH1 0x24 PUSH1 0x0 REVERT JUMPDEST PUSH32 0x4E487B7100000000000000000000000000000000000000000000000000000000 PUSH1 0x0 MSTORE PUSH1 0x12 PUSH1 0x4 MSTORE PUSH1 0x24 PUSH1 0x0 REVERT JUMPDEST PUSH1 0x0 PUSH2 0x4269 DUP3 PUSH2 0x2D5E JUMP JUMPDEST SWAP2 POP PUSH2 0x4274 DUP4 PUSH2 0x2D5E JUMP JUMPDEST SWAP3 POP DUP3 PUSH2 0x4284 JUMPI PUSH2 0x4283 PUSH2 0x422F JUMP JUMPDEST JUMPDEST DUP3 DUP3 MOD SWAP1 POP SWAP3 SWAP2 POP POP JUMP JUMPDEST PUSH1 0x0 PUSH2 0x429A DUP3 PUSH2 0x2D5E JUMP JUMPDEST SWAP2 POP PUSH1 0xFF DUP3 SUB PUSH2 0x42AD JUMPI PUSH2 0x42AC PUSH2 0x404C JUMP JUMPDEST JUMPDEST PUSH1 0x1 DUP3 ADD SWAP1 POP SWAP2 SWAP1 POP JUMP JUMPDEST PUSH1 0x0 PUSH2 0x42C3 DUP3 PUSH2 0x2D5E JUMP JUMPDEST SWAP2 POP PUSH2 0x42CE DUP4 PUSH2 0x2D5E JUMP JUMPDEST SWAP3 POP DUP3 DUP3 ADD SWAP1 POP PUSH1 0xFF DUP2 GT ISZERO PUSH2 0x42E7 JUMPI PUSH2 0x42E6 PUSH2 0x404C JUMP JUMPDEST JUMPDEST SWAP3 SWAP2 POP POP JUMP JUMPDEST PUSH1 0x0 PUSH2 0x42F8 DUP3 PUSH2 0x2D5E JUMP JUMPDEST SWAP2 POP PUSH2 0x4303 DUP4 PUSH2 0x2D5E JUMP JUMPDEST SWAP3 POP DUP3 DUP3 SUB SWAP1 POP PUSH1 0xFF DUP2 GT ISZERO PUSH2 0x431C JUMPI PUSH2 0x431B PUSH2 0x404C JUMP JUMPDEST JUMPDEST SWAP3 SWAP2 POP POP JUMP JUMPDEST PUSH1 0x0 PUSH2 0x432D DUP3 PUSH2 0x2D5E JUMP JUMPDEST SWAP2 POP PUSH1 0x0 DUP3 SUB PUSH2 0x4340 JUMPI PUSH2 0x433F PUSH2 0x404C JUMP JUMPDEST JUMPDEST PUSH1 0x1 DUP3 SUB SWAP1 POP SWAP2 SWAP1 POP JUMP JUMPDEST PUSH32 0x596F752063616E20646F75626C6520646F776E206F6E6C79207768656E203220 PUSH1 0x0 DUP3 ADD MSTORE PUSH32 0x636172647320696E20612068616E640000000000000000000000000000000000 PUSH1 0x20 DUP3 ADD MSTORE POP JUMP JUMPDEST PUSH1 0x0 PUSH2 0x43A7 PUSH1 0x2F DUP4 PUSH2 0x3131 JUMP JUMPDEST SWAP2 POP PUSH2 0x43B2 DUP3 PUSH2 0x434B JUMP JUMPDEST PUSH1 0x40 DUP3 ADD SWAP1 POP SWAP2 SWAP1 POP JUMP JUMPDEST PUSH1 0x0 PUSH1 0x20 DUP3 ADD SWAP1 POP DUP2 DUP2 SUB PUSH1 0x0 DUP4 ADD MSTORE PUSH2 0x43D6 DUP2 PUSH2 0x439A JUMP JUMPDEST SWAP1 POP SWAP2 SWAP1 POP JUMP JUMPDEST PUSH32 0x4E6F7420656E6F7567682066756E647320746F20646F75626C6520646F776E00 PUSH1 0x0 DUP3 ADD MSTORE POP JUMP JUMPDEST PUSH1 0x0 PUSH2 0x4413 PUSH1 0x1F DUP4 PUSH2 0x3131 JUMP JUMPDEST SWAP2 POP PUSH2 0x441E DUP3 PUSH2 0x43DD JUMP JUMPDEST PUSH1 0x20 DUP3 ADD SWAP1 POP SWAP2 SWAP1 POP JUMP JUMPDEST PUSH1 0x0 PUSH1 0x20 DUP3 ADD SWAP1 POP DUP2 DUP2 SUB PUSH1 0x0 DUP4 ADD MSTORE PUSH2 0x4442 DUP2 PUSH2 0x4406 JUMP JUMPDEST SWAP1 POP SWAP2 SWAP1 POP JUMP JUMPDEST PUSH32 0x436173696E6F20686173206E6F7420656E6F7567682066756E647320666F7220 PUSH1 0x0 DUP3 ADD MSTORE PUSH32 0x646F75626C6520646F776E20796F757220626574000000000000000000000000 PUSH1 0x20 DUP3 ADD MSTORE POP JUMP JUMPDEST PUSH1 0x0 PUSH2 0x44A5 PUSH1 0x34 DUP4 PUSH2 0x3131 JUMP JUMPDEST SWAP2 POP PUSH2 0x44B0 DUP3 PUSH2 0x4449 JUMP JUMPDEST PUSH1 0x40 DUP3 ADD SWAP1 POP SWAP2 SWAP1 POP JUMP JUMPDEST PUSH1 0x0 PUSH1 0x20 DUP3 ADD SWAP1 POP DUP2 DUP2 SUB PUSH1 0x0 DUP4 ADD MSTORE PUSH2 0x44D4 DUP2 PUSH2 0x4498 JUMP JUMPDEST SWAP1 POP SWAP2 SWAP1 POP JUMP JUMPDEST PUSH1 0x0 PUSH2 0x44E6 DUP3 PUSH2 0x2BDD JUMP JUMPDEST SWAP2 POP PUSH2 0x44F1 DUP4 PUSH2 0x2BDD JUMP JUMPDEST SWAP3 POP DUP3 DUP3 ADD SWAP1 POP DUP1 DUP3 GT ISZERO PUSH2 0x4509 JUMPI PUSH2 0x4508 PUSH2 0x404C JUMP JUMPDEST JUMPDEST SWAP3 SWAP2 POP POP JUMP JUMPDEST PUSH1 0x0 DUP2 SWAP1 POP SWAP2 SWAP1 POP JUMP JUMPDEST PUSH2 0x452A PUSH2 0x4525 DUP3 PUSH2 0x2BDD JUMP JUMPDEST PUSH2 0x450F JUMP JUMPDEST DUP3 MSTORE POP POP JUMP JUMPDEST PUSH1 0x0 DUP2 PUSH1 0x60 SHL SWAP1 POP SWAP2 SWAP1 POP JUMP JUMPDEST PUSH1 0x0 PUSH2 0x4548 DUP3 PUSH2 0x4530 JUMP JUMPDEST SWAP1 POP SWAP2 SWAP1 POP JUMP JUMPDEST PUSH1 0x0 PUSH2 0x455A DUP3 PUSH2 0x453D JUMP JUMPDEST SWAP1 POP SWAP2 SWAP1 POP JUMP JUMPDEST PUSH2 0x4572 PUSH2 0x456D DUP3 PUSH2 0x2C60 JUMP JUMPDEST PUSH2 0x454F JUMP JUMPDEST DUP3 MSTORE POP POP JUMP JUMPDEST PUSH1 0x0 DUP2 PUSH1 0xF8 SHL SWAP1 POP SWAP2 SWAP1 POP JUMP JUMPDEST PUSH1 0x0 PUSH2 0x4590 DUP3 PUSH2 0x4578 JUMP JUMPDEST SWAP1 POP SWAP2 SWAP1 POP JUMP JUMPDEST PUSH2 0x45A8 PUSH2 0x45A3 DUP3 PUSH2 0x2D5E JUMP JUMPDEST PUSH2 0x4585 JUMP JUMPDEST DUP3 MSTORE POP POP JUMP JUMPDEST PUSH1 0x0 PUSH2 0x45BA DUP3 DUP7 PUSH2 0x4519 JUMP JUMPDEST PUSH1 0x20 DUP3 ADD SWAP2 POP PUSH2 0x45CA DUP3 DUP6 PUSH2 0x4561 JUMP JUMPDEST PUSH1 0x14 DUP3 ADD SWAP2 POP PUSH2 0x45DA DUP3 DUP5 PUSH2 0x4597 JUMP JUMPDEST PUSH1 0x1 DUP3 ADD SWAP2 POP DUP2 SWAP1 POP SWAP5 SWAP4 POP POP POP POP JUMP JUMPDEST PUSH1 0x0 PUSH2 0x45F6 DUP3 PUSH2 0x2BDD JUMP JUMPDEST SWAP2 POP PUSH2 0x4601 DUP4 PUSH2 0x2BDD JUMP JUMPDEST SWAP3 POP DUP3 PUSH2 0x4611 JUMPI PUSH2 0x4610 PUSH2 0x422F JUMP JUMPDEST JUMPDEST DUP3 DUP3 MOD SWAP1 POP SWAP3 SWAP2 POP POP JUMP INVALID LOG2 PUSH5 0x6970667358 0x22 SLT KECCAK256 0xEE PUSH31 0xA96F0918E3579BA051D098F26360809E3D3B88064D4FF2E8C85ADAA35BED64 PUSH20 0x6F6C634300081800330000000000000000000000 "},"methodIdentifiers":{"bet(uint256)":"7365870b","countPoints(uint8[])":"905348ca","doubleDown()":"a7e1f6a2","emitCurrentGame()":"72c432cd","getBankPoints()":"edc03922","getCurrentGame()":"968d901b","getPlayerPoints()":"ac002353","hit()":"2ae3594a","mainContractAddress()":"da6b7356","owner()":"8da5cb5b","pass()":"a7a1ed72"}}}}}