{
  "_format": "hh-sol-artifact-1",
  "contractName": "Slots",
  "sourceName": "contracts/Slots.sol",
  "abi": [
    {
      "inputs": [
        {
          "internalType": "address",
          "name": "_mainContractAddress",
          "type": "address"
        }
      ],
      "stateMutability": "nonpayable",
      "type": "constructor"
    },
    {
      "anonymous": false,
      "inputs": [
        {
          "indexed": true,
          "internalType": "address",
          "name": "player",
          "type": "address"
        },
        {
          "indexed": false,
          "internalType": "uint256",
          "name": "",
          "type": "uint256"
        },
        {
          "indexed": false,
          "internalType": "uint8",
          "name": "",
          "type": "uint8"
        },
        {
          "indexed": false,
          "internalType": "uint8",
          "name": "",
          "type": "uint8"
        },
        {
          "indexed": false,
          "internalType": "uint8",
          "name": "",
          "type": "uint8"
        },
        {
          "indexed": true,
          "internalType": "enum Slots.GameStatus",
          "name": "status",
          "type": "uint8"
        },
        {
          "indexed": false,
          "internalType": "uint256",
          "name": "",
          "type": "uint256"
        },
        {
          "indexed": false,
          "internalType": "uint256",
          "name": "",
          "type": "uint256"
        }
      ],
      "name": "GameFinished",
      "type": "event"
    },
    {
      "inputs": [
        {
          "internalType": "uint256",
          "name": "amount",
          "type": "uint256"
        }
      ],
      "name": "bet",
      "outputs": [],
      "stateMutability": "nonpayable",
      "type": "function"
    },
    {
      "inputs": [],
      "name": "mainContractAddress",
      "outputs": [
        {
          "internalType": "address",
          "name": "",
          "type": "address"
        }
      ],
      "stateMutability": "view",
      "type": "function"
    },
    {
      "inputs": [],
      "name": "owner",
      "outputs": [
        {
          "internalType": "address",
          "name": "",
          "type": "address"
        }
      ],
      "stateMutability": "view",
      "type": "function"
    }
  ],
  "bytecode": "0x6080604052604051806101400160405280600060ff168152602001600160ff168152602001600260ff168152602001600360ff168152602001600460ff168152602001600560ff168152602001600660ff168152602001600760ff168152602001600860ff168152602001600960ff16815250600290600a62000084929190620001c1565b50604051806101400160405280601060ff168152602001602160ff168152602001603260ff168152602001604260ff168152602001605360ff168152602001606460ff168152602001607460ff168152602001608560ff168152602001609660ff16815260200160aa60ff16815250600390600a62000105929190620001c1565b503480156200011357600080fd5b50604051620010d7380380620010d78339818101604052810190620001399190620002eb565b336000806101000a81548173ffffffffffffffffffffffffffffffffffffffff021916908373ffffffffffffffffffffffffffffffffffffffff16021790555080600160006101000a81548173ffffffffffffffffffffffffffffffffffffffff021916908373ffffffffffffffffffffffffffffffffffffffff160217905550506200031d565b82600a601f016020900481019282156200024f5791602002820160005b838211156200021e57835183826101000a81548160ff021916908360ff1602179055509260200192600101602081600001049283019260010302620001de565b80156200024d5782816101000a81549060ff02191690556001016020816000010492830192600103026200021e565b505b5090506200025e919062000262565b5090565b5b808211156200027d57600081600090555060010162000263565b5090565b600080fd5b600073ffffffffffffffffffffffffffffffffffffffff82169050919050565b6000620002b38262000286565b9050919050565b620002c581620002a6565b8114620002d157600080fd5b50565b600081519050620002e581620002ba565b92915050565b60006020828403121562000304576200030362000281565b5b60006200031484828501620002d4565b91505092915050565b610daa806200032d6000396000f3fe608060405234801561001057600080fd5b50600436106100415760003560e01c80637365870b146100465780638da5cb5b14610062578063da6b735614610080575b600080fd5b610060600480360381019061005b9190610787565b61009e565b005b61006a610691565b60405161007791906107f5565b60405180910390f35b6100886106b5565b60405161009591906107f5565b60405180910390f35b600081116100e1576040517f08c379a00000000000000000000000000000000000000000000000000000000081526004016100d89061086d565b60405180910390fd5b60036001600a6100f191906108bc565b600a8110610102576101016108f0565b5b602091828204019190069054906101000a900460ff1660ff16600160009054906101000a900473ffffffffffffffffffffffffffffffffffffffff1673ffffffffffffffffffffffffffffffffffffffff16631a0843c06040518163ffffffff1660e01b81526004016020604051808303816000875af115801561018a573d6000803e3d6000fd5b505050506040513d601f19601f820116820180604052508101906101ae9190610934565b116101ee576040517f08c379a00000000000000000000000000000000000000000000000000000000081526004016101e5906109ad565b60405180910390fd5b80600160009054906101000a900473ffffffffffffffffffffffffffffffffffffffff1673ffffffffffffffffffffffffffffffffffffffff16639b96eece336040518263ffffffff1660e01b815260040161024a91906107f5565b602060405180830381865afa158015610267573d6000803e3d6000fd5b505050506040513d601f19601f8201168201806040525081019061028b9190610934565b10156102cc576040517f08c379a00000000000000000000000000000000000000000000000000000000081526004016102c390610a19565b60405180910390fd5b600160009054906101000a900473ffffffffffffffffffffffffffffffffffffffff1673ffffffffffffffffffffffffffffffffffffffff166363fb576f33836040518363ffffffff1660e01b8152600401610329929190610a48565b600060405180830381600087803b15801561034357600080fd5b505af1158015610357573d6000803e3d6000fd5b50505050600061036760016106db565b9050600061037560026106db565b9050600061038360036106db565b9050816040516020016103969190610ab4565b60405160208183030381529060405280519060200120836040516020016103bd9190610ab4565b6040516020818303038152906040528051906020012014801561042b5750806040516020016103ec9190610ab4565b60405160208183030381529060405280519060200120826040516020016104139190610ab4565b60405160208183030381529060405280519060200120145b1561061e5760005b600a811015610618578360405160200161044d9190610ab4565b60405160208183030381529060405280519060200120600282600a8110610477576104766108f0565b5b602091828204019190069054906101000a900460ff1660405160200161049d9190610ab4565b604051602081830303815290604052805190602001200361060b57600060018111156104cc576104cb610acf565b5b3373ffffffffffffffffffffffffffffffffffffffff167f4e03d40bd18dda074f48d48933c93c225f246cd0c130c4accf937935282584df87878787600388600a811061051c5761051b6108f0565b5b602091828204019190069054906101000a900460ff164260405161054596959493929190610b48565b60405180910390a3600160009054906101000a900473ffffffffffffffffffffffffffffffffffffffff1673ffffffffffffffffffffffffffffffffffffffff1663eb39327a3360036001600a81106105a1576105a06108f0565b5b602091828204019190069054906101000a900460ff166040518363ffffffff1660e01b81526004016105d4929190610ba9565b600060405180830381600087803b1580156105ee57600080fd5b505af1158015610602573d6000803e3d6000fd5b50505050610618565b8080600101915050610433565b5061068b565b60018081111561063157610630610acf565b5b3373ffffffffffffffffffffffffffffffffffffffff167f4e03d40bd18dda074f48d48933c93c225f246cd0c130c4accf937935282584df8686868660004260405161068296959493929190610c0d565b60405180910390a35b50505050565b60008054906101000a900473ffffffffffffffffffffffffffffffffffffffff1681565b600160009054906101000a900473ffffffffffffffffffffffffffffffffffffffff1681565b600080600a4233856040516020016106f593929190610cd7565b6040516020818303038152906040528051906020012060001c6107189190610d43565b9050600281600a811061072e5761072d6108f0565b5b602091828204019190069054906101000a900460ff16915050919050565b600080fd5b6000819050919050565b61076481610751565b811461076f57600080fd5b50565b6000813590506107818161075b565b92915050565b60006020828403121561079d5761079c61074c565b5b60006107ab84828501610772565b91505092915050565b600073ffffffffffffffffffffffffffffffffffffffff82169050919050565b60006107df826107b4565b9050919050565b6107ef816107d4565b82525050565b600060208201905061080a60008301846107e6565b92915050565b600082825260208201905092915050565b7f546f6f20736d616c6c2062657420616d6f756e74000000000000000000000000600082015250565b6000610857601483610810565b915061086282610821565b602082019050919050565b600060208201905081810360008301526108868161084a565b9050919050565b7f4e487b7100000000000000000000000000000000000000000000000000000000600052601160045260246000fd5b60006108c782610751565b91506108d283610751565b92508282039050818111156108ea576108e961088d565b5b92915050565b7f4e487b7100000000000000000000000000000000000000000000000000000000600052603260045260246000fd5b60008151905061092e8161075b565b92915050565b60006020828403121561094a5761094961074c565b5b60006109588482850161091f565b91505092915050565b7f4e6f7420656e6f7567682066756e647320696e20636173696e6f000000000000600082015250565b6000610997601a83610810565b91506109a282610961565b602082019050919050565b600060208201905081810360008301526109c68161098a565b9050919050565b7f596f752068617665206e6f7420656e6f7567682066756e647300000000000000600082015250565b6000610a03601983610810565b9150610a0e826109cd565b602082019050919050565b60006020820190508181036000830152610a32816109f6565b9050919050565b610a4281610751565b82525050565b6000604082019050610a5d60008301856107e6565b610a6a6020830184610a39565b9392505050565b600060ff82169050919050565b60008160f81b9050919050565b6000610a9682610a7e565b9050919050565b610aae610aa982610a71565b610a8b565b82525050565b6000610ac08284610a9d565b60018201915081905092915050565b7f4e487b7100000000000000000000000000000000000000000000000000000000600052602160045260246000fd5b610b0781610a71565b82525050565b6000819050919050565b6000610b32610b2d610b2884610a71565b610b0d565b610751565b9050919050565b610b4281610b17565b82525050565b600060c082019050610b5d6000830189610a39565b610b6a6020830188610afe565b610b776040830187610afe565b610b846060830186610afe565b610b916080830185610b39565b610b9e60a0830184610a39565b979650505050505050565b6000604082019050610bbe60008301856107e6565b610bcb6020830184610b39565b9392505050565b6000819050919050565b6000610bf7610bf2610bed84610bd2565b610b0d565b610751565b9050919050565b610c0781610bdc565b82525050565b600060c082019050610c226000830189610a39565b610c2f6020830188610afe565b610c3c6040830187610afe565b610c496060830186610afe565b610c566080830185610bfe565b610c6360a0830184610a39565b979650505050505050565b6000819050919050565b610c89610c8482610751565b610c6e565b82525050565b60008160601b9050919050565b6000610ca782610c8f565b9050919050565b6000610cb982610c9c565b9050919050565b610cd1610ccc826107d4565b610cae565b82525050565b6000610ce38286610c78565b602082019150610cf38285610cc0565b601482019150610d038284610c78565b602082019150819050949350505050565b7f4e487b7100000000000000000000000000000000000000000000000000000000600052601260045260246000fd5b6000610d4e82610751565b9150610d5983610751565b925082610d6957610d68610d14565b5b82820690509291505056fea26469706673582212205e1232441a21e6e92edd808f4001e4cfbcc4739881e7bbaec2bc50bd84da2f9564736f6c63430008180033",
  "linkReferences": {},
  "deployedLinkReferences": {}
}