{
  "_format": "hh-sol-artifact-1",
  "contractName": "Casino",
  "sourceName": "contracts/Casino.sol",
  "abi": [
    {
      "inputs": [],
      "stateMutability": "payable",
      "type": "constructor"
    },
    {
      "anonymous": false,
      "inputs": [
        {
          "indexed": true,
          "internalType": "address",
          "name": "account",
          "type": "address"
        },
        {
          "indexed": false,
          "internalType": "uint256",
          "name": "amount",
          "type": "uint256"
        }
      ],
      "name": "Deposit",
      "type": "event"
    },
    {
      "anonymous": false,
      "inputs": [
        {
          "indexed": true,
          "internalType": "address",
          "name": "gameAddress",
          "type": "address"
        }
      ],
      "name": "GameAdded",
      "type": "event"
    },
    {
      "anonymous": false,
      "inputs": [
        {
          "indexed": true,
          "internalType": "address",
          "name": "account",
          "type": "address"
        },
        {
          "indexed": false,
          "internalType": "uint256",
          "name": "amount",
          "type": "uint256"
        }
      ],
      "name": "Withdraw",
      "type": "event"
    },
    {
      "inputs": [
        {
          "internalType": "address",
          "name": "_newSubownerAddress",
          "type": "address"
        }
      ],
      "name": "addSubOwner",
      "outputs": [],
      "stateMutability": "nonpayable",
      "type": "function"
    },
    {
      "inputs": [
        {
          "internalType": "address",
          "name": "_account",
          "type": "address"
        },
        {
          "internalType": "uint256",
          "name": "_amount",
          "type": "uint256"
        }
      ],
      "name": "addToAddressBalance",
      "outputs": [],
      "stateMutability": "nonpayable",
      "type": "function"
    },
    {
      "inputs": [],
      "name": "balance",
      "outputs": [
        {
          "internalType": "uint256",
          "name": "",
          "type": "uint256"
        }
      ],
      "stateMutability": "view",
      "type": "function"
    },
    {
      "inputs": [],
      "name": "deposit",
      "outputs": [],
      "stateMutability": "payable",
      "type": "function"
    },
    {
      "inputs": [
        {
          "internalType": "uint256",
          "name": "",
          "type": "uint256"
        }
      ],
      "name": "games",
      "outputs": [
        {
          "internalType": "address",
          "name": "",
          "type": "address"
        }
      ],
      "stateMutability": "view",
      "type": "function"
    },
    {
      "inputs": [],
      "name": "getBalance",
      "outputs": [
        {
          "internalType": "uint256",
          "name": "",
          "type": "uint256"
        }
      ],
      "stateMutability": "view",
      "type": "function"
    },
    {
      "inputs": [
        {
          "internalType": "address",
          "name": "_account",
          "type": "address"
        }
      ],
      "name": "getBalanceOf",
      "outputs": [
        {
          "internalType": "uint256",
          "name": "",
          "type": "uint256"
        }
      ],
      "stateMutability": "view",
      "type": "function"
    },
    {
      "inputs": [],
      "name": "getCasinoBalance",
      "outputs": [
        {
          "internalType": "uint256",
          "name": "",
          "type": "uint256"
        }
      ],
      "stateMutability": "view",
      "type": "function"
    },
    {
      "inputs": [
        {
          "internalType": "address",
          "name": "_account",
          "type": "address"
        },
        {
          "internalType": "uint256",
          "name": "_amount",
          "type": "uint256"
        }
      ],
      "name": "getFromAddressBalance",
      "outputs": [],
      "stateMutability": "nonpayable",
      "type": "function"
    },
    {
      "inputs": [
        {
          "internalType": "address",
          "name": "_address",
          "type": "address"
        }
      ],
      "name": "getSubowners",
      "outputs": [
        {
          "internalType": "bool",
          "name": "",
          "type": "bool"
        }
      ],
      "stateMutability": "view",
      "type": "function"
    },
    {
      "inputs": [],
      "name": "owner",
      "outputs": [
        {
          "internalType": "address",
          "name": "",
          "type": "address"
        }
      ],
      "stateMutability": "view",
      "type": "function"
    },
    {
      "inputs": [
        {
          "internalType": "uint256",
          "name": "amount",
          "type": "uint256"
        }
      ],
      "name": "withdraw",
      "outputs": [],
      "stateMutability": "nonpayable",
      "type": "function"
    },
    {
      "stateMutability": "payable",
      "type": "receive"
    }
  ],
  "bytecode": "0x608060405233600360006101000a81548173ffffffffffffffffffffffffffffffffffffffff021916908373ffffffffffffffffffffffffffffffffffffffff1602179055506000341115610067573460008082825461005f91906100a5565b925050819055505b6100d9565b6000819050919050565b7f4e487b7100000000000000000000000000000000000000000000000000000000600052601160045260246000fd5b60006100b08261006c565b91506100bb8361006c565b92508282019050808211156100d3576100d2610076565b5b92915050565b61101d806100e86000396000f3fe6080604052600436106100ab5760003560e01c80638da5cb5b116100645780638da5cb5b146102335780639b96eece1461025e578063b69ef8a81461029b578063d0e30db0146102c6578063e530d14c146102d0578063eb39327a146102f95761010c565b806310db338d14610111578063117a5b901461014e57806312065fe01461018b5780631a0843c0146101b65780632e1a7d4d146101e157806363fb576f1461020a5761010c565b3661010c57600034116100f3576040517f08c379a00000000000000000000000000000000000000000000000000000000081526004016100ea90610be3565b60405180910390fd5b346000808282546101049190610c3c565b925050819055005b600080fd5b34801561011d57600080fd5b5061013860048036038101906101339190610cd3565b610322565b6040516101459190610d1b565b60405180910390f35b34801561015a57600080fd5b5061017560048036038101906101709190610d62565b610408565b6040516101829190610d9e565b60405180910390f35b34801561019757600080fd5b506101a0610447565b6040516101ad9190610dc8565b60405180910390f35b3480156101c257600080fd5b506101cb61048e565b6040516101d89190610dc8565b60405180910390f35b3480156101ed57600080fd5b5061020860048036038101906102039190610d62565b610497565b005b34801561021657600080fd5b50610231600480360381019061022c9190610de3565b610607565b005b34801561023f57600080fd5b5061024861078d565b6040516102559190610d9e565b60405180910390f35b34801561026a57600080fd5b5061028560048036038101906102809190610cd3565b6107b3565b6040516102929190610dc8565b60405180910390f35b3480156102a757600080fd5b506102b0610888565b6040516102bd9190610dc8565b60405180910390f35b6102ce61088e565b005b3480156102dc57600080fd5b506102f760048036038101906102f29190610cd3565b610977565b005b34801561030557600080fd5b50610320600480360381019061031b9190610de3565b610a62565b005b6000600360009054906101000a900473ffffffffffffffffffffffffffffffffffffffff1673ffffffffffffffffffffffffffffffffffffffff163373ffffffffffffffffffffffffffffffffffffffff16146103b4576040517f08c379a00000000000000000000000000000000000000000000000000000000081526004016103ab90610e95565b60405180910390fd5b600260008373ffffffffffffffffffffffffffffffffffffffff1673ffffffffffffffffffffffffffffffffffffffff16815260200190815260200160002060009054906101000a900460ff169050919050565b6004818154811061041857600080fd5b906000526020600020016000915054906101000a900473ffffffffffffffffffffffffffffffffffffffff1681565b6000600160003373ffffffffffffffffffffffffffffffffffffffff1673ffffffffffffffffffffffffffffffffffffffff16815260200190815260200160002054905090565b60008054905090565b80600160003373ffffffffffffffffffffffffffffffffffffffff1673ffffffffffffffffffffffffffffffffffffffff168152602001908152602001600020541015610519576040517f08c379a000000000000000000000000000000000000000000000000000000000815260040161051090610f01565b60405180910390fd5b3373ffffffffffffffffffffffffffffffffffffffff166108fc829081150290604051600060405180830381858888f1935050505015801561055f573d6000803e3d6000fd5b5080600160003373ffffffffffffffffffffffffffffffffffffffff1673ffffffffffffffffffffffffffffffffffffffff16815260200190815260200160002060008282546105af9190610f21565b925050819055503373ffffffffffffffffffffffffffffffffffffffff167f884edad9ce6fa2440d8a54cc123490eb96d2768479d49ff9c7366125a9424364826040516105fc9190610dc8565b60405180910390a250565b600260003373ffffffffffffffffffffffffffffffffffffffff1673ffffffffffffffffffffffffffffffffffffffff16815260200190815260200160002060009054906101000a900460ff16610693576040517f08c379a000000000000000000000000000000000000000000000000000000000815260040161068a90610fc7565b60405180910390fd5b6000600160008473ffffffffffffffffffffffffffffffffffffffff1673ffffffffffffffffffffffffffffffffffffffff1681526020019081526020016000205490508181101561071a576040517f08c379a000000000000000000000000000000000000000000000000000000000815260040161071190610f01565b60405180910390fd5b81600160008573ffffffffffffffffffffffffffffffffffffffff1673ffffffffffffffffffffffffffffffffffffffff16815260200190815260200160002060008282546107699190610f21565b92505081905550816000808282546107819190610c3c565b92505081905550505050565b600360009054906101000a900473ffffffffffffffffffffffffffffffffffffffff1681565b6000600260003373ffffffffffffffffffffffffffffffffffffffff1673ffffffffffffffffffffffffffffffffffffffff16815260200190815260200160002060009054906101000a900460ff16610841576040517f08c379a000000000000000000000000000000000000000000000000000000000815260040161083890610fc7565b60405180910390fd5b600160008373ffffffffffffffffffffffffffffffffffffffff1673ffffffffffffffffffffffffffffffffffffffff168152602001908152602001600020549050919050565b60005481565b600034116108d1576040517f08c379a00000000000000000000000000000000000000000000000000000000081526004016108c890610be3565b60405180910390fd5b34600160003373ffffffffffffffffffffffffffffffffffffffff1673ffffffffffffffffffffffffffffffffffffffff16815260200190815260200160002060008282546109209190610c3c565b925050819055503373ffffffffffffffffffffffffffffffffffffffff167fe1fffcc4923d04b559f4d29a8bfc6cda04eb5b0d3c460751c2402c5c5cc9109c3460405161096d9190610dc8565b60405180910390a2565b600360009054906101000a900473ffffffffffffffffffffffffffffffffffffffff1673ffffffffffffffffffffffffffffffffffffffff163373ffffffffffffffffffffffffffffffffffffffff1614610a07576040517f08c379a00000000000000000000000000000000000000000000000000000000081526004016109fe90610e95565b60405180910390fd5b6001600260008373ffffffffffffffffffffffffffffffffffffffff1673ffffffffffffffffffffffffffffffffffffffff16815260200190815260200160002060006101000a81548160ff02191690831515021790555050565b600260003373ffffffffffffffffffffffffffffffffffffffff1673ffffffffffffffffffffffffffffffffffffffff16815260200190815260200160002060009054906101000a900460ff16610aee576040517f08c379a0000000000000000000000000000000000000000000000000000000008152600401610ae590610fc7565b60405180910390fd5b80600160008473ffffffffffffffffffffffffffffffffffffffff1673ffffffffffffffffffffffffffffffffffffffff1681526020019081526020016000206000828254610b3d9190610c3c565b9250508190555080600080828254610b559190610f21565b925050819055505050565b600082825260208201905092915050565b7f4465706f73697420616d6f756e74206d7573742062652067726561746572207460008201527f68616e207a65726f2e0000000000000000000000000000000000000000000000602082015250565b6000610bcd602983610b60565b9150610bd882610b71565b604082019050919050565b60006020820190508181036000830152610bfc81610bc0565b9050919050565b6000819050919050565b7f4e487b7100000000000000000000000000000000000000000000000000000000600052601160045260246000fd5b6000610c4782610c03565b9150610c5283610c03565b9250828201905080821115610c6a57610c69610c0d565b5b92915050565b600080fd5b600073ffffffffffffffffffffffffffffffffffffffff82169050919050565b6000610ca082610c75565b9050919050565b610cb081610c95565b8114610cbb57600080fd5b50565b600081359050610ccd81610ca7565b92915050565b600060208284031215610ce957610ce8610c70565b5b6000610cf784828501610cbe565b91505092915050565b60008115159050919050565b610d1581610d00565b82525050565b6000602082019050610d306000830184610d0c565b92915050565b610d3f81610c03565b8114610d4a57600080fd5b50565b600081359050610d5c81610d36565b92915050565b600060208284031215610d7857610d77610c70565b5b6000610d8684828501610d4d565b91505092915050565b610d9881610c95565b82525050565b6000602082019050610db36000830184610d8f565b92915050565b610dc281610c03565b82525050565b6000602082019050610ddd6000830184610db9565b92915050565b60008060408385031215610dfa57610df9610c70565b5b6000610e0885828601610cbe565b9250506020610e1985828601610d4d565b9150509250929050565b7f4f6e6c79206f776e65722063616e2063616c6c20746869732066756e6374696f60008201527f6e2e000000000000000000000000000000000000000000000000000000000000602082015250565b6000610e7f602283610b60565b9150610e8a82610e23565b604082019050919050565b60006020820190508181036000830152610eae81610e72565b9050919050565b7f496e73756666696369656e742062616c616e63652e0000000000000000000000600082015250565b6000610eeb601583610b60565b9150610ef682610eb5565b602082019050919050565b60006020820190508181036000830152610f1a81610ede565b9050919050565b6000610f2c82610c03565b9150610f3783610c03565b9250828203905081811115610f4f57610f4e610c0d565b5b92915050565b7f4f6e6c79207375624f776e6572732063616e2063616c6c20746869732066756e60008201527f6374696f6e2e0000000000000000000000000000000000000000000000000000602082015250565b6000610fb1602683610b60565b9150610fbc82610f55565b604082019050919050565b60006020820190508181036000830152610fe081610fa4565b905091905056fea26469706673582212203361c39e16520b626c3e408f49fc209e679975f1c525b2bd4dabb01156fe9c2464736f6c63430008180033",
  "linkReferences": {},
  "deployedLinkReferences": {}
}