{
  "_format": "hh-sol-artifact-1",
  "contractName": "Casino",
  "sourceName": "contracts/Casino.sol",
  "abi": [
    {
      "inputs": [
        {
          "internalType": "address",
          "name": "_tokenAddress",
          "type": "address"
        }
      ],
      "stateMutability": "payable",
      "type": "constructor"
    },
    {
      "anonymous": false,
      "inputs": [
        {
          "indexed": true,
          "internalType": "address",
          "name": "account",
          "type": "address"
        },
        {
          "indexed": false,
          "internalType": "uint256",
          "name": "amount",
          "type": "uint256"
        }
      ],
      "name": "Deposit",
      "type": "event"
    },
    {
      "anonymous": false,
      "inputs": [
        {
          "indexed": true,
          "internalType": "address",
          "name": "gameAddress",
          "type": "address"
        }
      ],
      "name": "GameAdded",
      "type": "event"
    },
    {
      "anonymous": false,
      "inputs": [
        {
          "indexed": true,
          "internalType": "address",
          "name": "account",
          "type": "address"
        },
        {
          "indexed": false,
          "internalType": "uint256",
          "name": "amount",
          "type": "uint256"
        }
      ],
      "name": "Withdraw",
      "type": "event"
    },
    {
      "inputs": [],
      "name": "NATIVE_TO_CHIP_RATE",
      "outputs": [
        {
          "internalType": "uint256",
          "name": "",
          "type": "uint256"
        }
      ],
      "stateMutability": "view",
      "type": "function"
    },
    {
      "inputs": [
        {
          "internalType": "address",
          "name": "_newSubownerAddress",
          "type": "address"
        }
      ],
      "name": "addSubOwner",
      "outputs": [],
      "stateMutability": "nonpayable",
      "type": "function"
    },
    {
      "inputs": [
        {
          "internalType": "address",
          "name": "_account",
          "type": "address"
        },
        {
          "internalType": "uint256",
          "name": "_amount",
          "type": "uint256"
        }
      ],
      "name": "addToAddressBalance",
      "outputs": [],
      "stateMutability": "nonpayable",
      "type": "function"
    },
    {
      "inputs": [],
      "name": "casinoToken",
      "outputs": [
        {
          "internalType": "contract ICasinoCoin",
          "name": "",
          "type": "address"
        }
      ],
      "stateMutability": "view",
      "type": "function"
    },
    {
      "inputs": [],
      "name": "deposit",
      "outputs": [],
      "stateMutability": "payable",
      "type": "function"
    },
    {
      "inputs": [],
      "name": "getBalance",
      "outputs": [
        {
          "internalType": "uint256",
          "name": "",
          "type": "uint256"
        }
      ],
      "stateMutability": "view",
      "type": "function"
    },
    {
      "inputs": [
        {
          "internalType": "address",
          "name": "_account",
          "type": "address"
        }
      ],
      "name": "getBalanceOf",
      "outputs": [
        {
          "internalType": "uint256",
          "name": "",
          "type": "uint256"
        }
      ],
      "stateMutability": "view",
      "type": "function"
    },
    {
      "inputs": [],
      "name": "getCasinoBalance",
      "outputs": [
        {
          "internalType": "uint256",
          "name": "",
          "type": "uint256"
        }
      ],
      "stateMutability": "view",
      "type": "function"
    },
    {
      "inputs": [
        {
          "internalType": "address",
          "name": "_account",
          "type": "address"
        },
        {
          "internalType": "uint256",
          "name": "_amount",
          "type": "uint256"
        }
      ],
      "name": "getFromAddressBalance",
      "outputs": [],
      "stateMutability": "nonpayable",
      "type": "function"
    },
    {
      "inputs": [
        {
          "internalType": "address",
          "name": "_address",
          "type": "address"
        }
      ],
      "name": "getSubowners",
      "outputs": [
        {
          "internalType": "bool",
          "name": "",
          "type": "bool"
        }
      ],
      "stateMutability": "view",
      "type": "function"
    },
    {
      "inputs": [],
      "name": "owner",
      "outputs": [
        {
          "internalType": "address",
          "name": "",
          "type": "address"
        }
      ],
      "stateMutability": "view",
      "type": "function"
    },
    {
      "inputs": [
        {
          "internalType": "uint256",
          "name": "amount",
          "type": "uint256"
        }
      ],
      "name": "withdraw",
      "outputs": [],
      "stateMutability": "nonpayable",
      "type": "function"
    }
  ],
  "bytecode": "0x6080604052604051620017293803806200172983398181016040528101906200002991906200023b565b33600260006101000a81548173ffffffffffffffffffffffffffffffffffffffff021916908373ffffffffffffffffffffffffffffffffffffffff160217905550806000806101000a81548173ffffffffffffffffffffffffffffffffffffffff021916908373ffffffffffffffffffffffffffffffffffffffff160217905550620000dd600260009054906101000a900473ffffffffffffffffffffffffffffffffffffffff16620000e460201b60201c565b50620002f0565b600260009054906101000a900473ffffffffffffffffffffffffffffffffffffffff1673ffffffffffffffffffffffffffffffffffffffff163373ffffffffffffffffffffffffffffffffffffffff161462000177576040517f08c379a00000000000000000000000000000000000000000000000000000000081526004016200016e90620002ce565b60405180910390fd5b60018060008373ffffffffffffffffffffffffffffffffffffffff1673ffffffffffffffffffffffffffffffffffffffff16815260200190815260200160002060006101000a81548160ff02191690831515021790555050565b600080fd5b600073ffffffffffffffffffffffffffffffffffffffff82169050919050565b60006200020382620001d6565b9050919050565b6200021581620001f6565b81146200022157600080fd5b50565b60008151905062000235816200020a565b92915050565b600060208284031215620002545762000253620001d1565b5b6000620002648482850162000224565b91505092915050565b600082825260208201905092915050565b7f4f6e6c79206f776e657200000000000000000000000000000000000000000000600082015250565b6000620002b6600a836200026d565b9150620002c3826200027e565b602082019050919050565b60006020820190508181036000830152620002e981620002a7565b9050919050565b61142980620003006000396000f3fe6080604052600436106100a75760003560e01c806371d053751161006457806371d05375146101bc5780638da5cb5b146101e75780639b96eece14610212578063d0e30db01461024f578063e530d14c14610259578063eb39327a14610282576100a7565b806301bd38f7146100ac57806310db338d146100d757806312065fe0146101145780631a0843c01461013f5780632e1a7d4d1461016a57806363fb576f14610193575b600080fd5b3480156100b857600080fd5b506100c16102ab565b6040516100ce9190610e00565b60405180910390f35b3480156100e357600080fd5b506100fe60048036038101906100f99190610e7e565b6102b2565b60405161010b9190610ec6565b60405180910390f35b34801561012057600080fd5b50610129610398565b6040516101369190610e00565b60405180910390f35b34801561014b57600080fd5b5061015461043a565b6040516101619190610e00565b60405180910390f35b34801561017657600080fd5b50610191600480360381019061018c9190610f0d565b6104dc565b005b34801561019f57600080fd5b506101ba60048036038101906101b59190610f3a565b610734565b005b3480156101c857600080fd5b506101d161092d565b6040516101de9190610fd9565b60405180910390f35b3480156101f357600080fd5b506101fc610951565b6040516102099190611003565b60405180910390f35b34801561021e57600080fd5b5061023960048036038101906102349190610e7e565b610977565b6040516102469190610e00565b60405180910390f35b610257610aa6565b005b34801561026557600080fd5b50610280600480360381019061027b9190610e7e565b610be0565b005b34801561028e57600080fd5b506102a960048036038101906102a49190610f3a565b610cca565b005b620186a081565b6000600260009054906101000a900473ffffffffffffffffffffffffffffffffffffffff1673ffffffffffffffffffffffffffffffffffffffff163373ffffffffffffffffffffffffffffffffffffffff1614610344576040517f08c379a000000000000000000000000000000000000000000000000000000000815260040161033b9061107b565b60405180910390fd5b600160008373ffffffffffffffffffffffffffffffffffffffff1673ffffffffffffffffffffffffffffffffffffffff16815260200190815260200160002060009054906101000a900460ff169050919050565b60008060009054906101000a900473ffffffffffffffffffffffffffffffffffffffff1673ffffffffffffffffffffffffffffffffffffffff166370a08231336040518263ffffffff1660e01b81526004016103f49190611003565b602060405180830381865afa158015610411573d6000803e3d6000fd5b505050506040513d601f19601f8201168201806040525081019061043591906110b0565b905090565b60008060009054906101000a900473ffffffffffffffffffffffffffffffffffffffff1673ffffffffffffffffffffffffffffffffffffffff166370a08231306040518263ffffffff1660e01b81526004016104969190611003565b602060405180830381865afa1580156104b3573d6000803e3d6000fd5b505050506040513d601f19601f820116820180604052508101906104d791906110b0565b905090565b6000811161051f576040517f08c379a000000000000000000000000000000000000000000000000000000000815260040161051690611129565b60405180910390fd5b8060008054906101000a900473ffffffffffffffffffffffffffffffffffffffff1673ffffffffffffffffffffffffffffffffffffffff166370a08231336040518263ffffffff1660e01b81526004016105799190611003565b602060405180830381865afa158015610596573d6000803e3d6000fd5b505050506040513d601f19601f820116820180604052508101906105ba91906110b0565b10156105fb576040517f08c379a00000000000000000000000000000000000000000000000000000000081526004016105f290611195565b60405180910390fd5b60008054906101000a900473ffffffffffffffffffffffffffffffffffffffff1673ffffffffffffffffffffffffffffffffffffffff166379cc679033836040518363ffffffff1660e01b81526004016106569291906111b5565b600060405180830381600087803b15801561067057600080fd5b505af1158015610684573d6000803e3d6000fd5b505050506000620186a082610699919061123c565b90503373ffffffffffffffffffffffffffffffffffffffff166108fc829081150290604051600060405180830381858888f193505050501580156106e1573d6000803e3d6000fd5b503373ffffffffffffffffffffffffffffffffffffffff167f884edad9ce6fa2440d8a54cc123490eb96d2768479d49ff9c7366125a9424364836040516107289190610e00565b60405180910390a25050565b600160003373ffffffffffffffffffffffffffffffffffffffff1673ffffffffffffffffffffffffffffffffffffffff16815260200190815260200160002060009054906101000a900460ff166107c0576040517f08c379a00000000000000000000000000000000000000000000000000000000081526004016107b7906112b9565b60405180910390fd5b8060008054906101000a900473ffffffffffffffffffffffffffffffffffffffff1673ffffffffffffffffffffffffffffffffffffffff166370a08231846040518263ffffffff1660e01b815260040161081a9190611003565b602060405180830381865afa158015610837573d6000803e3d6000fd5b505050506040513d601f19601f8201168201806040525081019061085b91906110b0565b101561089c576040517f08c379a000000000000000000000000000000000000000000000000000000000815260040161089390611325565b60405180910390fd5b60008054906101000a900473ffffffffffffffffffffffffffffffffffffffff1673ffffffffffffffffffffffffffffffffffffffff166379cc679083836040518363ffffffff1660e01b81526004016108f79291906111b5565b600060405180830381600087803b15801561091157600080fd5b505af1158015610925573d6000803e3d6000fd5b505050505050565b60008054906101000a900473ffffffffffffffffffffffffffffffffffffffff1681565b600260009054906101000a900473ffffffffffffffffffffffffffffffffffffffff1681565b6000600160003373ffffffffffffffffffffffffffffffffffffffff1673ffffffffffffffffffffffffffffffffffffffff16815260200190815260200160002060009054906101000a900460ff16610a05576040517f08c379a00000000000000000000000000000000000000000000000000000000081526004016109fc906112b9565b60405180910390fd5b60008054906101000a900473ffffffffffffffffffffffffffffffffffffffff1673ffffffffffffffffffffffffffffffffffffffff166370a08231836040518263ffffffff1660e01b8152600401610a5e9190611003565b602060405180830381865afa158015610a7b573d6000803e3d6000fd5b505050506040513d601f19601f82011682018060405250810190610a9f91906110b0565b9050919050565b66038d7ea4c680003411610aef576040517f08c379a0000000000000000000000000000000000000000000000000000000008152600401610ae690611391565b60405180910390fd5b6000620186a034610b0091906113b1565b905060008054906101000a900473ffffffffffffffffffffffffffffffffffffffff1673ffffffffffffffffffffffffffffffffffffffff166340c10f1933836040518363ffffffff1660e01b8152600401610b5d9291906111b5565b600060405180830381600087803b158015610b7757600080fd5b505af1158015610b8b573d6000803e3d6000fd5b505050503373ffffffffffffffffffffffffffffffffffffffff167fe1fffcc4923d04b559f4d29a8bfc6cda04eb5b0d3c460751c2402c5c5cc9109c34604051610bd59190610e00565b60405180910390a250565b600260009054906101000a900473ffffffffffffffffffffffffffffffffffffffff1673ffffffffffffffffffffffffffffffffffffffff163373ffffffffffffffffffffffffffffffffffffffff1614610c70576040517f08c379a0000000000000000000000000000000000000000000000000000000008152600401610c679061107b565b60405180910390fd5b60018060008373ffffffffffffffffffffffffffffffffffffffff1673ffffffffffffffffffffffffffffffffffffffff16815260200190815260200160002060006101000a81548160ff02191690831515021790555050565b600160003373ffffffffffffffffffffffffffffffffffffffff1673ffffffffffffffffffffffffffffffffffffffff16815260200190815260200160002060009054906101000a900460ff16610d56576040517f08c379a0000000000000000000000000000000000000000000000000000000008152600401610d4d906112b9565b60405180910390fd5b60008054906101000a900473ffffffffffffffffffffffffffffffffffffffff1673ffffffffffffffffffffffffffffffffffffffff166340c10f1983836040518363ffffffff1660e01b8152600401610db19291906111b5565b600060405180830381600087803b158015610dcb57600080fd5b505af1158015610ddf573d6000803e3d6000fd5b505050505050565b6000819050919050565b610dfa81610de7565b82525050565b6000602082019050610e156000830184610df1565b92915050565b600080fd5b600073ffffffffffffffffffffffffffffffffffffffff82169050919050565b6000610e4b82610e20565b9050919050565b610e5b81610e40565b8114610e6657600080fd5b50565b600081359050610e7881610e52565b92915050565b600060208284031215610e9457610e93610e1b565b5b6000610ea284828501610e69565b91505092915050565b60008115159050919050565b610ec081610eab565b82525050565b6000602082019050610edb6000830184610eb7565b92915050565b610eea81610de7565b8114610ef557600080fd5b50565b600081359050610f0781610ee1565b92915050565b600060208284031215610f2357610f22610e1b565b5b6000610f3184828501610ef8565b91505092915050565b60008060408385031215610f5157610f50610e1b565b5b6000610f5f85828601610e69565b9250506020610f7085828601610ef8565b9150509250929050565b6000819050919050565b6000610f9f610f9a610f9584610e20565b610f7a565b610e20565b9050919050565b6000610fb182610f84565b9050919050565b6000610fc382610fa6565b9050919050565b610fd381610fb8565b82525050565b6000602082019050610fee6000830184610fca565b92915050565b610ffd81610e40565b82525050565b60006020820190506110186000830184610ff4565b92915050565b600082825260208201905092915050565b7f4f6e6c79206f776e657200000000000000000000000000000000000000000000600082015250565b6000611065600a8361101e565b91506110708261102f565b602082019050919050565b6000602082019050818103600083015261109481611058565b9050919050565b6000815190506110aa81610ee1565b92915050565b6000602082840312156110c6576110c5610e1b565b5b60006110d48482850161109b565b91505092915050565b7f416d6f756e74206d757374206265203e20300000000000000000000000000000600082015250565b600061111360128361101e565b915061111e826110dd565b602082019050919050565b6000602082019050818103600083015261114281611106565b9050919050565b7f496e73756666696369656e742062616c616e6365000000000000000000000000600082015250565b600061117f60148361101e565b915061118a82611149565b602082019050919050565b600060208201905081810360008301526111ae81611172565b9050919050565b60006040820190506111ca6000830185610ff4565b6111d76020830184610df1565b9392505050565b7f4e487b7100000000000000000000000000000000000000000000000000000000600052601260045260246000fd5b7f4e487b7100000000000000000000000000000000000000000000000000000000600052601160045260246000fd5b600061124782610de7565b915061125283610de7565b925082611262576112616111de565b5b828204905092915050565b7f4f6e6c79207375624f776e657273000000000000000000000000000000000000600082015250565b60006112a3600e8361101e565b91506112ae8261126d565b602082019050919050565b600060208201905081810360008301526112d281611296565b9050919050565b7f496e73756666696369656e7420757365722062616c616e636500000000000000600082015250565b600061130f60198361101e565b915061131a826112d9565b602082019050919050565b6000602082019050818103600083015261133e81611302565b9050919050565b7f4d696e696d756d206465706f73697420697320302e3030310000000000000000600082015250565b600061137b60188361101e565b915061138682611345565b602082019050919050565b600060208201905081810360008301526113aa8161136e565b9050919050565b60006113bc82610de7565b91506113c783610de7565b92508282026113d581610de7565b915082820484148315176113ec576113eb61120d565b5b509291505056fea2646970667358221220fc8be2f2c0a0587f11fd92796f6bef239c71fa3dce94e437f1c116b7ca48ade964736f6c63430008180033",
  "linkReferences": {},
  "deployedLinkReferences": {}
}